{
	"contracts/vaccineTest.sol": {
		"VaccineTest": {
			"abi": [
				{
					"constant": true,
					"inputs": [
						{
							"name": "",
							"type": "uint256"
						}
					],
					"name": "viruses",
					"outputs": [
						{
							"name": "name",
							"type": "string"
						},
						{
							"name": "level",
							"type": "uint256"
						}
					],
					"payable": false,
					"stateMutability": "view",
					"type": "function"
				},
				{
					"constant": true,
					"inputs": [
						{
							"name": "_owner",
							"type": "address"
						}
					],
					"name": "getVaccinesByOwner",
					"outputs": [
						{
							"name": "",
							"type": "uint256[]"
						}
					],
					"payable": false,
					"stateMutability": "view",
					"type": "function"
				},
				{
					"constant": true,
					"inputs": [
						{
							"name": "",
							"type": "uint256"
						}
					],
					"name": "vaccines",
					"outputs": [
						{
							"name": "name",
							"type": "string"
						},
						{
							"name": "rna",
							"type": "uint256"
						},
						{
							"name": "power",
							"type": "uint256"
						},
						{
							"name": "cures",
							"type": "uint256"
						}
					],
					"payable": false,
					"stateMutability": "view",
					"type": "function"
				},
				{
					"constant": false,
					"inputs": [],
					"name": "withdraw",
					"outputs": [],
					"payable": false,
					"stateMutability": "nonpayable",
					"type": "function"
				},
				{
					"constant": false,
					"inputs": [],
					"name": "kill",
					"outputs": [],
					"payable": false,
					"stateMutability": "nonpayable",
					"type": "function"
				},
				{
					"constant": true,
					"inputs": [
						{
							"name": "",
							"type": "uint256"
						}
					],
					"name": "vaccineToOwner",
					"outputs": [
						{
							"name": "",
							"type": "address"
						}
					],
					"payable": false,
					"stateMutability": "view",
					"type": "function"
				},
				{
					"constant": true,
					"inputs": [],
					"name": "owner",
					"outputs": [
						{
							"name": "",
							"type": "address"
						}
					],
					"payable": false,
					"stateMutability": "view",
					"type": "function"
				},
				{
					"constant": false,
					"inputs": [
						{
							"name": "_fee",
							"type": "uint256"
						}
					],
					"name": "setPowerUpFee",
					"outputs": [],
					"payable": false,
					"stateMutability": "nonpayable",
					"type": "function"
				},
				{
					"constant": false,
					"inputs": [
						{
							"name": "_vaccineID",
							"type": "uint256"
						},
						{
							"name": "_newRna",
							"type": "uint256"
						}
					],
					"name": "changeRna",
					"outputs": [],
					"payable": false,
					"stateMutability": "nonpayable",
					"type": "function"
				},
				{
					"constant": false,
					"inputs": [
						{
							"name": "_vaccineID",
							"type": "uint256"
						}
					],
					"name": "powerUp",
					"outputs": [],
					"payable": true,
					"stateMutability": "payable",
					"type": "function"
				},
				{
					"constant": false,
					"inputs": [
						{
							"name": "_vaccineID",
							"type": "uint256"
						},
						{
							"name": "_newName",
							"type": "string"
						}
					],
					"name": "changeName",
					"outputs": [],
					"payable": false,
					"stateMutability": "nonpayable",
					"type": "function"
				},
				{
					"constant": false,
					"inputs": [
						{
							"name": "_name",
							"type": "string"
						}
					],
					"name": "createRandomVaccine",
					"outputs": [],
					"payable": false,
					"stateMutability": "nonpayable",
					"type": "function"
				},
				{
					"constant": false,
					"inputs": [
						{
							"name": "_vaccineID",
							"type": "uint256"
						},
						{
							"name": "_virusID",
							"type": "uint256"
						}
					],
					"name": "test",
					"outputs": [],
					"payable": false,
					"stateMutability": "nonpayable",
					"type": "function"
				},
				{
					"constant": false,
					"inputs": [
						{
							"name": "newOwner",
							"type": "address"
						}
					],
					"name": "transferOwnership",
					"outputs": [],
					"payable": false,
					"stateMutability": "nonpayable",
					"type": "function"
				},
				{
					"anonymous": false,
					"inputs": [
						{
							"indexed": false,
							"name": "vaccineID",
							"type": "uint256"
						},
						{
							"indexed": false,
							"name": "name",
							"type": "string"
						},
						{
							"indexed": false,
							"name": "rna",
							"type": "uint256"
						}
					],
					"name": "newVaccine",
					"type": "event"
				},
				{
					"anonymous": false,
					"inputs": [
						{
							"indexed": true,
							"name": "previousOwner",
							"type": "address"
						},
						{
							"indexed": true,
							"name": "newOwner",
							"type": "address"
						}
					],
					"name": "OwnershipTransferred",
					"type": "event"
				}
			],
			"devdoc": {
				"methods": {}
			},
			"evm": {
				"assembly": "    /* \"contracts/vaccineTest.sol\":84:681  contract VaccineTest is VaccineHelper, Virus {\r... */\n  mstore(0x40, 0x80)\n    /* \"contracts/vaccineFactory.sol\":175:177  16 */\n  0x10\n    /* \"contracts/vaccineFactory.sol\":158:177  uint rnaDigits = 16 */\n  0x1\n  sstore\n    /* \"contracts/vaccineFactory.sol\":208:217  rnaDigits */\n  sload(0x1)\n    /* \"contracts/vaccineFactory.sol\":202:204  10 */\n  0xa\n    /* \"contracts/vaccineFactory.sol\":202:217  10 ** rnaDigits */\n  exp\n    /* \"contracts/vaccineFactory.sol\":184:217  uint rnaModulus = 10 ** rnaDigits */\n  0x2\n  sstore\n    /* \"contracts/vaccineHelper.sol\":390:401  0.001 ether */\n  0x38d7ea4c68000\n    /* \"contracts/vaccineHelper.sol\":372:401  uint powerUpFee = 0.001 ether */\n  0x7\n  sstore\n    /* \"contracts/vaccineTest.sol\":153:154  0 */\n  0x0\n    /* \"contracts/vaccineTest.sol\":136:154  uint randNonce = 0 */\n  0x9\n  sstore\n    /* \"contracts/vaccineTest.sol\":187:189  70 */\n  0x46\n    /* \"contracts/vaccineTest.sol\":161:189  uint successProbability = 70 */\n  0xa\n  sstore\n    /* \"contracts/ownable.sol\":220:230  msg.sender */\n  caller\n    /* \"contracts/ownable.sol\":212:217  owner */\n  0x0\n  dup1\n    /* \"contracts/ownable.sol\":212:230  owner = msg.sender */\n  0x100\n  exp\n  dup2\n  sload\n  dup2\n  0xffffffffffffffffffffffffffffffffffffffff\n  mul\n  not\n  and\n  swap1\n  dup4\n  0xffffffffffffffffffffffffffffffffffffffff\n  and\n  mul\n  or\n  swap1\n  sstore\n  pop\n    /* \"contracts/vaccineFactory.sol\":293:303  msg.sender */\n  caller\n    /* \"contracts/vaccineFactory.sol\":285:290  owner */\n  0x3\n  0x0\n    /* \"contracts/vaccineFactory.sol\":285:303  owner = msg.sender */\n  0x100\n  exp\n  dup2\n  sload\n  dup2\n  0xffffffffffffffffffffffffffffffffffffffff\n  mul\n  not\n  and\n  swap1\n  dup4\n  0xffffffffffffffffffffffffffffffffffffffff\n  and\n  mul\n  or\n  swap1\n  sstore\n  pop\n    /* \"contracts/vaccineTest.sol\":84:681  contract VaccineTest is VaccineHelper, Virus {\r... */\n  dataSize(sub_0)\n  dup1\n  dataOffset(sub_0)\n  0x0\n  codecopy\n  0x0\n  return\nstop\n\nsub_0: assembly {\n        /* \"contracts/vaccineTest.sol\":84:681  contract VaccineTest is VaccineHelper, Virus {\r... */\n      mstore(0x40, 0x80)\n      jumpi(tag_1, lt(calldatasize, 0x4))\n      calldataload(0x0)\n      0x100000000000000000000000000000000000000000000000000000000\n      swap1\n      div\n      0xffffffff\n      and\n      dup1\n      0x1bb57b96\n      eq\n      tag_2\n      jumpi\n      dup1\n      0x2dc49fb6\n      eq\n      tag_3\n      jumpi\n      dup1\n      0x300e88bd\n      eq\n      tag_4\n      jumpi\n      dup1\n      0x3ccfd60b\n      eq\n      tag_5\n      jumpi\n      dup1\n      0x41c0e1b5\n      eq\n      tag_6\n      jumpi\n      dup1\n      0x527c382f\n      eq\n      tag_7\n      jumpi\n      dup1\n      0x8da5cb5b\n      eq\n      tag_8\n      jumpi\n      dup1\n      0x90b0722e\n      eq\n      tag_9\n      jumpi\n      dup1\n      0x934c4649\n      eq\n      tag_10\n      jumpi\n      dup1\n      0x9a6bd379\n      eq\n      tag_11\n      jumpi\n      dup1\n      0xc39cbef1\n      eq\n      tag_12\n      jumpi\n      dup1\n      0xe8d57580\n      eq\n      tag_13\n      jumpi\n      dup1\n      0xeb8ac921\n      eq\n      tag_14\n      jumpi\n      dup1\n      0xf2fde38b\n      eq\n      tag_15\n      jumpi\n    tag_1:\n      0x0\n      dup1\n      revert\n        /* \"contracts/virus.sol\":122:144  Virus[] public viruses */\n    tag_2:\n      callvalue\n        /* \"--CODEGEN--\":8:17   */\n      dup1\n        /* \"--CODEGEN--\":5:7   */\n      iszero\n      tag_16\n      jumpi\n        /* \"--CODEGEN--\":30:31   */\n      0x0\n        /* \"--CODEGEN--\":27:28   */\n      dup1\n        /* \"--CODEGEN--\":20:32   */\n      revert\n        /* \"--CODEGEN--\":5:7   */\n    tag_16:\n        /* \"contracts/virus.sol\":122:144  Virus[] public viruses */\n      pop\n      tag_17\n      0x4\n      dup1\n      calldatasize\n      sub\n      dup2\n      add\n      swap1\n      dup1\n      dup1\n      calldataload\n      swap1\n      0x20\n      add\n      swap1\n      swap3\n      swap2\n      swap1\n      pop\n      pop\n      pop\n      jump(tag_18)\n    tag_17:\n      mload(0x40)\n      dup1\n      dup1\n      0x20\n      add\n      dup4\n      dup2\n      mstore\n      0x20\n      add\n      dup3\n      dup2\n      sub\n      dup3\n      mstore\n      dup5\n      dup2\n      dup2\n      mload\n      dup2\n      mstore\n      0x20\n      add\n      swap2\n      pop\n      dup1\n      mload\n      swap1\n      0x20\n      add\n      swap1\n      dup1\n      dup4\n      dup4\n        /* \"--CODEGEN--\":23:24   */\n      0x0\n        /* \"--CODEGEN--\":8:108   */\n    tag_19:\n        /* \"--CODEGEN--\":33:36   */\n      dup4\n        /* \"--CODEGEN--\":30:31   */\n      dup2\n        /* \"--CODEGEN--\":27:37   */\n      lt\n        /* \"--CODEGEN--\":8:108   */\n      iszero\n      tag_20\n      jumpi\n        /* \"--CODEGEN--\":99:100   */\n      dup1\n        /* \"--CODEGEN--\":94:97   */\n      dup3\n        /* \"--CODEGEN--\":90:101   */\n      add\n        /* \"--CODEGEN--\":84:102   */\n      mload\n        /* \"--CODEGEN--\":80:81   */\n      dup2\n        /* \"--CODEGEN--\":75:78   */\n      dup5\n        /* \"--CODEGEN--\":71:82   */\n      add\n        /* \"--CODEGEN--\":64:103   */\n      mstore\n        /* \"--CODEGEN--\":52:54   */\n      0x20\n        /* \"--CODEGEN--\":49:50   */\n      dup2\n        /* \"--CODEGEN--\":45:55   */\n      add\n        /* \"--CODEGEN--\":40:55   */\n      swap1\n      pop\n        /* \"--CODEGEN--\":8:108   */\n      jump(tag_19)\n    tag_20:\n        /* \"--CODEGEN--\":12:26   */\n      pop\n        /* \"contracts/virus.sol\":122:144  Virus[] public viruses */\n      pop\n      pop\n      pop\n      swap1\n      pop\n      swap1\n      dup2\n      add\n      swap1\n      0x1f\n      and\n      dup1\n      iszero\n      tag_22\n      jumpi\n      dup1\n      dup3\n      sub\n      dup1\n      mload\n      0x1\n      dup4\n      0x20\n      sub\n      0x100\n      exp\n      sub\n      not\n      and\n      dup2\n      mstore\n      0x20\n      add\n      swap2\n      pop\n    tag_22:\n      pop\n      swap4\n      pop\n      pop\n      pop\n      pop\n      mload(0x40)\n      dup1\n      swap2\n      sub\n      swap1\n      return\n        /* \"contracts/vaccineHelper.sol\":1097:1495  function getVaccinesByOwner(address _owner) external view returns(uint[]) {\r... */\n    tag_3:\n      callvalue\n        /* \"--CODEGEN--\":8:17   */\n      dup1\n        /* \"--CODEGEN--\":5:7   */\n      iszero\n      tag_23\n      jumpi\n        /* \"--CODEGEN--\":30:31   */\n      0x0\n        /* \"--CODEGEN--\":27:28   */\n      dup1\n        /* \"--CODEGEN--\":20:32   */\n      revert\n        /* \"--CODEGEN--\":5:7   */\n    tag_23:\n        /* \"contracts/vaccineHelper.sol\":1097:1495  function getVaccinesByOwner(address _owner) external view returns(uint[]) {\r... */\n      pop\n      tag_24\n      0x4\n      dup1\n      calldatasize\n      sub\n      dup2\n      add\n      swap1\n      dup1\n      dup1\n      calldataload\n      0xffffffffffffffffffffffffffffffffffffffff\n      and\n      swap1\n      0x20\n      add\n      swap1\n      swap3\n      swap2\n      swap1\n      pop\n      pop\n      pop\n      jump(tag_25)\n    tag_24:\n      mload(0x40)\n      dup1\n      dup1\n      0x20\n      add\n      dup3\n      dup2\n      sub\n      dup3\n      mstore\n      dup4\n      dup2\n      dup2\n      mload\n      dup2\n      mstore\n      0x20\n      add\n      swap2\n      pop\n      dup1\n      mload\n      swap1\n      0x20\n      add\n      swap1\n      0x20\n      mul\n      dup1\n      dup4\n      dup4\n        /* \"--CODEGEN--\":23:24   */\n      0x0\n        /* \"--CODEGEN--\":8:108   */\n    tag_26:\n        /* \"--CODEGEN--\":33:36   */\n      dup4\n        /* \"--CODEGEN--\":30:31   */\n      dup2\n        /* \"--CODEGEN--\":27:37   */\n      lt\n        /* \"--CODEGEN--\":8:108   */\n      iszero\n      tag_27\n      jumpi\n        /* \"--CODEGEN--\":99:100   */\n      dup1\n        /* \"--CODEGEN--\":94:97   */\n      dup3\n        /* \"--CODEGEN--\":90:101   */\n      add\n        /* \"--CODEGEN--\":84:102   */\n      mload\n        /* \"--CODEGEN--\":80:81   */\n      dup2\n        /* \"--CODEGEN--\":75:78   */\n      dup5\n        /* \"--CODEGEN--\":71:82   */\n      add\n        /* \"--CODEGEN--\":64:103   */\n      mstore\n        /* \"--CODEGEN--\":52:54   */\n      0x20\n        /* \"--CODEGEN--\":49:50   */\n      dup2\n        /* \"--CODEGEN--\":45:55   */\n      add\n        /* \"--CODEGEN--\":40:55   */\n      swap1\n      pop\n        /* \"--CODEGEN--\":8:108   */\n      jump(tag_26)\n    tag_27:\n        /* \"--CODEGEN--\":12:26   */\n      pop\n        /* \"contracts/vaccineHelper.sol\":1097:1495  function getVaccinesByOwner(address _owner) external view returns(uint[]) {\r... */\n      pop\n      pop\n      pop\n      swap1\n      pop\n      add\n      swap3\n      pop\n      pop\n      pop\n      mload(0x40)\n      dup1\n      swap2\n      sub\n      swap1\n      return\n        /* \"contracts/vaccineFactory.sol\":433:458  Vaccine[] public vaccines */\n    tag_4:\n      callvalue\n        /* \"--CODEGEN--\":8:17   */\n      dup1\n        /* \"--CODEGEN--\":5:7   */\n      iszero\n      tag_29\n      jumpi\n        /* \"--CODEGEN--\":30:31   */\n      0x0\n        /* \"--CODEGEN--\":27:28   */\n      dup1\n        /* \"--CODEGEN--\":20:32   */\n      revert\n        /* \"--CODEGEN--\":5:7   */\n    tag_29:\n        /* \"contracts/vaccineFactory.sol\":433:458  Vaccine[] public vaccines */\n      pop\n      tag_30\n      0x4\n      dup1\n      calldatasize\n      sub\n      dup2\n      add\n      swap1\n      dup1\n      dup1\n      calldataload\n      swap1\n      0x20\n      add\n      swap1\n      swap3\n      swap2\n      swap1\n      pop\n      pop\n      pop\n      jump(tag_31)\n    tag_30:\n      mload(0x40)\n      dup1\n      dup1\n      0x20\n      add\n      dup6\n      dup2\n      mstore\n      0x20\n      add\n      dup5\n      dup2\n      mstore\n      0x20\n      add\n      dup4\n      dup2\n      mstore\n      0x20\n      add\n      dup3\n      dup2\n      sub\n      dup3\n      mstore\n      dup7\n      dup2\n      dup2\n      mload\n      dup2\n      mstore\n      0x20\n      add\n      swap2\n      pop\n      dup1\n      mload\n      swap1\n      0x20\n      add\n      swap1\n      dup1\n      dup4\n      dup4\n        /* \"--CODEGEN--\":23:24   */\n      0x0\n        /* \"--CODEGEN--\":8:108   */\n    tag_32:\n        /* \"--CODEGEN--\":33:36   */\n      dup4\n        /* \"--CODEGEN--\":30:31   */\n      dup2\n        /* \"--CODEGEN--\":27:37   */\n      lt\n        /* \"--CODEGEN--\":8:108   */\n      iszero\n      tag_33\n      jumpi\n        /* \"--CODEGEN--\":99:100   */\n      dup1\n        /* \"--CODEGEN--\":94:97   */\n      dup3\n        /* \"--CODEGEN--\":90:101   */\n      add\n        /* \"--CODEGEN--\":84:102   */\n      mload\n        /* \"--CODEGEN--\":80:81   */\n      dup2\n        /* \"--CODEGEN--\":75:78   */\n      dup5\n        /* \"--CODEGEN--\":71:82   */\n      add\n        /* \"--CODEGEN--\":64:103   */\n      mstore\n        /* \"--CODEGEN--\":52:54   */\n      0x20\n        /* \"--CODEGEN--\":49:50   */\n      dup2\n        /* \"--CODEGEN--\":45:55   */\n      add\n        /* \"--CODEGEN--\":40:55   */\n      swap1\n      pop\n        /* \"--CODEGEN--\":8:108   */\n      jump(tag_32)\n    tag_33:\n        /* \"--CODEGEN--\":12:26   */\n      pop\n        /* \"contracts/vaccineFactory.sol\":433:458  Vaccine[] public vaccines */\n      pop\n      pop\n      pop\n      swap1\n      pop\n      swap1\n      dup2\n      add\n      swap1\n      0x1f\n      and\n      dup1\n      iszero\n      tag_35\n      jumpi\n      dup1\n      dup3\n      sub\n      dup1\n      mload\n      0x1\n      dup4\n      0x20\n      sub\n      0x100\n      exp\n      sub\n      not\n      and\n      dup2\n      mstore\n      0x20\n      add\n      swap2\n      pop\n    tag_35:\n      pop\n      swap6\n      pop\n      pop\n      pop\n      pop\n      pop\n      pop\n      mload(0x40)\n      dup1\n      swap2\n      sub\n      swap1\n      return\n        /* \"contracts/vaccineHelper.sol\":410:496  function withdraw() external onlyOwner {\r... */\n    tag_5:\n      callvalue\n        /* \"--CODEGEN--\":8:17   */\n      dup1\n        /* \"--CODEGEN--\":5:7   */\n      iszero\n      tag_36\n      jumpi\n        /* \"--CODEGEN--\":30:31   */\n      0x0\n        /* \"--CODEGEN--\":27:28   */\n      dup1\n        /* \"--CODEGEN--\":20:32   */\n      revert\n        /* \"--CODEGEN--\":5:7   */\n    tag_36:\n        /* \"contracts/vaccineHelper.sol\":410:496  function withdraw() external onlyOwner {\r... */\n      pop\n      tag_37\n      jump(tag_38)\n    tag_37:\n      stop\n        /* \"contracts/vaccineFactory.sol\":1255:1367  function kill() public {\r... */\n    tag_6:\n      callvalue\n        /* \"--CODEGEN--\":8:17   */\n      dup1\n        /* \"--CODEGEN--\":5:7   */\n      iszero\n      tag_39\n      jumpi\n        /* \"--CODEGEN--\":30:31   */\n      0x0\n        /* \"--CODEGEN--\":27:28   */\n      dup1\n        /* \"--CODEGEN--\":20:32   */\n      revert\n        /* \"--CODEGEN--\":5:7   */\n    tag_39:\n        /* \"contracts/vaccineFactory.sol\":1255:1367  function kill() public {\r... */\n      pop\n      tag_40\n      jump(tag_41)\n    tag_40:\n      stop\n        /* \"contracts/vaccineFactory.sol\":467:514  mapping (uint => address) public vaccineToOwner */\n    tag_7:\n      callvalue\n        /* \"--CODEGEN--\":8:17   */\n      dup1\n        /* \"--CODEGEN--\":5:7   */\n      iszero\n      tag_42\n      jumpi\n        /* \"--CODEGEN--\":30:31   */\n      0x0\n        /* \"--CODEGEN--\":27:28   */\n      dup1\n        /* \"--CODEGEN--\":20:32   */\n      revert\n        /* \"--CODEGEN--\":5:7   */\n    tag_42:\n        /* \"contracts/vaccineFactory.sol\":467:514  mapping (uint => address) public vaccineToOwner */\n      pop\n      tag_43\n      0x4\n      dup1\n      calldatasize\n      sub\n      dup2\n      add\n      swap1\n      dup1\n      dup1\n      calldataload\n      swap1\n      0x20\n      add\n      swap1\n      swap3\n      swap2\n      swap1\n      pop\n      pop\n      pop\n      jump(tag_44)\n    tag_43:\n      mload(0x40)\n      dup1\n      dup3\n      0xffffffffffffffffffffffffffffffffffffffff\n      and\n      0xffffffffffffffffffffffffffffffffffffffff\n      and\n      dup2\n      mstore\n      0x20\n      add\n      swap2\n      pop\n      pop\n      mload(0x40)\n      dup1\n      swap2\n      sub\n      swap1\n      return\n        /* \"contracts/ownable.sol\":52:72  address public owner */\n    tag_8:\n      callvalue\n        /* \"--CODEGEN--\":8:17   */\n      dup1\n        /* \"--CODEGEN--\":5:7   */\n      iszero\n      tag_45\n      jumpi\n        /* \"--CODEGEN--\":30:31   */\n      0x0\n        /* \"--CODEGEN--\":27:28   */\n      dup1\n        /* \"--CODEGEN--\":20:32   */\n      revert\n        /* \"--CODEGEN--\":5:7   */\n    tag_45:\n        /* \"contracts/ownable.sol\":52:72  address public owner */\n      pop\n      tag_46\n      jump(tag_47)\n    tag_46:\n      mload(0x40)\n      dup1\n      dup3\n      0xffffffffffffffffffffffffffffffffffffffff\n      and\n      0xffffffffffffffffffffffffffffffffffffffff\n      and\n      dup2\n      mstore\n      0x20\n      add\n      swap2\n      pop\n      pop\n      mload(0x40)\n      dup1\n      swap2\n      sub\n      swap1\n      return\n        /* \"contracts/vaccineHelper.sol\":504:593  function setPowerUpFee(uint _fee) external onlyOwner {\r... */\n    tag_9:\n      callvalue\n        /* \"--CODEGEN--\":8:17   */\n      dup1\n        /* \"--CODEGEN--\":5:7   */\n      iszero\n      tag_48\n      jumpi\n        /* \"--CODEGEN--\":30:31   */\n      0x0\n        /* \"--CODEGEN--\":27:28   */\n      dup1\n        /* \"--CODEGEN--\":20:32   */\n      revert\n        /* \"--CODEGEN--\":5:7   */\n    tag_48:\n        /* \"contracts/vaccineHelper.sol\":504:593  function setPowerUpFee(uint _fee) external onlyOwner {\r... */\n      pop\n      tag_49\n      0x4\n      dup1\n      calldatasize\n      sub\n      dup2\n      add\n      swap1\n      dup1\n      dup1\n      calldataload\n      swap1\n      0x20\n      add\n      swap1\n      swap3\n      swap2\n      swap1\n      pop\n      pop\n      pop\n      jump(tag_50)\n    tag_49:\n      stop\n        /* \"contracts/vaccineHelper.sol\":926:1089  function changeRna(uint _vaccineID, uint _newRna) external aboveCures(20, _vaccineID) onlyOwnerOf(_vaccineID) {\r... */\n    tag_10:\n      callvalue\n        /* \"--CODEGEN--\":8:17   */\n      dup1\n        /* \"--CODEGEN--\":5:7   */\n      iszero\n      tag_51\n      jumpi\n        /* \"--CODEGEN--\":30:31   */\n      0x0\n        /* \"--CODEGEN--\":27:28   */\n      dup1\n        /* \"--CODEGEN--\":20:32   */\n      revert\n        /* \"--CODEGEN--\":5:7   */\n    tag_51:\n        /* \"contracts/vaccineHelper.sol\":926:1089  function changeRna(uint _vaccineID, uint _newRna) external aboveCures(20, _vaccineID) onlyOwnerOf(_vaccineID) {\r... */\n      pop\n      tag_52\n      0x4\n      dup1\n      calldatasize\n      sub\n      dup2\n      add\n      swap1\n      dup1\n      dup1\n      calldataload\n      swap1\n      0x20\n      add\n      swap1\n      swap3\n      swap2\n      swap1\n      dup1\n      calldataload\n      swap1\n      0x20\n      add\n      swap1\n      swap3\n      swap2\n      swap1\n      pop\n      pop\n      pop\n      jump(tag_53)\n    tag_52:\n      stop\n        /* \"contracts/vaccineHelper.sol\":601:742  function powerUp(uint _vaccineID) external payable {\r... */\n    tag_11:\n      tag_54\n      0x4\n      dup1\n      calldatasize\n      sub\n      dup2\n      add\n      swap1\n      dup1\n      dup1\n      calldataload\n      swap1\n      0x20\n      add\n      swap1\n      swap3\n      swap2\n      swap1\n      pop\n      pop\n      pop\n      jump(tag_55)\n    tag_54:\n      stop\n        /* \"contracts/vaccineHelper.sol\":750:918  function changeName(uint _vaccineID, string _newName) external aboveCures(2, _vaccineID) onlyOwnerOf(_vaccineID) {\r... */\n    tag_12:\n      callvalue\n        /* \"--CODEGEN--\":8:17   */\n      dup1\n        /* \"--CODEGEN--\":5:7   */\n      iszero\n      tag_56\n      jumpi\n        /* \"--CODEGEN--\":30:31   */\n      0x0\n        /* \"--CODEGEN--\":27:28   */\n      dup1\n        /* \"--CODEGEN--\":20:32   */\n      revert\n        /* \"--CODEGEN--\":5:7   */\n    tag_56:\n        /* \"contracts/vaccineHelper.sol\":750:918  function changeName(uint _vaccineID, string _newName) external aboveCures(2, _vaccineID) onlyOwnerOf(_vaccineID) {\r... */\n      pop\n      tag_57\n      0x4\n      dup1\n      calldatasize\n      sub\n      dup2\n      add\n      swap1\n      dup1\n      dup1\n      calldataload\n      swap1\n      0x20\n      add\n      swap1\n      swap3\n      swap2\n      swap1\n      dup1\n      calldataload\n      swap1\n      0x20\n      add\n      swap1\n      dup3\n      add\n      dup1\n      calldataload\n      swap1\n      0x20\n      add\n      swap2\n      swap1\n      swap2\n      swap3\n      swap4\n      swap2\n      swap3\n      swap4\n      swap1\n      pop\n      pop\n      pop\n      jump(tag_58)\n    tag_57:\n      stop\n        /* \"contracts/vaccineFactory.sol\":999:1247  function createRandomVaccine(string _name) public {\r... */\n    tag_13:\n      callvalue\n        /* \"--CODEGEN--\":8:17   */\n      dup1\n        /* \"--CODEGEN--\":5:7   */\n      iszero\n      tag_59\n      jumpi\n        /* \"--CODEGEN--\":30:31   */\n      0x0\n        /* \"--CODEGEN--\":27:28   */\n      dup1\n        /* \"--CODEGEN--\":20:32   */\n      revert\n        /* \"--CODEGEN--\":5:7   */\n    tag_59:\n        /* \"contracts/vaccineFactory.sol\":999:1247  function createRandomVaccine(string _name) public {\r... */\n      pop\n      tag_60\n      0x4\n      dup1\n      calldatasize\n      sub\n      dup2\n      add\n      swap1\n      dup1\n      dup1\n      calldataload\n      swap1\n      0x20\n      add\n      swap1\n      dup3\n      add\n      dup1\n      calldataload\n      swap1\n      0x20\n      add\n      swap1\n      dup1\n      dup1\n      0x1f\n      add\n      0x20\n      dup1\n      swap2\n      div\n      mul\n      0x20\n      add\n      mload(0x40)\n      swap1\n      dup2\n      add\n      0x40\n      mstore\n      dup1\n      swap4\n      swap3\n      swap2\n      swap1\n      dup2\n      dup2\n      mstore\n      0x20\n      add\n      dup4\n      dup4\n      dup1\n      dup3\n      dup5\n      calldatacopy\n      dup3\n      add\n      swap2\n      pop\n      pop\n      pop\n      pop\n      pop\n      pop\n      swap2\n      swap3\n      swap2\n      swap3\n      swap1\n      pop\n      pop\n      pop\n      jump(tag_61)\n    tag_60:\n      stop\n        /* \"contracts/vaccineTest.sol\":363:676  function test(uint _vaccineID, uint _virusID) external onlyOwnerOf(_vaccineID) {\r... */\n    tag_14:\n      callvalue\n        /* \"--CODEGEN--\":8:17   */\n      dup1\n        /* \"--CODEGEN--\":5:7   */\n      iszero\n      tag_62\n      jumpi\n        /* \"--CODEGEN--\":30:31   */\n      0x0\n        /* \"--CODEGEN--\":27:28   */\n      dup1\n        /* \"--CODEGEN--\":20:32   */\n      revert\n        /* \"--CODEGEN--\":5:7   */\n    tag_62:\n        /* \"contracts/vaccineTest.sol\":363:676  function test(uint _vaccineID, uint _virusID) external onlyOwnerOf(_vaccineID) {\r... */\n      pop\n      tag_63\n      0x4\n      dup1\n      calldatasize\n      sub\n      dup2\n      add\n      swap1\n      dup1\n      dup1\n      calldataload\n      swap1\n      0x20\n      add\n      swap1\n      swap3\n      swap2\n      swap1\n      dup1\n      calldataload\n      swap1\n      0x20\n      add\n      swap1\n      swap3\n      swap2\n      swap1\n      pop\n      pop\n      pop\n      jump(tag_64)\n    tag_63:\n      stop\n        /* \"contracts/ownable.sol\":334:521  function transferOwnership(address newOwner) public onlyOwner {\r... */\n    tag_15:\n      callvalue\n        /* \"--CODEGEN--\":8:17   */\n      dup1\n        /* \"--CODEGEN--\":5:7   */\n      iszero\n      tag_65\n      jumpi\n        /* \"--CODEGEN--\":30:31   */\n      0x0\n        /* \"--CODEGEN--\":27:28   */\n      dup1\n        /* \"--CODEGEN--\":20:32   */\n      revert\n        /* \"--CODEGEN--\":5:7   */\n    tag_65:\n        /* \"contracts/ownable.sol\":334:521  function transferOwnership(address newOwner) public onlyOwner {\r... */\n      pop\n      tag_66\n      0x4\n      dup1\n      calldatasize\n      sub\n      dup2\n      add\n      swap1\n      dup1\n      dup1\n      calldataload\n      0xffffffffffffffffffffffffffffffffffffffff\n      and\n      swap1\n      0x20\n      add\n      swap1\n      swap3\n      swap2\n      swap1\n      pop\n      pop\n      pop\n      jump(tag_67)\n    tag_66:\n      stop\n        /* \"contracts/virus.sol\":122:144  Virus[] public viruses */\n    tag_18:\n      0x8\n      dup2\n      dup2\n      sload\n      dup2\n      lt\n      iszero\n      iszero\n      tag_68\n      jumpi\n      invalid\n    tag_68:\n      swap1\n      0x0\n      mstore\n      keccak256(0x0, 0x20)\n      swap1\n      0x2\n      mul\n      add\n      0x0\n      swap2\n      pop\n      swap1\n      pop\n      dup1\n      0x0\n      add\n      dup1\n      sload\n      0x1\n      dup2\n      0x1\n      and\n      iszero\n      0x100\n      mul\n      sub\n      and\n      0x2\n      swap1\n      div\n      dup1\n      0x1f\n      add\n      0x20\n      dup1\n      swap2\n      div\n      mul\n      0x20\n      add\n      mload(0x40)\n      swap1\n      dup2\n      add\n      0x40\n      mstore\n      dup1\n      swap3\n      swap2\n      swap1\n      dup2\n      dup2\n      mstore\n      0x20\n      add\n      dup3\n      dup1\n      sload\n      0x1\n      dup2\n      0x1\n      and\n      iszero\n      0x100\n      mul\n      sub\n      and\n      0x2\n      swap1\n      div\n      dup1\n      iszero\n      tag_70\n      jumpi\n      dup1\n      0x1f\n      lt\n      tag_71\n      jumpi\n      0x100\n      dup1\n      dup4\n      sload\n      div\n      mul\n      dup4\n      mstore\n      swap2\n      0x20\n      add\n      swap2\n      jump(tag_70)\n    tag_71:\n      dup3\n      add\n      swap2\n      swap1\n      0x0\n      mstore\n      keccak256(0x0, 0x20)\n      swap1\n    tag_72:\n      dup2\n      sload\n      dup2\n      mstore\n      swap1\n      0x1\n      add\n      swap1\n      0x20\n      add\n      dup1\n      dup4\n      gt\n      tag_72\n      jumpi\n      dup3\n      swap1\n      sub\n      0x1f\n      and\n      dup3\n      add\n      swap2\n    tag_70:\n      pop\n      pop\n      pop\n      pop\n      pop\n      swap1\n      dup1\n      0x1\n      add\n      sload\n      swap1\n      pop\n      dup3\n      jump\t// out\n        /* \"contracts/vaccineHelper.sol\":1097:1495  function getVaccinesByOwner(address _owner) external view returns(uint[]) {\r... */\n    tag_25:\n        /* \"contracts/vaccineHelper.sol\":1163:1169  uint[] */\n      0x60\n        /* \"contracts/vaccineHelper.sol\":1182:1202  uint[] memory result */\n      dup1\n        /* \"contracts/vaccineHelper.sol\":1253:1265  uint counter */\n      0x0\n        /* \"contracts/vaccineHelper.sol\":1285:1291  uint i */\n      dup1\n        /* \"contracts/vaccineHelper.sol\":1216:1233  ownerVaccineCount */\n      0x6\n        /* \"contracts/vaccineHelper.sol\":1216:1241  ownerVaccineCount[_owner] */\n      0x0\n        /* \"contracts/vaccineHelper.sol\":1234:1240  _owner */\n      dup7\n        /* \"contracts/vaccineHelper.sol\":1216:1241  ownerVaccineCount[_owner] */\n      0xffffffffffffffffffffffffffffffffffffffff\n      and\n      0xffffffffffffffffffffffffffffffffffffffff\n      and\n      dup2\n      mstore\n      0x20\n      add\n      swap1\n      dup2\n      mstore\n      0x20\n      add\n      0x0\n      keccak256\n      sload\n        /* \"contracts/vaccineHelper.sol\":1205:1242  new uint[](ownerVaccineCount[_owner]) */\n      mload(0x40)\n      swap1\n      dup1\n      dup3\n      mstore\n      dup1\n      0x20\n      mul\n      0x20\n      add\n      dup3\n      add\n      0x40\n      mstore\n      dup1\n      iszero\n      tag_74\n      jumpi\n      dup2\n      0x20\n      add\n        /* \"--CODEGEN--\":29:31   */\n      0x20\n        /* \"--CODEGEN--\":21:27   */\n      dup3\n        /* \"--CODEGEN--\":17:32   */\n      mul\n        /* \"--CODEGEN--\":117:121   */\n      dup1\n        /* \"--CODEGEN--\":105:115   */\n      codesize\n        /* \"--CODEGEN--\":97:103   */\n      dup4\n        /* \"--CODEGEN--\":88:122   */\n      codecopy\n        /* \"--CODEGEN--\":148:152   */\n      dup1\n        /* \"--CODEGEN--\":140:146   */\n      dup3\n        /* \"--CODEGEN--\":136:153   */\n      add\n        /* \"--CODEGEN--\":126:153   */\n      swap2\n      pop\n        /* \"--CODEGEN--\":0:157   */\n      pop\n        /* \"contracts/vaccineHelper.sol\":1205:1242  new uint[](ownerVaccineCount[_owner]) */\n      swap1\n      pop\n    tag_74:\n      pop\n        /* \"contracts/vaccineHelper.sol\":1182:1242  uint[] memory result = new uint[](ownerVaccineCount[_owner]) */\n      swap3\n      pop\n        /* \"contracts/vaccineHelper.sol\":1268:1269  0 */\n      0x0\n        /* \"contracts/vaccineHelper.sol\":1253:1269  uint counter = 0 */\n      swap2\n      pop\n        /* \"contracts/vaccineHelper.sol\":1294:1295  0 */\n      0x0\n        /* \"contracts/vaccineHelper.sol\":1285:1295  uint i = 0 */\n      swap1\n      pop\n        /* \"contracts/vaccineHelper.sol\":1280:1464  for (uint i = 0; i < vaccines.length; i++) {\r... */\n    tag_75:\n        /* \"contracts/vaccineHelper.sol\":1301:1309  vaccines */\n      0x4\n        /* \"contracts/vaccineHelper.sol\":1301:1316  vaccines.length */\n      dup1\n      sload\n      swap1\n      pop\n        /* \"contracts/vaccineHelper.sol\":1297:1298  i */\n      dup2\n        /* \"contracts/vaccineHelper.sol\":1297:1316  i < vaccines.length */\n      lt\n        /* \"contracts/vaccineHelper.sol\":1280:1464  for (uint i = 0; i < vaccines.length; i++) {\r... */\n      iszero\n      tag_76\n      jumpi\n        /* \"contracts/vaccineHelper.sol\":1363:1369  _owner */\n      dup5\n        /* \"contracts/vaccineHelper.sol\":1342:1369  vaccineToOwner[i] == _owner */\n      0xffffffffffffffffffffffffffffffffffffffff\n      and\n        /* \"contracts/vaccineHelper.sol\":1342:1356  vaccineToOwner */\n      0x5\n        /* \"contracts/vaccineHelper.sol\":1342:1359  vaccineToOwner[i] */\n      0x0\n        /* \"contracts/vaccineHelper.sol\":1357:1358  i */\n      dup4\n        /* \"contracts/vaccineHelper.sol\":1342:1359  vaccineToOwner[i] */\n      dup2\n      mstore\n      0x20\n      add\n      swap1\n      dup2\n      mstore\n      0x20\n      add\n      0x0\n      keccak256\n      0x0\n      swap1\n      sload\n      swap1\n      0x100\n      exp\n      swap1\n      div\n      0xffffffffffffffffffffffffffffffffffffffff\n      and\n        /* \"contracts/vaccineHelper.sol\":1342:1369  vaccineToOwner[i] == _owner */\n      0xffffffffffffffffffffffffffffffffffffffff\n      and\n      eq\n        /* \"contracts/vaccineHelper.sol\":1338:1453  if (vaccineToOwner[i] == _owner) {\r... */\n      iszero\n      tag_78\n      jumpi\n        /* \"contracts/vaccineHelper.sol\":1408:1409  i */\n      dup1\n        /* \"contracts/vaccineHelper.sol\":1390:1396  result */\n      dup4\n        /* \"contracts/vaccineHelper.sol\":1397:1404  counter */\n      dup4\n        /* \"contracts/vaccineHelper.sol\":1390:1405  result[counter] */\n      dup2\n      mload\n      dup2\n      lt\n      iszero\n      iszero\n      tag_79\n      jumpi\n      invalid\n    tag_79:\n      swap1\n      0x20\n      add\n      swap1\n      0x20\n      mul\n      add\n        /* \"contracts/vaccineHelper.sol\":1390:1409  result[counter] = i */\n      dup2\n      dup2\n      mstore\n      pop\n      pop\n        /* \"contracts/vaccineHelper.sol\":1428:1437  counter++ */\n      dup2\n      dup1\n      0x1\n      add\n      swap3\n      pop\n      pop\n        /* \"contracts/vaccineHelper.sol\":1338:1453  if (vaccineToOwner[i] == _owner) {\r... */\n    tag_78:\n        /* \"contracts/vaccineHelper.sol\":1318:1321  i++ */\n      dup1\n      dup1\n      0x1\n      add\n      swap2\n      pop\n      pop\n        /* \"contracts/vaccineHelper.sol\":1280:1464  for (uint i = 0; i < vaccines.length; i++) {\r... */\n      jump(tag_75)\n    tag_76:\n        /* \"contracts/vaccineHelper.sol\":1481:1487  result */\n      dup3\n        /* \"contracts/vaccineHelper.sol\":1474:1487  return result */\n      swap4\n      pop\n        /* \"contracts/vaccineHelper.sol\":1097:1495  function getVaccinesByOwner(address _owner) external view returns(uint[]) {\r... */\n      pop\n      pop\n      pop\n      swap2\n      swap1\n      pop\n      jump\t// out\n        /* \"contracts/vaccineFactory.sol\":433:458  Vaccine[] public vaccines */\n    tag_31:\n      0x4\n      dup2\n      dup2\n      sload\n      dup2\n      lt\n      iszero\n      iszero\n      tag_80\n      jumpi\n      invalid\n    tag_80:\n      swap1\n      0x0\n      mstore\n      keccak256(0x0, 0x20)\n      swap1\n      0x4\n      mul\n      add\n      0x0\n      swap2\n      pop\n      swap1\n      pop\n      dup1\n      0x0\n      add\n      dup1\n      sload\n      0x1\n      dup2\n      0x1\n      and\n      iszero\n      0x100\n      mul\n      sub\n      and\n      0x2\n      swap1\n      div\n      dup1\n      0x1f\n      add\n      0x20\n      dup1\n      swap2\n      div\n      mul\n      0x20\n      add\n      mload(0x40)\n      swap1\n      dup2\n      add\n      0x40\n      mstore\n      dup1\n      swap3\n      swap2\n      swap1\n      dup2\n      dup2\n      mstore\n      0x20\n      add\n      dup3\n      dup1\n      sload\n      0x1\n      dup2\n      0x1\n      and\n      iszero\n      0x100\n      mul\n      sub\n      and\n      0x2\n      swap1\n      div\n      dup1\n      iszero\n      tag_82\n      jumpi\n      dup1\n      0x1f\n      lt\n      tag_83\n      jumpi\n      0x100\n      dup1\n      dup4\n      sload\n      div\n      mul\n      dup4\n      mstore\n      swap2\n      0x20\n      add\n      swap2\n      jump(tag_82)\n    tag_83:\n      dup3\n      add\n      swap2\n      swap1\n      0x0\n      mstore\n      keccak256(0x0, 0x20)\n      swap1\n    tag_84:\n      dup2\n      sload\n      dup2\n      mstore\n      swap1\n      0x1\n      add\n      swap1\n      0x20\n      add\n      dup1\n      dup4\n      gt\n      tag_84\n      jumpi\n      dup3\n      swap1\n      sub\n      0x1f\n      and\n      dup3\n      add\n      swap2\n    tag_82:\n      pop\n      pop\n      pop\n      pop\n      pop\n      swap1\n      dup1\n      0x1\n      add\n      sload\n      swap1\n      dup1\n      0x2\n      add\n      sload\n      swap1\n      dup1\n      0x3\n      add\n      sload\n      swap1\n      pop\n      dup5\n      jump\t// out\n        /* \"contracts/vaccineHelper.sol\":410:496  function withdraw() external onlyOwner {\r... */\n    tag_38:\n        /* \"contracts/ownable.sol\":300:305  owner */\n      0x0\n      dup1\n      swap1\n      sload\n      swap1\n      0x100\n      exp\n      swap1\n      div\n      0xffffffffffffffffffffffffffffffffffffffff\n      and\n        /* \"contracts/ownable.sol\":286:305  msg.sender == owner */\n      0xffffffffffffffffffffffffffffffffffffffff\n      and\n        /* \"contracts/ownable.sol\":286:296  msg.sender */\n      caller\n        /* \"contracts/ownable.sol\":286:305  msg.sender == owner */\n      0xffffffffffffffffffffffffffffffffffffffff\n      and\n      eq\n        /* \"contracts/ownable.sol\":278:306  require(msg.sender == owner) */\n      iszero\n      iszero\n      tag_86\n      jumpi\n      0x0\n      dup1\n      revert\n    tag_86:\n        /* \"contracts/vaccineHelper.sol\":460:465  owner */\n      0x3\n      0x0\n      swap1\n      sload\n      swap1\n      0x100\n      exp\n      swap1\n      div\n      0xffffffffffffffffffffffffffffffffffffffff\n      and\n        /* \"contracts/vaccineHelper.sol\":460:474  owner.transfer */\n      0xffffffffffffffffffffffffffffffffffffffff\n      and\n        /* \"contracts/vaccineHelper.sol\":460:488  owner.transfer(this.balance) */\n      0x8fc\n        /* \"contracts/vaccineHelper.sol\":475:479  this */\n      address\n        /* \"contracts/vaccineHelper.sol\":475:487  this.balance */\n      0xffffffffffffffffffffffffffffffffffffffff\n      and\n      balance\n        /* \"contracts/vaccineHelper.sol\":460:488  owner.transfer(this.balance) */\n      swap1\n      dup2\n      iszero\n      mul\n      swap1\n      mload(0x40)\n      0x0\n      mload(0x40)\n      dup1\n      dup4\n      sub\n      dup2\n      dup6\n      dup9\n      dup9\n      call\n      swap4\n      pop\n      pop\n      pop\n      pop\n      iszero\n        /* \"--CODEGEN--\":8:17   */\n      dup1\n        /* \"--CODEGEN--\":5:7   */\n      iszero\n      tag_88\n      jumpi\n        /* \"--CODEGEN--\":45:61   */\n      returndatasize\n        /* \"--CODEGEN--\":42:43   */\n      0x0\n        /* \"--CODEGEN--\":39:40   */\n      dup1\n        /* \"--CODEGEN--\":24:62   */\n      returndatacopy\n        /* \"--CODEGEN--\":77:93   */\n      returndatasize\n        /* \"--CODEGEN--\":74:75   */\n      0x0\n        /* \"--CODEGEN--\":67:94   */\n      revert\n        /* \"--CODEGEN--\":5:7   */\n    tag_88:\n        /* \"contracts/vaccineHelper.sol\":460:488  owner.transfer(this.balance) */\n      pop\n        /* \"contracts/vaccineHelper.sol\":410:496  function withdraw() external onlyOwner {\r... */\n      jump\t// out\n        /* \"contracts/vaccineFactory.sol\":1255:1367  function kill() public {\r... */\n    tag_41:\n        /* \"contracts/vaccineFactory.sol\":1302:1312  msg.sender */\n      caller\n        /* \"contracts/vaccineFactory.sol\":1293:1312  owner == msg.sender */\n      0xffffffffffffffffffffffffffffffffffffffff\n      and\n        /* \"contracts/vaccineFactory.sol\":1293:1298  owner */\n      0x3\n      0x0\n      swap1\n      sload\n      swap1\n      0x100\n      exp\n      swap1\n      div\n      0xffffffffffffffffffffffffffffffffffffffff\n      and\n        /* \"contracts/vaccineFactory.sol\":1293:1312  owner == msg.sender */\n      0xffffffffffffffffffffffffffffffffffffffff\n      and\n      eq\n        /* \"contracts/vaccineFactory.sol\":1289:1360  if (owner == msg.sender) {\r... */\n      iszero\n      tag_90\n      jumpi\n        /* \"contracts/vaccineFactory.sol\":1342:1347  owner */\n      0x3\n      0x0\n      swap1\n      sload\n      swap1\n      0x100\n      exp\n      swap1\n      div\n      0xffffffffffffffffffffffffffffffffffffffff\n      and\n        /* \"contracts/vaccineFactory.sol\":1329:1348  selfdestruct(owner) */\n      0xffffffffffffffffffffffffffffffffffffffff\n      and\n      selfdestruct\n        /* \"contracts/vaccineFactory.sol\":1289:1360  if (owner == msg.sender) {\r... */\n    tag_90:\n        /* \"contracts/vaccineFactory.sol\":1255:1367  function kill() public {\r... */\n      jump\t// out\n        /* \"contracts/vaccineFactory.sol\":467:514  mapping (uint => address) public vaccineToOwner */\n    tag_44:\n      mstore(0x20, 0x5)\n      dup1\n      0x0\n      mstore\n      keccak256(0x0, 0x40)\n      0x0\n      swap2\n      pop\n      sload\n      swap1\n      0x100\n      exp\n      swap1\n      div\n      0xffffffffffffffffffffffffffffffffffffffff\n      and\n      dup2\n      jump\t// out\n        /* \"contracts/ownable.sol\":52:72  address public owner */\n    tag_47:\n      0x0\n      dup1\n      swap1\n      sload\n      swap1\n      0x100\n      exp\n      swap1\n      div\n      0xffffffffffffffffffffffffffffffffffffffff\n      and\n      dup2\n      jump\t// out\n        /* \"contracts/vaccineHelper.sol\":504:593  function setPowerUpFee(uint _fee) external onlyOwner {\r... */\n    tag_50:\n        /* \"contracts/ownable.sol\":300:305  owner */\n      0x0\n      dup1\n      swap1\n      sload\n      swap1\n      0x100\n      exp\n      swap1\n      div\n      0xffffffffffffffffffffffffffffffffffffffff\n      and\n        /* \"contracts/ownable.sol\":286:305  msg.sender == owner */\n      0xffffffffffffffffffffffffffffffffffffffff\n      and\n        /* \"contracts/ownable.sol\":286:296  msg.sender */\n      caller\n        /* \"contracts/ownable.sol\":286:305  msg.sender == owner */\n      0xffffffffffffffffffffffffffffffffffffffff\n      and\n      eq\n        /* \"contracts/ownable.sol\":278:306  require(msg.sender == owner) */\n      iszero\n      iszero\n      tag_92\n      jumpi\n      0x0\n      dup1\n      revert\n    tag_92:\n        /* \"contracts/vaccineHelper.sol\":581:585  _fee */\n      dup1\n        /* \"contracts/vaccineHelper.sol\":568:578  powerUpFee */\n      0x7\n        /* \"contracts/vaccineHelper.sol\":568:585  powerUpFee = _fee */\n      dup2\n      swap1\n      sstore\n      pop\n        /* \"contracts/vaccineHelper.sol\":504:593  function setPowerUpFee(uint _fee) external onlyOwner {\r... */\n      pop\n      jump\t// out\n        /* \"contracts/vaccineHelper.sol\":926:1089  function changeRna(uint _vaccineID, uint _newRna) external aboveCures(20, _vaccineID) onlyOwnerOf(_vaccineID) {\r... */\n    tag_53:\n        /* \"contracts/vaccineHelper.sol\":996:998  20 */\n      0x14\n        /* \"contracts/vaccineHelper.sol\":1000:1010  _vaccineID */\n      dup3\n        /* \"contracts/vaccineHelper.sol\":337:343  _cures */\n      dup2\n        /* \"contracts/vaccineHelper.sol\":307:315  vaccines */\n      0x4\n        /* \"contracts/vaccineHelper.sol\":316:326  _vaccineID */\n      dup3\n        /* \"contracts/vaccineHelper.sol\":307:327  vaccines[_vaccineID] */\n      dup2\n      sload\n      dup2\n      lt\n      iszero\n      iszero\n      tag_95\n      jumpi\n      invalid\n    tag_95:\n      swap1\n      0x0\n      mstore\n      keccak256(0x0, 0x20)\n      swap1\n      0x4\n      mul\n      add\n        /* \"contracts/vaccineHelper.sol\":307:333  vaccines[_vaccineID].cures */\n      0x3\n      add\n      sload\n        /* \"contracts/vaccineHelper.sol\":307:343  vaccines[_vaccineID].cures >= _cures */\n      lt\n      iszero\n        /* \"contracts/vaccineHelper.sol\":299:344  require(vaccines[_vaccineID].cures >= _cures) */\n      iszero\n      iszero\n      tag_97\n      jumpi\n      0x0\n      dup1\n      revert\n    tag_97:\n        /* \"contracts/vaccineHelper.sol\":1024:1034  _vaccineID */\n      dup4\n        /* \"contracts/vaccineHelper.sol\":183:197  vaccineToOwner */\n      0x5\n        /* \"contracts/vaccineHelper.sol\":183:209  vaccineToOwner[_vaccineID] */\n      0x0\n        /* \"contracts/vaccineHelper.sol\":198:208  _vaccineID */\n      dup3\n        /* \"contracts/vaccineHelper.sol\":183:209  vaccineToOwner[_vaccineID] */\n      dup2\n      mstore\n      0x20\n      add\n      swap1\n      dup2\n      mstore\n      0x20\n      add\n      0x0\n      keccak256\n      0x0\n      swap1\n      sload\n      swap1\n      0x100\n      exp\n      swap1\n      div\n      0xffffffffffffffffffffffffffffffffffffffff\n      and\n        /* \"contracts/vaccineHelper.sol\":169:209  msg.sender == vaccineToOwner[_vaccineID] */\n      0xffffffffffffffffffffffffffffffffffffffff\n      and\n        /* \"contracts/vaccineHelper.sol\":169:179  msg.sender */\n      caller\n        /* \"contracts/vaccineHelper.sol\":169:209  msg.sender == vaccineToOwner[_vaccineID] */\n      0xffffffffffffffffffffffffffffffffffffffff\n      and\n      eq\n        /* \"contracts/vaccineHelper.sol\":161:210  require(msg.sender == vaccineToOwner[_vaccineID]) */\n      iszero\n      iszero\n      tag_99\n      jumpi\n      0x0\n      dup1\n      revert\n    tag_99:\n        /* \"contracts/vaccineHelper.sol\":1074:1081  _newRna */\n      dup4\n        /* \"contracts/vaccineHelper.sol\":1047:1055  vaccines */\n      0x4\n        /* \"contracts/vaccineHelper.sol\":1056:1066  _vaccineID */\n      dup7\n        /* \"contracts/vaccineHelper.sol\":1047:1067  vaccines[_vaccineID] */\n      dup2\n      sload\n      dup2\n      lt\n      iszero\n      iszero\n      tag_101\n      jumpi\n      invalid\n    tag_101:\n      swap1\n      0x0\n      mstore\n      keccak256(0x0, 0x20)\n      swap1\n      0x4\n      mul\n      add\n        /* \"contracts/vaccineHelper.sol\":1047:1071  vaccines[_vaccineID].rna */\n      0x1\n      add\n        /* \"contracts/vaccineHelper.sol\":1047:1081  vaccines[_vaccineID].rna = _newRna */\n      dup2\n      swap1\n      sstore\n      pop\n        /* \"contracts/vaccineHelper.sol\":355:356  _ */\n      pop\n        /* \"contracts/vaccineHelper.sol\":926:1089  function changeRna(uint _vaccineID, uint _newRna) external aboveCures(20, _vaccineID) onlyOwnerOf(_vaccineID) {\r... */\n      pop\n      pop\n      pop\n      pop\n      jump\t// out\n        /* \"contracts/vaccineHelper.sol\":601:742  function powerUp(uint _vaccineID) external payable {\r... */\n    tag_55:\n        /* \"contracts/vaccineHelper.sol\":684:694  powerUpFee */\n      sload(0x7)\n        /* \"contracts/vaccineHelper.sol\":671:680  msg.value */\n      callvalue\n        /* \"contracts/vaccineHelper.sol\":671:694  msg.value == powerUpFee */\n      eq\n        /* \"contracts/vaccineHelper.sol\":663:695  require(msg.value == powerUpFee) */\n      iszero\n      iszero\n      tag_104\n      jumpi\n      0x0\n      dup1\n      revert\n    tag_104:\n        /* \"contracts/vaccineHelper.sol\":706:714  vaccines */\n      0x4\n        /* \"contracts/vaccineHelper.sol\":715:725  _vaccineID */\n      dup2\n        /* \"contracts/vaccineHelper.sol\":706:726  vaccines[_vaccineID] */\n      dup2\n      sload\n      dup2\n      lt\n      iszero\n      iszero\n      tag_105\n      jumpi\n      invalid\n    tag_105:\n      swap1\n      0x0\n      mstore\n      keccak256(0x0, 0x20)\n      swap1\n      0x4\n      mul\n      add\n        /* \"contracts/vaccineHelper.sol\":706:732  vaccines[_vaccineID].power */\n      0x2\n      add\n      0x0\n        /* \"contracts/vaccineHelper.sol\":706:734  vaccines[_vaccineID].power++ */\n      dup2\n      sload\n      dup1\n      swap3\n      swap2\n      swap1\n      0x1\n      add\n      swap2\n      swap1\n      pop\n      sstore\n      pop\n        /* \"contracts/vaccineHelper.sol\":601:742  function powerUp(uint _vaccineID) external payable {\r... */\n      pop\n      jump\t// out\n        /* \"contracts/vaccineHelper.sol\":750:918  function changeName(uint _vaccineID, string _newName) external aboveCures(2, _vaccineID) onlyOwnerOf(_vaccineID) {\r... */\n    tag_58:\n        /* \"contracts/vaccineHelper.sol\":824:825  2 */\n      0x2\n        /* \"contracts/vaccineHelper.sol\":827:837  _vaccineID */\n      dup4\n        /* \"contracts/vaccineHelper.sol\":337:343  _cures */\n      dup2\n        /* \"contracts/vaccineHelper.sol\":307:315  vaccines */\n      0x4\n        /* \"contracts/vaccineHelper.sol\":316:326  _vaccineID */\n      dup3\n        /* \"contracts/vaccineHelper.sol\":307:327  vaccines[_vaccineID] */\n      dup2\n      sload\n      dup2\n      lt\n      iszero\n      iszero\n      tag_108\n      jumpi\n      invalid\n    tag_108:\n      swap1\n      0x0\n      mstore\n      keccak256(0x0, 0x20)\n      swap1\n      0x4\n      mul\n      add\n        /* \"contracts/vaccineHelper.sol\":307:333  vaccines[_vaccineID].cures */\n      0x3\n      add\n      sload\n        /* \"contracts/vaccineHelper.sol\":307:343  vaccines[_vaccineID].cures >= _cures */\n      lt\n      iszero\n        /* \"contracts/vaccineHelper.sol\":299:344  require(vaccines[_vaccineID].cures >= _cures) */\n      iszero\n      iszero\n      tag_110\n      jumpi\n      0x0\n      dup1\n      revert\n    tag_110:\n        /* \"contracts/vaccineHelper.sol\":851:861  _vaccineID */\n      dup5\n        /* \"contracts/vaccineHelper.sol\":183:197  vaccineToOwner */\n      0x5\n        /* \"contracts/vaccineHelper.sol\":183:209  vaccineToOwner[_vaccineID] */\n      0x0\n        /* \"contracts/vaccineHelper.sol\":198:208  _vaccineID */\n      dup3\n        /* \"contracts/vaccineHelper.sol\":183:209  vaccineToOwner[_vaccineID] */\n      dup2\n      mstore\n      0x20\n      add\n      swap1\n      dup2\n      mstore\n      0x20\n      add\n      0x0\n      keccak256\n      0x0\n      swap1\n      sload\n      swap1\n      0x100\n      exp\n      swap1\n      div\n      0xffffffffffffffffffffffffffffffffffffffff\n      and\n        /* \"contracts/vaccineHelper.sol\":169:209  msg.sender == vaccineToOwner[_vaccineID] */\n      0xffffffffffffffffffffffffffffffffffffffff\n      and\n        /* \"contracts/vaccineHelper.sol\":169:179  msg.sender */\n      caller\n        /* \"contracts/vaccineHelper.sol\":169:209  msg.sender == vaccineToOwner[_vaccineID] */\n      0xffffffffffffffffffffffffffffffffffffffff\n      and\n      eq\n        /* \"contracts/vaccineHelper.sol\":161:210  require(msg.sender == vaccineToOwner[_vaccineID]) */\n      iszero\n      iszero\n      tag_112\n      jumpi\n      0x0\n      dup1\n      revert\n    tag_112:\n        /* \"contracts/vaccineHelper.sol\":902:910  _newName */\n      dup5\n      dup5\n        /* \"contracts/vaccineHelper.sol\":874:882  vaccines */\n      0x4\n        /* \"contracts/vaccineHelper.sol\":883:893  _vaccineID */\n      dup9\n        /* \"contracts/vaccineHelper.sol\":874:894  vaccines[_vaccineID] */\n      dup2\n      sload\n      dup2\n      lt\n      iszero\n      iszero\n      tag_114\n      jumpi\n      invalid\n    tag_114:\n      swap1\n      0x0\n      mstore\n      keccak256(0x0, 0x20)\n      swap1\n      0x4\n      mul\n      add\n        /* \"contracts/vaccineHelper.sol\":874:899  vaccines[_vaccineID].name */\n      0x0\n      add\n        /* \"contracts/vaccineHelper.sol\":874:910  vaccines[_vaccineID].name = _newName */\n      swap2\n      swap1\n      tag_116\n      swap3\n      swap2\n      swap1\n      jump\t// in(tag_117)\n    tag_116:\n      pop\n        /* \"contracts/vaccineHelper.sol\":355:356  _ */\n      pop\n        /* \"contracts/vaccineHelper.sol\":750:918  function changeName(uint _vaccineID, string _newName) external aboveCures(2, _vaccineID) onlyOwnerOf(_vaccineID) {\r... */\n      pop\n      pop\n      pop\n      pop\n      pop\n      jump\t// out\n        /* \"contracts/vaccineFactory.sol\":999:1247  function createRandomVaccine(string _name) public {\r... */\n    tag_61:\n        /* \"contracts/vaccineFactory.sol\":1114:1126  uint randRna */\n      0x0\n        /* \"contracts/vaccineFactory.sol\":1101:1102  0 */\n      dup1\n        /* \"contracts/vaccineFactory.sol\":1068:1085  ownerVaccineCount */\n      0x6\n        /* \"contracts/vaccineFactory.sol\":1068:1097  ownerVaccineCount[msg.sender] */\n      0x0\n        /* \"contracts/vaccineFactory.sol\":1086:1096  msg.sender */\n      caller\n        /* \"contracts/vaccineFactory.sol\":1068:1097  ownerVaccineCount[msg.sender] */\n      0xffffffffffffffffffffffffffffffffffffffff\n      and\n      0xffffffffffffffffffffffffffffffffffffffff\n      and\n      dup2\n      mstore\n      0x20\n      add\n      swap1\n      dup2\n      mstore\n      0x20\n      add\n      0x0\n      keccak256\n      sload\n        /* \"contracts/vaccineFactory.sol\":1068:1102  ownerVaccineCount[msg.sender] == 0 */\n      eq\n        /* \"contracts/vaccineFactory.sol\":1060:1103  require(ownerVaccineCount[msg.sender] == 0) */\n      iszero\n      iszero\n      tag_119\n      jumpi\n      0x0\n      dup1\n      revert\n    tag_119:\n        /* \"contracts/vaccineFactory.sol\":1129:1154  _generateRandomRna(_name) */\n      tag_120\n        /* \"contracts/vaccineFactory.sol\":1148:1153  _name */\n      dup3\n        /* \"contracts/vaccineFactory.sol\":1129:1147  _generateRandomRna */\n      tag_121\n        /* \"contracts/vaccineFactory.sol\":1129:1154  _generateRandomRna(_name) */\n      jump\t// in\n    tag_120:\n        /* \"contracts/vaccineFactory.sol\":1114:1154  uint randRna = _generateRandomRna(_name) */\n      swap1\n      pop\n        /* \"contracts/vaccineFactory.sol\":1195:1198  100 */\n      0x64\n        /* \"contracts/vaccineFactory.sol\":1185:1192  randRna */\n      dup2\n        /* \"contracts/vaccineFactory.sol\":1185:1198  randRna % 100 */\n      dup2\n      iszero\n      iszero\n      tag_122\n      jumpi\n      invalid\n    tag_122:\n      mod\n        /* \"contracts/vaccineFactory.sol\":1175:1182  randRna */\n      dup2\n        /* \"contracts/vaccineFactory.sol\":1175:1198  randRna - randRna % 100 */\n      sub\n        /* \"contracts/vaccineFactory.sol\":1165:1198  randRna = randRna - randRna % 100 */\n      swap1\n      pop\n        /* \"contracts/vaccineFactory.sol\":1209:1239  _createVaccine(_name, randRna) */\n      tag_123\n        /* \"contracts/vaccineFactory.sol\":1224:1229  _name */\n      dup3\n        /* \"contracts/vaccineFactory.sol\":1231:1238  randRna */\n      dup3\n        /* \"contracts/vaccineFactory.sol\":1209:1223  _createVaccine */\n      tag_124\n        /* \"contracts/vaccineFactory.sol\":1209:1239  _createVaccine(_name, randRna) */\n      jump\t// in\n    tag_123:\n        /* \"contracts/vaccineFactory.sol\":999:1247  function createRandomVaccine(string _name) public {\r... */\n      pop\n      pop\n      jump\t// out\n        /* \"contracts/vaccineTest.sol\":363:676  function test(uint _vaccineID, uint _virusID) external onlyOwnerOf(_vaccineID) {\r... */\n    tag_64:\n        /* \"contracts/vaccineTest.sol\":453:476  Vaccine storage vaccine */\n      0x0\n        /* \"contracts/vaccineTest.sol\":510:529  Virus storage virus */\n      dup1\n        /* \"contracts/vaccineTest.sol\":560:569  uint rand */\n      0x0\n        /* \"contracts/vaccineTest.sol\":430:440  _vaccineID */\n      dup5\n        /* \"contracts/vaccineHelper.sol\":183:197  vaccineToOwner */\n      0x5\n        /* \"contracts/vaccineHelper.sol\":183:209  vaccineToOwner[_vaccineID] */\n      0x0\n        /* \"contracts/vaccineHelper.sol\":198:208  _vaccineID */\n      dup3\n        /* \"contracts/vaccineHelper.sol\":183:209  vaccineToOwner[_vaccineID] */\n      dup2\n      mstore\n      0x20\n      add\n      swap1\n      dup2\n      mstore\n      0x20\n      add\n      0x0\n      keccak256\n      0x0\n      swap1\n      sload\n      swap1\n      0x100\n      exp\n      swap1\n      div\n      0xffffffffffffffffffffffffffffffffffffffff\n      and\n        /* \"contracts/vaccineHelper.sol\":169:209  msg.sender == vaccineToOwner[_vaccineID] */\n      0xffffffffffffffffffffffffffffffffffffffff\n      and\n        /* \"contracts/vaccineHelper.sol\":169:179  msg.sender */\n      caller\n        /* \"contracts/vaccineHelper.sol\":169:209  msg.sender == vaccineToOwner[_vaccineID] */\n      0xffffffffffffffffffffffffffffffffffffffff\n      and\n      eq\n        /* \"contracts/vaccineHelper.sol\":161:210  require(msg.sender == vaccineToOwner[_vaccineID]) */\n      iszero\n      iszero\n      tag_126\n      jumpi\n      0x0\n      dup1\n      revert\n    tag_126:\n        /* \"contracts/vaccineTest.sol\":479:487  vaccines */\n      0x4\n        /* \"contracts/vaccineTest.sol\":488:498  _vaccineID */\n      dup7\n        /* \"contracts/vaccineTest.sol\":479:499  vaccines[_vaccineID] */\n      dup2\n      sload\n      dup2\n      lt\n      iszero\n      iszero\n      tag_128\n      jumpi\n      invalid\n    tag_128:\n      swap1\n      0x0\n      mstore\n      keccak256(0x0, 0x20)\n      swap1\n      0x4\n      mul\n      add\n        /* \"contracts/vaccineTest.sol\":453:499  Vaccine storage vaccine = vaccines[_vaccineID] */\n      swap4\n      pop\n        /* \"contracts/vaccineTest.sol\":532:539  viruses */\n      0x8\n        /* \"contracts/vaccineTest.sol\":540:548  _virusID */\n      dup6\n        /* \"contracts/vaccineTest.sol\":532:549  viruses[_virusID] */\n      dup2\n      sload\n      dup2\n      lt\n      iszero\n      iszero\n      tag_130\n      jumpi\n      invalid\n    tag_130:\n      swap1\n      0x0\n      mstore\n      keccak256(0x0, 0x20)\n      swap1\n      0x2\n      mul\n      add\n        /* \"contracts/vaccineTest.sol\":510:549  Virus storage virus = viruses[_virusID] */\n      swap3\n      pop\n        /* \"contracts/vaccineTest.sol\":572:584  randMod(100) */\n      tag_132\n        /* \"contracts/vaccineTest.sol\":580:583  100 */\n      0x64\n        /* \"contracts/vaccineTest.sol\":572:579  randMod */\n      tag_133\n        /* \"contracts/vaccineTest.sol\":572:584  randMod(100) */\n      jump\t// in\n    tag_132:\n        /* \"contracts/vaccineTest.sol\":560:584  uint rand = randMod(100) */\n      swap2\n      pop\n        /* \"contracts/vaccineTest.sol\":607:625  successProbability */\n      sload(0xa)\n        /* \"contracts/vaccineTest.sol\":599:603  rand */\n      dup3\n        /* \"contracts/vaccineTest.sol\":599:625  rand <= successProbability */\n      gt\n      iszero\n        /* \"contracts/vaccineTest.sol\":595:669  if (rand <= successProbability) {\r... */\n      iszero\n      tag_134\n      jumpi\n        /* \"contracts/vaccineTest.sol\":642:649  vaccine */\n      dup4\n        /* \"contracts/vaccineTest.sol\":642:655  vaccine.cures */\n      0x3\n      add\n      0x0\n        /* \"contracts/vaccineTest.sol\":642:657  vaccine.cures++ */\n      dup2\n      sload\n      dup1\n      swap3\n      swap2\n      swap1\n      0x1\n      add\n      swap2\n      swap1\n      pop\n      sstore\n      pop\n        /* \"contracts/vaccineTest.sol\":595:669  if (rand <= successProbability) {\r... */\n    tag_134:\n        /* \"contracts/vaccineTest.sol\":363:676  function test(uint _vaccineID, uint _virusID) external onlyOwnerOf(_vaccineID) {\r... */\n      pop\n      pop\n      pop\n      pop\n      pop\n      pop\n      jump\t// out\n        /* \"contracts/ownable.sol\":334:521  function transferOwnership(address newOwner) public onlyOwner {\r... */\n    tag_67:\n        /* \"contracts/ownable.sol\":300:305  owner */\n      0x0\n      dup1\n      swap1\n      sload\n      swap1\n      0x100\n      exp\n      swap1\n      div\n      0xffffffffffffffffffffffffffffffffffffffff\n      and\n        /* \"contracts/ownable.sol\":286:305  msg.sender == owner */\n      0xffffffffffffffffffffffffffffffffffffffff\n      and\n        /* \"contracts/ownable.sol\":286:296  msg.sender */\n      caller\n        /* \"contracts/ownable.sol\":286:305  msg.sender == owner */\n      0xffffffffffffffffffffffffffffffffffffffff\n      and\n      eq\n        /* \"contracts/ownable.sol\":278:306  require(msg.sender == owner) */\n      iszero\n      iszero\n      tag_136\n      jumpi\n      0x0\n      dup1\n      revert\n    tag_136:\n        /* \"contracts/ownable.sol\":435:436  0 */\n      0x0\n        /* \"contracts/ownable.sol\":415:437  newOwner != address(0) */\n      0xffffffffffffffffffffffffffffffffffffffff\n      and\n        /* \"contracts/ownable.sol\":415:423  newOwner */\n      dup2\n        /* \"contracts/ownable.sol\":415:437  newOwner != address(0) */\n      0xffffffffffffffffffffffffffffffffffffffff\n      and\n      eq\n      iszero\n        /* \"contracts/ownable.sol\":407:438  require(newOwner != address(0)) */\n      iszero\n      iszero\n      tag_138\n      jumpi\n      0x0\n      dup1\n      revert\n    tag_138:\n        /* \"contracts/ownable.sol\":477:485  newOwner */\n      dup1\n        /* \"contracts/ownable.sol\":449:486  OwnershipTransferred(owner, newOwner) */\n      0xffffffffffffffffffffffffffffffffffffffff\n      and\n        /* \"contracts/ownable.sol\":470:475  owner */\n      0x0\n      dup1\n      swap1\n      sload\n      swap1\n      0x100\n      exp\n      swap1\n      div\n      0xffffffffffffffffffffffffffffffffffffffff\n      and\n        /* \"contracts/ownable.sol\":449:486  OwnershipTransferred(owner, newOwner) */\n      0xffffffffffffffffffffffffffffffffffffffff\n      and\n      0x8be0079c531659141344cd1fd0a4f28419497f9722a3daafe3b4186f6b6457e0\n      mload(0x40)\n      mload(0x40)\n      dup1\n      swap2\n      sub\n      swap1\n      log3\n        /* \"contracts/ownable.sol\":505:513  newOwner */\n      dup1\n        /* \"contracts/ownable.sol\":497:502  owner */\n      0x0\n      dup1\n        /* \"contracts/ownable.sol\":497:513  owner = newOwner */\n      0x100\n      exp\n      dup2\n      sload\n      dup2\n      0xffffffffffffffffffffffffffffffffffffffff\n      mul\n      not\n      and\n      swap1\n      dup4\n      0xffffffffffffffffffffffffffffffffffffffff\n      and\n      mul\n      or\n      swap1\n      sstore\n      pop\n        /* \"contracts/ownable.sol\":334:521  function transferOwnership(address newOwner) public onlyOwner {\r... */\n      pop\n      jump\t// out\n        /* \"contracts/vaccineFactory.sol\":835:991  function _generateRandomRna(string _str) private view returns (uint) {\r... */\n    tag_121:\n        /* \"contracts/vaccineFactory.sol\":898:902  uint */\n      0x0\n        /* \"contracts/vaccineFactory.sol\":915:924  uint rand */\n      dup1\n        /* \"contracts/vaccineFactory.sol\":942:946  _str */\n      dup3\n        /* \"contracts/vaccineFactory.sol\":932:947  keccak256(_str) */\n      mload(0x40)\n      dup1\n      dup3\n      dup1\n      mload\n      swap1\n      0x20\n      add\n      swap1\n      dup1\n      dup4\n      dup4\n        /* \"--CODEGEN--\":36:189   */\n    tag_140:\n        /* \"--CODEGEN--\":66:68   */\n      0x20\n        /* \"--CODEGEN--\":61:64   */\n      dup4\n        /* \"--CODEGEN--\":58:69   */\n      lt\n        /* \"--CODEGEN--\":51:70   */\n      iszero\n        /* \"--CODEGEN--\":36:189   */\n      iszero\n      tag_141\n      jumpi\n        /* \"--CODEGEN--\":182:185   */\n      dup1\n        /* \"--CODEGEN--\":176:186   */\n      mload\n        /* \"--CODEGEN--\":171:174   */\n      dup3\n        /* \"--CODEGEN--\":164:187   */\n      mstore\n        /* \"--CODEGEN--\":98:100   */\n      0x20\n        /* \"--CODEGEN--\":93:96   */\n      dup3\n        /* \"--CODEGEN--\":89:101   */\n      add\n        /* \"--CODEGEN--\":82:101   */\n      swap2\n      pop\n        /* \"--CODEGEN--\":123:125   */\n      0x20\n        /* \"--CODEGEN--\":118:121   */\n      dup2\n        /* \"--CODEGEN--\":114:126   */\n      add\n        /* \"--CODEGEN--\":107:126   */\n      swap1\n      pop\n        /* \"--CODEGEN--\":148:150   */\n      0x20\n        /* \"--CODEGEN--\":143:146   */\n      dup4\n        /* \"--CODEGEN--\":139:151   */\n      sub\n        /* \"--CODEGEN--\":132:151   */\n      swap3\n      pop\n        /* \"--CODEGEN--\":36:189   */\n      jump(tag_140)\n    tag_141:\n        /* \"--CODEGEN--\":274:275   */\n      0x1\n        /* \"--CODEGEN--\":267:270   */\n      dup4\n        /* \"--CODEGEN--\":263:265   */\n      0x20\n        /* \"--CODEGEN--\":259:271   */\n      sub\n        /* \"--CODEGEN--\":254:257   */\n      0x100\n        /* \"--CODEGEN--\":250:272   */\n      exp\n        /* \"--CODEGEN--\":246:276   */\n      sub\n        /* \"--CODEGEN--\":315:319   */\n      dup1\n        /* \"--CODEGEN--\":311:320   */\n      not\n        /* \"--CODEGEN--\":305:308   */\n      dup3\n        /* \"--CODEGEN--\":299:309   */\n      mload\n        /* \"--CODEGEN--\":295:321   */\n      and\n        /* \"--CODEGEN--\":356:360   */\n      dup2\n        /* \"--CODEGEN--\":350:353   */\n      dup5\n        /* \"--CODEGEN--\":344:354   */\n      mload\n        /* \"--CODEGEN--\":340:361   */\n      and\n        /* \"--CODEGEN--\":389:396   */\n      dup1\n        /* \"--CODEGEN--\":380:387   */\n      dup3\n        /* \"--CODEGEN--\":377:397   */\n      or\n        /* \"--CODEGEN--\":372:375   */\n      dup6\n        /* \"--CODEGEN--\":365:398   */\n      mstore\n        /* \"--CODEGEN--\":3:402   */\n      pop\n      pop\n      pop\n        /* \"contracts/vaccineFactory.sol\":932:947  keccak256(_str) */\n      pop\n      pop\n      pop\n      swap1\n      pop\n      add\n      swap2\n      pop\n      pop\n      mload(0x40)\n      dup1\n      swap2\n      sub\n      swap1\n      keccak256\n        /* \"contracts/vaccineFactory.sol\":927:948  uint(keccak256(_str)) */\n      0x1\n      swap1\n      div\n        /* \"contracts/vaccineFactory.sol\":915:948  uint rand = uint(keccak256(_str)) */\n      swap1\n      pop\n        /* \"contracts/vaccineFactory.sol\":973:983  rnaModulus */\n      sload(0x2)\n        /* \"contracts/vaccineFactory.sol\":966:970  rand */\n      dup2\n        /* \"contracts/vaccineFactory.sol\":966:983  rand % rnaModulus */\n      dup2\n      iszero\n      iszero\n      tag_143\n      jumpi\n      invalid\n    tag_143:\n      mod\n        /* \"contracts/vaccineFactory.sol\":959:983  return rand % rnaModulus */\n      swap2\n      pop\n        /* \"contracts/vaccineFactory.sol\":835:991  function _generateRandomRna(string _str) private view returns (uint) {\r... */\n      pop\n      swap2\n      swap1\n      pop\n      jump\t// out\n        /* \"contracts/vaccineFactory.sol\":573:827  function _createVaccine(string _name, uint _rna) internal {\r... */\n    tag_124:\n        /* \"contracts/vaccineFactory.sol\":642:649  uint id */\n      0x0\n        /* \"contracts/vaccineFactory.sol\":696:697  1 */\n      0x1\n        /* \"contracts/vaccineFactory.sol\":652:660  vaccines */\n      0x4\n        /* \"contracts/vaccineFactory.sol\":666:692  Vaccine(_name, _rna, 1, 0) */\n      0x80\n      mload(0x40)\n      swap1\n      dup2\n      add\n      0x40\n      mstore\n      dup1\n        /* \"contracts/vaccineFactory.sol\":674:679  _name */\n      dup7\n        /* \"contracts/vaccineFactory.sol\":666:692  Vaccine(_name, _rna, 1, 0) */\n      dup2\n      mstore\n      0x20\n      add\n        /* \"contracts/vaccineFactory.sol\":681:685  _rna */\n      dup6\n        /* \"contracts/vaccineFactory.sol\":666:692  Vaccine(_name, _rna, 1, 0) */\n      dup2\n      mstore\n      0x20\n      add\n        /* \"contracts/vaccineFactory.sol\":687:688  1 */\n      0x1\n        /* \"contracts/vaccineFactory.sol\":666:692  Vaccine(_name, _rna, 1, 0) */\n      dup2\n      mstore\n      0x20\n      add\n        /* \"contracts/vaccineFactory.sol\":690:691  0 */\n      0x0\n        /* \"contracts/vaccineFactory.sol\":666:692  Vaccine(_name, _rna, 1, 0) */\n      dup2\n      mstore\n      pop\n        /* \"contracts/vaccineFactory.sol\":652:693  vaccines.push(Vaccine(_name, _rna, 1, 0)) */\n      swap1\n      dup1\n        /* \"--CODEGEN--\":39:40   */\n      0x1\n        /* \"--CODEGEN--\":33:36   */\n      dup2\n        /* \"--CODEGEN--\":27:37   */\n      sload\n        /* \"--CODEGEN--\":23:41   */\n      add\n        /* \"--CODEGEN--\":57:67   */\n      dup1\n        /* \"--CODEGEN--\":52:55   */\n      dup3\n        /* \"--CODEGEN--\":45:68   */\n      sstore\n        /* \"--CODEGEN--\":79:89   */\n      dup1\n        /* \"--CODEGEN--\":72:89   */\n      swap2\n      pop\n        /* \"--CODEGEN--\":0:93   */\n      pop\n        /* \"contracts/vaccineFactory.sol\":652:693  vaccines.push(Vaccine(_name, _rna, 1, 0)) */\n      swap1\n      0x1\n      dup3\n      sub\n      swap1\n      0x0\n      mstore\n      keccak256(0x0, 0x20)\n      swap1\n      0x4\n      mul\n      add\n      0x0\n      swap1\n      swap2\n      swap3\n      swap1\n      swap2\n      swap1\n      swap2\n      pop\n      0x0\n      dup3\n      add\n      mload\n      dup2\n      0x0\n      add\n      swap1\n      dup1\n      mload\n      swap1\n      0x20\n      add\n      swap1\n      tag_146\n      swap3\n      swap2\n      swap1\n      jump\t// in(tag_147)\n    tag_146:\n      pop\n      0x20\n      dup3\n      add\n      mload\n      dup2\n      0x1\n      add\n      sstore\n      0x40\n      dup3\n      add\n      mload\n      dup2\n      0x2\n      add\n      sstore\n      0x60\n      dup3\n      add\n      mload\n      dup2\n      0x3\n      add\n      sstore\n      pop\n      pop\n        /* \"contracts/vaccineFactory.sol\":652:697  vaccines.push(Vaccine(_name, _rna, 1, 0)) - 1 */\n      sub\n        /* \"contracts/vaccineFactory.sol\":642:697  uint id = vaccines.push(Vaccine(_name, _rna, 1, 0)) - 1 */\n      swap1\n      pop\n        /* \"contracts/vaccineFactory.sol\":729:739  msg.sender */\n      caller\n        /* \"contracts/vaccineFactory.sol\":708:722  vaccineToOwner */\n      0x5\n        /* \"contracts/vaccineFactory.sol\":708:726  vaccineToOwner[id] */\n      0x0\n        /* \"contracts/vaccineFactory.sol\":723:725  id */\n      dup4\n        /* \"contracts/vaccineFactory.sol\":708:726  vaccineToOwner[id] */\n      dup2\n      mstore\n      0x20\n      add\n      swap1\n      dup2\n      mstore\n      0x20\n      add\n      0x0\n      keccak256\n      0x0\n        /* \"contracts/vaccineFactory.sol\":708:739  vaccineToOwner[id] = msg.sender */\n      0x100\n      exp\n      dup2\n      sload\n      dup2\n      0xffffffffffffffffffffffffffffffffffffffff\n      mul\n      not\n      and\n      swap1\n      dup4\n      0xffffffffffffffffffffffffffffffffffffffff\n      and\n      mul\n      or\n      swap1\n      sstore\n      pop\n        /* \"contracts/vaccineFactory.sol\":750:767  ownerVaccineCount */\n      0x6\n        /* \"contracts/vaccineFactory.sol\":750:779  ownerVaccineCount[msg.sender] */\n      0x0\n        /* \"contracts/vaccineFactory.sol\":768:778  msg.sender */\n      caller\n        /* \"contracts/vaccineFactory.sol\":750:779  ownerVaccineCount[msg.sender] */\n      0xffffffffffffffffffffffffffffffffffffffff\n      and\n      0xffffffffffffffffffffffffffffffffffffffff\n      and\n      dup2\n      mstore\n      0x20\n      add\n      swap1\n      dup2\n      mstore\n      0x20\n      add\n      0x0\n      keccak256\n      0x0\n        /* \"contracts/vaccineFactory.sol\":750:781  ownerVaccineCount[msg.sender]++ */\n      dup2\n      sload\n      dup1\n      swap3\n      swap2\n      swap1\n      0x1\n      add\n      swap2\n      swap1\n      pop\n      sstore\n      pop\n        /* \"contracts/vaccineFactory.sol\":792:819  newVaccine(id, _name, _rna) */\n      0xcb5c019df3d46f8fb328db304bcf1718af383e0eea729499ea9c5205c5a99c69\n        /* \"contracts/vaccineFactory.sol\":803:805  id */\n      dup2\n        /* \"contracts/vaccineFactory.sol\":807:812  _name */\n      dup5\n        /* \"contracts/vaccineFactory.sol\":814:818  _rna */\n      dup5\n        /* \"contracts/vaccineFactory.sol\":792:819  newVaccine(id, _name, _rna) */\n      mload(0x40)\n      dup1\n      dup5\n      dup2\n      mstore\n      0x20\n      add\n      dup1\n      0x20\n      add\n      dup4\n      dup2\n      mstore\n      0x20\n      add\n      dup3\n      dup2\n      sub\n      dup3\n      mstore\n      dup5\n      dup2\n      dup2\n      mload\n      dup2\n      mstore\n      0x20\n      add\n      swap2\n      pop\n      dup1\n      mload\n      swap1\n      0x20\n      add\n      swap1\n      dup1\n      dup4\n      dup4\n        /* \"--CODEGEN--\":23:24   */\n      0x0\n        /* \"--CODEGEN--\":8:108   */\n    tag_148:\n        /* \"--CODEGEN--\":33:36   */\n      dup4\n        /* \"--CODEGEN--\":30:31   */\n      dup2\n        /* \"--CODEGEN--\":27:37   */\n      lt\n        /* \"--CODEGEN--\":8:108   */\n      iszero\n      tag_149\n      jumpi\n        /* \"--CODEGEN--\":99:100   */\n      dup1\n        /* \"--CODEGEN--\":94:97   */\n      dup3\n        /* \"--CODEGEN--\":90:101   */\n      add\n        /* \"--CODEGEN--\":84:102   */\n      mload\n        /* \"--CODEGEN--\":80:81   */\n      dup2\n        /* \"--CODEGEN--\":75:78   */\n      dup5\n        /* \"--CODEGEN--\":71:82   */\n      add\n        /* \"--CODEGEN--\":64:103   */\n      mstore\n        /* \"--CODEGEN--\":52:54   */\n      0x20\n        /* \"--CODEGEN--\":49:50   */\n      dup2\n        /* \"--CODEGEN--\":45:55   */\n      add\n        /* \"--CODEGEN--\":40:55   */\n      swap1\n      pop\n        /* \"--CODEGEN--\":8:108   */\n      jump(tag_148)\n    tag_149:\n        /* \"--CODEGEN--\":12:26   */\n      pop\n        /* \"contracts/vaccineFactory.sol\":792:819  newVaccine(id, _name, _rna) */\n      pop\n      pop\n      pop\n      swap1\n      pop\n      swap1\n      dup2\n      add\n      swap1\n      0x1f\n      and\n      dup1\n      iszero\n      tag_151\n      jumpi\n      dup1\n      dup3\n      sub\n      dup1\n      mload\n      0x1\n      dup4\n      0x20\n      sub\n      0x100\n      exp\n      sub\n      not\n      and\n      dup2\n      mstore\n      0x20\n      add\n      swap2\n      pop\n    tag_151:\n      pop\n      swap5\n      pop\n      pop\n      pop\n      pop\n      pop\n      mload(0x40)\n      dup1\n      swap2\n      sub\n      swap1\n      log1\n        /* \"contracts/vaccineFactory.sol\":573:827  function _createVaccine(string _name, uint _rna) internal {\r... */\n      pop\n      pop\n      pop\n      jump\t// out\n        /* \"contracts/vaccineTest.sol\":198:355  function randMod(uint _modulus) internal returns(uint) {\r... */\n    tag_133:\n        /* \"contracts/vaccineTest.sol\":247:251  uint */\n      0x0\n        /* \"contracts/vaccineTest.sol\":264:273  randNonce */\n      0x9\n      0x0\n        /* \"contracts/vaccineTest.sol\":264:275  randNonce++ */\n      dup2\n      sload\n      dup1\n      swap3\n      swap2\n      swap1\n      0x1\n      add\n      swap2\n      swap1\n      pop\n      sstore\n      pop\n        /* \"contracts/vaccineTest.sol\":339:347  _modulus */\n      dup2\n        /* \"contracts/vaccineTest.sol\":308:311  now */\n      timestamp\n        /* \"contracts/vaccineTest.sol\":313:323  msg.sender */\n      caller\n        /* \"contracts/vaccineTest.sol\":325:334  randNonce */\n      sload(0x9)\n        /* \"contracts/vaccineTest.sol\":298:335  keccak256(now, msg.sender, randNonce) */\n      mload(0x40)\n      dup1\n      dup5\n      dup2\n      mstore\n      0x20\n      add\n      dup4\n      0xffffffffffffffffffffffffffffffffffffffff\n      and\n      0xffffffffffffffffffffffffffffffffffffffff\n      and\n      0x1000000000000000000000000\n      mul\n      dup2\n      mstore\n      0x14\n      add\n      dup3\n      dup2\n      mstore\n      0x20\n      add\n      swap4\n      pop\n      pop\n      pop\n      pop\n      mload(0x40)\n      dup1\n      swap2\n      sub\n      swap1\n      keccak256\n        /* \"contracts/vaccineTest.sol\":293:336  uint(keccak256(now, msg.sender, randNonce)) */\n      0x1\n      swap1\n      div\n        /* \"contracts/vaccineTest.sol\":293:347  uint(keccak256(now, msg.sender, randNonce)) % _modulus */\n      dup2\n      iszero\n      iszero\n      tag_153\n      jumpi\n      invalid\n    tag_153:\n      mod\n        /* \"contracts/vaccineTest.sol\":286:347  return uint(keccak256(now, msg.sender, randNonce)) % _modulus */\n      swap1\n      pop\n        /* \"contracts/vaccineTest.sol\":198:355  function randMod(uint _modulus) internal returns(uint) {\r... */\n      swap2\n      swap1\n      pop\n      jump\t// out\n        /* \"contracts/vaccineTest.sol\":84:681  contract VaccineTest is VaccineHelper, Virus {\r... */\n    tag_117:\n      dup3\n      dup1\n      sload\n      0x1\n      dup2\n      0x1\n      and\n      iszero\n      0x100\n      mul\n      sub\n      and\n      0x2\n      swap1\n      div\n      swap1\n      0x0\n      mstore\n      keccak256(0x0, 0x20)\n      swap1\n      0x1f\n      add\n      0x20\n      swap1\n      div\n      dup2\n      add\n      swap3\n      dup3\n      0x1f\n      lt\n      tag_155\n      jumpi\n      dup1\n      calldataload\n      not(0xff)\n      and\n      dup4\n      dup1\n      add\n      or\n      dup6\n      sstore\n      jump(tag_154)\n    tag_155:\n      dup3\n      dup1\n      add\n      0x1\n      add\n      dup6\n      sstore\n      dup3\n      iszero\n      tag_154\n      jumpi\n      swap2\n      dup3\n      add\n    tag_156:\n      dup3\n      dup2\n      gt\n      iszero\n      tag_157\n      jumpi\n      dup3\n      calldataload\n      dup3\n      sstore\n      swap2\n      0x20\n      add\n      swap2\n      swap1\n      0x1\n      add\n      swap1\n      jump(tag_156)\n    tag_157:\n    tag_154:\n      pop\n      swap1\n      pop\n      tag_158\n      swap2\n      swap1\n      jump\t// in(tag_159)\n    tag_158:\n      pop\n      swap1\n      jump\t// out\n    tag_147:\n      dup3\n      dup1\n      sload\n      0x1\n      dup2\n      0x1\n      and\n      iszero\n      0x100\n      mul\n      sub\n      and\n      0x2\n      swap1\n      div\n      swap1\n      0x0\n      mstore\n      keccak256(0x0, 0x20)\n      swap1\n      0x1f\n      add\n      0x20\n      swap1\n      div\n      dup2\n      add\n      swap3\n      dup3\n      0x1f\n      lt\n      tag_161\n      jumpi\n      dup1\n      mload\n      not(0xff)\n      and\n      dup4\n      dup1\n      add\n      or\n      dup6\n      sstore\n      jump(tag_160)\n    tag_161:\n      dup3\n      dup1\n      add\n      0x1\n      add\n      dup6\n      sstore\n      dup3\n      iszero\n      tag_160\n      jumpi\n      swap2\n      dup3\n      add\n    tag_162:\n      dup3\n      dup2\n      gt\n      iszero\n      tag_163\n      jumpi\n      dup3\n      mload\n      dup3\n      sstore\n      swap2\n      0x20\n      add\n      swap2\n      swap1\n      0x1\n      add\n      swap1\n      jump(tag_162)\n    tag_163:\n    tag_160:\n      pop\n      swap1\n      pop\n      tag_164\n      swap2\n      swap1\n      jump\t// in(tag_159)\n    tag_164:\n      pop\n      swap1\n      jump\t// out\n    tag_159:\n      tag_165\n      swap2\n      swap1\n    tag_166:\n      dup1\n      dup3\n      gt\n      iszero\n      tag_167\n      jumpi\n      0x0\n      dup2\n      0x0\n      swap1\n      sstore\n      pop\n      0x1\n      add\n      jump(tag_166)\n    tag_167:\n      pop\n      swap1\n      jump\n    tag_165:\n      swap1\n      jump\t// out\n\n    auxdata: 0xa165627a7a72305820ed489accd0e481fff9cde0b9fa5ef2940fb693e81fbe156455f976eafb8b5fc90029\n}\n",
				"bytecode": {
					"linkReferences": {},
					"object": "60806040526010600155600154600a0a60025566038d7ea4c6800060075560006009556046600a55336000806101000a81548173ffffffffffffffffffffffffffffffffffffffff021916908373ffffffffffffffffffffffffffffffffffffffff16021790555033600360006101000a81548173ffffffffffffffffffffffffffffffffffffffff021916908373ffffffffffffffffffffffffffffffffffffffff160217905550611355806100b76000396000f3006080604052600436106100d0576000357c0100000000000000000000000000000000000000000000000000000000900463ffffffff1680631bb57b96146100d55780632dc49fb614610182578063300e88bd1461021a5780633ccfd60b146102d557806341c0e1b5146102ec578063527c382f146103035780638da5cb5b1461037057806390b0722e146103c7578063934c4649146103f45780639a6bd3791461042b578063c39cbef11461044b578063e8d5758014610490578063eb8ac921146104f9578063f2fde38b14610530575b600080fd5b3480156100e157600080fd5b5061010060048036038101908080359060200190929190505050610573565b6040518080602001838152602001828103825284818151815260200191508051906020019080838360005b8381101561014657808201518184015260208101905061012b565b50505050905090810190601f1680156101735780820380516001836020036101000a031916815260200191505b50935050505060405180910390f35b34801561018e57600080fd5b506101c3600480360381019080803573ffffffffffffffffffffffffffffffffffffffff16906020019092919050505061063e565b6040518080602001828103825283818151815260200191508051906020019060200280838360005b838110156102065780820151818401526020810190506101eb565b505050509050019250505060405180910390f35b34801561022657600080fd5b5061024560048036038101908080359060200190929190505050610770565b6040518080602001858152602001848152602001838152602001828103825286818151815260200191508051906020019080838360005b8381101561029757808201518184015260208101905061027c565b50505050905090810190601f1680156102c45780820380516001836020036101000a031916815260200191505b509550505050505060405180910390f35b3480156102e157600080fd5b506102ea610847565b005b3480156102f857600080fd5b50610301610924565b005b34801561030f57600080fd5b5061032e600480360381019080803590602001909291905050506109b7565b604051808273ffffffffffffffffffffffffffffffffffffffff1673ffffffffffffffffffffffffffffffffffffffff16815260200191505060405180910390f35b34801561037c57600080fd5b506103856109ea565b604051808273ffffffffffffffffffffffffffffffffffffffff1673ffffffffffffffffffffffffffffffffffffffff16815260200191505060405180910390f35b3480156103d357600080fd5b506103f260048036038101908080359060200190929190505050610a0f565b005b34801561040057600080fd5b506104296004803603810190808035906020019092919080359060200190929190505050610a74565b005b61044960048036038101908080359060200190929190505050610b40565b005b34801561045757600080fd5b5061048e60048036038101908080359060200190929190803590602001908201803590602001919091929391929390505050610b83565b005b34801561049c57600080fd5b506104f7600480360381019080803590602001908201803590602001908080601f0160208091040260200160405190810160405280939291908181526020018383808284378201915050505050509192919290505050610c5b565b005b34801561050557600080fd5b5061052e6004803603810190808035906020019092919080359060200190929190505050610cd4565b005b34801561053c57600080fd5b50610571600480360381019080803573ffffffffffffffffffffffffffffffffffffffff169060200190929190505050610db9565b005b60088181548110151561058257fe5b9060005260206000209060020201600091509050806000018054600181600116156101000203166002900480601f01602080910402602001604051908101604052809291908181526020018280546001816001161561010002031660029004801561062e5780601f106106035761010080835404028352916020019161062e565b820191906000526020600020905b81548152906001019060200180831161061157829003601f168201915b5050505050908060010154905082565b606080600080600660008673ffffffffffffffffffffffffffffffffffffffff1673ffffffffffffffffffffffffffffffffffffffff168152602001908152602001600020546040519080825280602002602001820160405280156106b25781602001602082028038833980820191505090505b50925060009150600090505b600480549050811015610765578473ffffffffffffffffffffffffffffffffffffffff166005600083815260200190815260200160002060009054906101000a900473ffffffffffffffffffffffffffffffffffffffff1673ffffffffffffffffffffffffffffffffffffffff1614156107585780838381518110151561074157fe5b906020019060200201818152505081806001019250505b80806001019150506106be565b829350505050919050565b60048181548110151561077f57fe5b9060005260206000209060040201600091509050806000018054600181600116156101000203166002900480601f01602080910402602001604051908101604052809291908181526020018280546001816001161561010002031660029004801561082b5780601f106108005761010080835404028352916020019161082b565b820191906000526020600020905b81548152906001019060200180831161080e57829003601f168201915b5050505050908060010154908060020154908060030154905084565b6000809054906101000a900473ffffffffffffffffffffffffffffffffffffffff1673ffffffffffffffffffffffffffffffffffffffff163373ffffffffffffffffffffffffffffffffffffffff161415156108a257600080fd5b600360009054906101000a900473ffffffffffffffffffffffffffffffffffffffff1673ffffffffffffffffffffffffffffffffffffffff166108fc3073ffffffffffffffffffffffffffffffffffffffff16319081150290604051600060405180830381858888f19350505050158015610921573d6000803e3d6000fd5b50565b3373ffffffffffffffffffffffffffffffffffffffff16600360009054906101000a900473ffffffffffffffffffffffffffffffffffffffff1673ffffffffffffffffffffffffffffffffffffffff1614156109b557600360009054906101000a900473ffffffffffffffffffffffffffffffffffffffff1673ffffffffffffffffffffffffffffffffffffffff16ff5b565b60056020528060005260406000206000915054906101000a900473ffffffffffffffffffffffffffffffffffffffff1681565b6000809054906101000a900473ffffffffffffffffffffffffffffffffffffffff1681565b6000809054906101000a900473ffffffffffffffffffffffffffffffffffffffff1673ffffffffffffffffffffffffffffffffffffffff163373ffffffffffffffffffffffffffffffffffffffff16141515610a6a57600080fd5b8060078190555050565b60148281600482815481101515610a8757fe5b90600052602060002090600402016003015410151515610aa657600080fd5b836005600082815260200190815260200160002060009054906101000a900473ffffffffffffffffffffffffffffffffffffffff1673ffffffffffffffffffffffffffffffffffffffff163373ffffffffffffffffffffffffffffffffffffffff16141515610b1457600080fd5b83600486815481101515610b2457fe5b9060005260206000209060040201600101819055505050505050565b60075434141515610b5057600080fd5b600481815481101515610b5f57fe5b90600052602060002090600402016002016000815480929190600101919050555050565b60028381600482815481101515610b9657fe5b90600052602060002090600402016003015410151515610bb557600080fd5b846005600082815260200190815260200160002060009054906101000a900473ffffffffffffffffffffffffffffffffffffffff1673ffffffffffffffffffffffffffffffffffffffff163373ffffffffffffffffffffffffffffffffffffffff16141515610c2357600080fd5b8484600488815481101515610c3457fe5b90600052602060002090600402016000019190610c52929190611204565b50505050505050565b600080600660003373ffffffffffffffffffffffffffffffffffffffff1673ffffffffffffffffffffffffffffffffffffffff16815260200190815260200160002054141515610caa57600080fd5b610cb382610f0e565b9050606481811515610cc157fe5b0681039050610cd08282610f90565b5050565b6000806000846005600082815260200190815260200160002060009054906101000a900473ffffffffffffffffffffffffffffffffffffffff1673ffffffffffffffffffffffffffffffffffffffff163373ffffffffffffffffffffffffffffffffffffffff16141515610d4757600080fd5b600486815481101515610d5657fe5b90600052602060002090600402019350600885815481101515610d7557fe5b90600052602060002090600202019250610d8f6064611177565b9150600a5482111515610db15783600301600081548092919060010191905055505b505050505050565b6000809054906101000a900473ffffffffffffffffffffffffffffffffffffffff1673ffffffffffffffffffffffffffffffffffffffff163373ffffffffffffffffffffffffffffffffffffffff16141515610e1457600080fd5b600073ffffffffffffffffffffffffffffffffffffffff168173ffffffffffffffffffffffffffffffffffffffff1614151515610e5057600080fd5b8073ffffffffffffffffffffffffffffffffffffffff166000809054906101000a900473ffffffffffffffffffffffffffffffffffffffff1673ffffffffffffffffffffffffffffffffffffffff167f8be0079c531659141344cd1fd0a4f28419497f9722a3daafe3b4186f6b6457e060405160405180910390a3806000806101000a81548173ffffffffffffffffffffffffffffffffffffffff021916908373ffffffffffffffffffffffffffffffffffffffff16021790555050565b600080826040518082805190602001908083835b602083101515610f475780518252602082019150602081019050602083039250610f22565b6001836020036101000a038019825116818451168082178552505050505050905001915050604051809103902060019004905060025481811515610f8757fe5b06915050919050565b600060016004608060405190810160405280868152602001858152602001600181526020016000815250908060018154018082558091505090600182039060005260206000209060040201600090919290919091506000820151816000019080519060200190611001929190611284565b506020820151816001015560408201518160020155606082015181600301555050039050336005600083815260200190815260200160002060006101000a81548173ffffffffffffffffffffffffffffffffffffffff021916908373ffffffffffffffffffffffffffffffffffffffff160217905550600660003373ffffffffffffffffffffffffffffffffffffffff1673ffffffffffffffffffffffffffffffffffffffff168152602001908152602001600020600081548092919060010191905055507fcb5c019df3d46f8fb328db304bcf1718af383e0eea729499ea9c5205c5a99c698184846040518084815260200180602001838152602001828103825284818151815260200191508051906020019080838360005b8381101561113657808201518184015260208101905061111b565b50505050905090810190601f1680156111635780820380516001836020036101000a031916815260200191505b5094505050505060405180910390a1505050565b6000600960008154809291906001019190505550814233600954604051808481526020018373ffffffffffffffffffffffffffffffffffffffff1673ffffffffffffffffffffffffffffffffffffffff166c0100000000000000000000000002815260140182815260200193505050506040518091039020600190048115156111fc57fe5b069050919050565b828054600181600116156101000203166002900490600052602060002090601f016020900481019282601f1061124557803560ff1916838001178555611273565b82800160010185558215611273579182015b82811115611272578235825591602001919060010190611257565b5b5090506112809190611304565b5090565b828054600181600116156101000203166002900490600052602060002090601f016020900481019282601f106112c557805160ff19168380011785556112f3565b828001600101855582156112f3579182015b828111156112f25782518255916020019190600101906112d7565b5b5090506113009190611304565b5090565b61132691905b8082111561132257600081600090555060010161130a565b5090565b905600a165627a7a72305820ed489accd0e481fff9cde0b9fa5ef2940fb693e81fbe156455f976eafb8b5fc90029",
					"opcodes": "PUSH1 0x80 PUSH1 0x40 MSTORE PUSH1 0x10 PUSH1 0x1 SSTORE PUSH1 0x1 SLOAD PUSH1 0xA EXP PUSH1 0x2 SSTORE PUSH7 0x38D7EA4C68000 PUSH1 0x7 SSTORE PUSH1 0x0 PUSH1 0x9 SSTORE PUSH1 0x46 PUSH1 0xA SSTORE CALLER PUSH1 0x0 DUP1 PUSH2 0x100 EXP DUP2 SLOAD DUP2 PUSH20 0xFFFFFFFFFFFFFFFFFFFFFFFFFFFFFFFFFFFFFFFF MUL NOT AND SWAP1 DUP4 PUSH20 0xFFFFFFFFFFFFFFFFFFFFFFFFFFFFFFFFFFFFFFFF AND MUL OR SWAP1 SSTORE POP CALLER PUSH1 0x3 PUSH1 0x0 PUSH2 0x100 EXP DUP2 SLOAD DUP2 PUSH20 0xFFFFFFFFFFFFFFFFFFFFFFFFFFFFFFFFFFFFFFFF MUL NOT AND SWAP1 DUP4 PUSH20 0xFFFFFFFFFFFFFFFFFFFFFFFFFFFFFFFFFFFFFFFF AND MUL OR SWAP1 SSTORE POP PUSH2 0x1355 DUP1 PUSH2 0xB7 PUSH1 0x0 CODECOPY PUSH1 0x0 RETURN STOP PUSH1 0x80 PUSH1 0x40 MSTORE PUSH1 0x4 CALLDATASIZE LT PUSH2 0xD0 JUMPI PUSH1 0x0 CALLDATALOAD PUSH29 0x100000000000000000000000000000000000000000000000000000000 SWAP1 DIV PUSH4 0xFFFFFFFF AND DUP1 PUSH4 0x1BB57B96 EQ PUSH2 0xD5 JUMPI DUP1 PUSH4 0x2DC49FB6 EQ PUSH2 0x182 JUMPI DUP1 PUSH4 0x300E88BD EQ PUSH2 0x21A JUMPI DUP1 PUSH4 0x3CCFD60B EQ PUSH2 0x2D5 JUMPI DUP1 PUSH4 0x41C0E1B5 EQ PUSH2 0x2EC JUMPI DUP1 PUSH4 0x527C382F EQ PUSH2 0x303 JUMPI DUP1 PUSH4 0x8DA5CB5B EQ PUSH2 0x370 JUMPI DUP1 PUSH4 0x90B0722E EQ PUSH2 0x3C7 JUMPI DUP1 PUSH4 0x934C4649 EQ PUSH2 0x3F4 JUMPI DUP1 PUSH4 0x9A6BD379 EQ PUSH2 0x42B JUMPI DUP1 PUSH4 0xC39CBEF1 EQ PUSH2 0x44B JUMPI DUP1 PUSH4 0xE8D57580 EQ PUSH2 0x490 JUMPI DUP1 PUSH4 0xEB8AC921 EQ PUSH2 0x4F9 JUMPI DUP1 PUSH4 0xF2FDE38B EQ PUSH2 0x530 JUMPI JUMPDEST PUSH1 0x0 DUP1 REVERT JUMPDEST CALLVALUE DUP1 ISZERO PUSH2 0xE1 JUMPI PUSH1 0x0 DUP1 REVERT JUMPDEST POP PUSH2 0x100 PUSH1 0x4 DUP1 CALLDATASIZE SUB DUP2 ADD SWAP1 DUP1 DUP1 CALLDATALOAD SWAP1 PUSH1 0x20 ADD SWAP1 SWAP3 SWAP2 SWAP1 POP POP POP PUSH2 0x573 JUMP JUMPDEST PUSH1 0x40 MLOAD DUP1 DUP1 PUSH1 0x20 ADD DUP4 DUP2 MSTORE PUSH1 0x20 ADD DUP3 DUP2 SUB DUP3 MSTORE DUP5 DUP2 DUP2 MLOAD DUP2 MSTORE PUSH1 0x20 ADD SWAP2 POP DUP1 MLOAD SWAP1 PUSH1 0x20 ADD SWAP1 DUP1 DUP4 DUP4 PUSH1 0x0 JUMPDEST DUP4 DUP2 LT ISZERO PUSH2 0x146 JUMPI DUP1 DUP3 ADD MLOAD DUP2 DUP5 ADD MSTORE PUSH1 0x20 DUP2 ADD SWAP1 POP PUSH2 0x12B JUMP JUMPDEST POP POP POP POP SWAP1 POP SWAP1 DUP2 ADD SWAP1 PUSH1 0x1F AND DUP1 ISZERO PUSH2 0x173 JUMPI DUP1 DUP3 SUB DUP1 MLOAD PUSH1 0x1 DUP4 PUSH1 0x20 SUB PUSH2 0x100 EXP SUB NOT AND DUP2 MSTORE PUSH1 0x20 ADD SWAP2 POP JUMPDEST POP SWAP4 POP POP POP POP PUSH1 0x40 MLOAD DUP1 SWAP2 SUB SWAP1 RETURN JUMPDEST CALLVALUE DUP1 ISZERO PUSH2 0x18E JUMPI PUSH1 0x0 DUP1 REVERT JUMPDEST POP PUSH2 0x1C3 PUSH1 0x4 DUP1 CALLDATASIZE SUB DUP2 ADD SWAP1 DUP1 DUP1 CALLDATALOAD PUSH20 0xFFFFFFFFFFFFFFFFFFFFFFFFFFFFFFFFFFFFFFFF AND SWAP1 PUSH1 0x20 ADD SWAP1 SWAP3 SWAP2 SWAP1 POP POP POP PUSH2 0x63E JUMP JUMPDEST PUSH1 0x40 MLOAD DUP1 DUP1 PUSH1 0x20 ADD DUP3 DUP2 SUB DUP3 MSTORE DUP4 DUP2 DUP2 MLOAD DUP2 MSTORE PUSH1 0x20 ADD SWAP2 POP DUP1 MLOAD SWAP1 PUSH1 0x20 ADD SWAP1 PUSH1 0x20 MUL DUP1 DUP4 DUP4 PUSH1 0x0 JUMPDEST DUP4 DUP2 LT ISZERO PUSH2 0x206 JUMPI DUP1 DUP3 ADD MLOAD DUP2 DUP5 ADD MSTORE PUSH1 0x20 DUP2 ADD SWAP1 POP PUSH2 0x1EB JUMP JUMPDEST POP POP POP POP SWAP1 POP ADD SWAP3 POP POP POP PUSH1 0x40 MLOAD DUP1 SWAP2 SUB SWAP1 RETURN JUMPDEST CALLVALUE DUP1 ISZERO PUSH2 0x226 JUMPI PUSH1 0x0 DUP1 REVERT JUMPDEST POP PUSH2 0x245 PUSH1 0x4 DUP1 CALLDATASIZE SUB DUP2 ADD SWAP1 DUP1 DUP1 CALLDATALOAD SWAP1 PUSH1 0x20 ADD SWAP1 SWAP3 SWAP2 SWAP1 POP POP POP PUSH2 0x770 JUMP JUMPDEST PUSH1 0x40 MLOAD DUP1 DUP1 PUSH1 0x20 ADD DUP6 DUP2 MSTORE PUSH1 0x20 ADD DUP5 DUP2 MSTORE PUSH1 0x20 ADD DUP4 DUP2 MSTORE PUSH1 0x20 ADD DUP3 DUP2 SUB DUP3 MSTORE DUP7 DUP2 DUP2 MLOAD DUP2 MSTORE PUSH1 0x20 ADD SWAP2 POP DUP1 MLOAD SWAP1 PUSH1 0x20 ADD SWAP1 DUP1 DUP4 DUP4 PUSH1 0x0 JUMPDEST DUP4 DUP2 LT ISZERO PUSH2 0x297 JUMPI DUP1 DUP3 ADD MLOAD DUP2 DUP5 ADD MSTORE PUSH1 0x20 DUP2 ADD SWAP1 POP PUSH2 0x27C JUMP JUMPDEST POP POP POP POP SWAP1 POP SWAP1 DUP2 ADD SWAP1 PUSH1 0x1F AND DUP1 ISZERO PUSH2 0x2C4 JUMPI DUP1 DUP3 SUB DUP1 MLOAD PUSH1 0x1 DUP4 PUSH1 0x20 SUB PUSH2 0x100 EXP SUB NOT AND DUP2 MSTORE PUSH1 0x20 ADD SWAP2 POP JUMPDEST POP SWAP6 POP POP POP POP POP POP PUSH1 0x40 MLOAD DUP1 SWAP2 SUB SWAP1 RETURN JUMPDEST CALLVALUE DUP1 ISZERO PUSH2 0x2E1 JUMPI PUSH1 0x0 DUP1 REVERT JUMPDEST POP PUSH2 0x2EA PUSH2 0x847 JUMP JUMPDEST STOP JUMPDEST CALLVALUE DUP1 ISZERO PUSH2 0x2F8 JUMPI PUSH1 0x0 DUP1 REVERT JUMPDEST POP PUSH2 0x301 PUSH2 0x924 JUMP JUMPDEST STOP JUMPDEST CALLVALUE DUP1 ISZERO PUSH2 0x30F JUMPI PUSH1 0x0 DUP1 REVERT JUMPDEST POP PUSH2 0x32E PUSH1 0x4 DUP1 CALLDATASIZE SUB DUP2 ADD SWAP1 DUP1 DUP1 CALLDATALOAD SWAP1 PUSH1 0x20 ADD SWAP1 SWAP3 SWAP2 SWAP1 POP POP POP PUSH2 0x9B7 JUMP JUMPDEST PUSH1 0x40 MLOAD DUP1 DUP3 PUSH20 0xFFFFFFFFFFFFFFFFFFFFFFFFFFFFFFFFFFFFFFFF AND PUSH20 0xFFFFFFFFFFFFFFFFFFFFFFFFFFFFFFFFFFFFFFFF AND DUP2 MSTORE PUSH1 0x20 ADD SWAP2 POP POP PUSH1 0x40 MLOAD DUP1 SWAP2 SUB SWAP1 RETURN JUMPDEST CALLVALUE DUP1 ISZERO PUSH2 0x37C JUMPI PUSH1 0x0 DUP1 REVERT JUMPDEST POP PUSH2 0x385 PUSH2 0x9EA JUMP JUMPDEST PUSH1 0x40 MLOAD DUP1 DUP3 PUSH20 0xFFFFFFFFFFFFFFFFFFFFFFFFFFFFFFFFFFFFFFFF AND PUSH20 0xFFFFFFFFFFFFFFFFFFFFFFFFFFFFFFFFFFFFFFFF AND DUP2 MSTORE PUSH1 0x20 ADD SWAP2 POP POP PUSH1 0x40 MLOAD DUP1 SWAP2 SUB SWAP1 RETURN JUMPDEST CALLVALUE DUP1 ISZERO PUSH2 0x3D3 JUMPI PUSH1 0x0 DUP1 REVERT JUMPDEST POP PUSH2 0x3F2 PUSH1 0x4 DUP1 CALLDATASIZE SUB DUP2 ADD SWAP1 DUP1 DUP1 CALLDATALOAD SWAP1 PUSH1 0x20 ADD SWAP1 SWAP3 SWAP2 SWAP1 POP POP POP PUSH2 0xA0F JUMP JUMPDEST STOP JUMPDEST CALLVALUE DUP1 ISZERO PUSH2 0x400 JUMPI PUSH1 0x0 DUP1 REVERT JUMPDEST POP PUSH2 0x429 PUSH1 0x4 DUP1 CALLDATASIZE SUB DUP2 ADD SWAP1 DUP1 DUP1 CALLDATALOAD SWAP1 PUSH1 0x20 ADD SWAP1 SWAP3 SWAP2 SWAP1 DUP1 CALLDATALOAD SWAP1 PUSH1 0x20 ADD SWAP1 SWAP3 SWAP2 SWAP1 POP POP POP PUSH2 0xA74 JUMP JUMPDEST STOP JUMPDEST PUSH2 0x449 PUSH1 0x4 DUP1 CALLDATASIZE SUB DUP2 ADD SWAP1 DUP1 DUP1 CALLDATALOAD SWAP1 PUSH1 0x20 ADD SWAP1 SWAP3 SWAP2 SWAP1 POP POP POP PUSH2 0xB40 JUMP JUMPDEST STOP JUMPDEST CALLVALUE DUP1 ISZERO PUSH2 0x457 JUMPI PUSH1 0x0 DUP1 REVERT JUMPDEST POP PUSH2 0x48E PUSH1 0x4 DUP1 CALLDATASIZE SUB DUP2 ADD SWAP1 DUP1 DUP1 CALLDATALOAD SWAP1 PUSH1 0x20 ADD SWAP1 SWAP3 SWAP2 SWAP1 DUP1 CALLDATALOAD SWAP1 PUSH1 0x20 ADD SWAP1 DUP3 ADD DUP1 CALLDATALOAD SWAP1 PUSH1 0x20 ADD SWAP2 SWAP1 SWAP2 SWAP3 SWAP4 SWAP2 SWAP3 SWAP4 SWAP1 POP POP POP PUSH2 0xB83 JUMP JUMPDEST STOP JUMPDEST CALLVALUE DUP1 ISZERO PUSH2 0x49C JUMPI PUSH1 0x0 DUP1 REVERT JUMPDEST POP PUSH2 0x4F7 PUSH1 0x4 DUP1 CALLDATASIZE SUB DUP2 ADD SWAP1 DUP1 DUP1 CALLDATALOAD SWAP1 PUSH1 0x20 ADD SWAP1 DUP3 ADD DUP1 CALLDATALOAD SWAP1 PUSH1 0x20 ADD SWAP1 DUP1 DUP1 PUSH1 0x1F ADD PUSH1 0x20 DUP1 SWAP2 DIV MUL PUSH1 0x20 ADD PUSH1 0x40 MLOAD SWAP1 DUP2 ADD PUSH1 0x40 MSTORE DUP1 SWAP4 SWAP3 SWAP2 SWAP1 DUP2 DUP2 MSTORE PUSH1 0x20 ADD DUP4 DUP4 DUP1 DUP3 DUP5 CALLDATACOPY DUP3 ADD SWAP2 POP POP POP POP POP POP SWAP2 SWAP3 SWAP2 SWAP3 SWAP1 POP POP POP PUSH2 0xC5B JUMP JUMPDEST STOP JUMPDEST CALLVALUE DUP1 ISZERO PUSH2 0x505 JUMPI PUSH1 0x0 DUP1 REVERT JUMPDEST POP PUSH2 0x52E PUSH1 0x4 DUP1 CALLDATASIZE SUB DUP2 ADD SWAP1 DUP1 DUP1 CALLDATALOAD SWAP1 PUSH1 0x20 ADD SWAP1 SWAP3 SWAP2 SWAP1 DUP1 CALLDATALOAD SWAP1 PUSH1 0x20 ADD SWAP1 SWAP3 SWAP2 SWAP1 POP POP POP PUSH2 0xCD4 JUMP JUMPDEST STOP JUMPDEST CALLVALUE DUP1 ISZERO PUSH2 0x53C JUMPI PUSH1 0x0 DUP1 REVERT JUMPDEST POP PUSH2 0x571 PUSH1 0x4 DUP1 CALLDATASIZE SUB DUP2 ADD SWAP1 DUP1 DUP1 CALLDATALOAD PUSH20 0xFFFFFFFFFFFFFFFFFFFFFFFFFFFFFFFFFFFFFFFF AND SWAP1 PUSH1 0x20 ADD SWAP1 SWAP3 SWAP2 SWAP1 POP POP POP PUSH2 0xDB9 JUMP JUMPDEST STOP JUMPDEST PUSH1 0x8 DUP2 DUP2 SLOAD DUP2 LT ISZERO ISZERO PUSH2 0x582 JUMPI INVALID JUMPDEST SWAP1 PUSH1 0x0 MSTORE PUSH1 0x20 PUSH1 0x0 KECCAK256 SWAP1 PUSH1 0x2 MUL ADD PUSH1 0x0 SWAP2 POP SWAP1 POP DUP1 PUSH1 0x0 ADD DUP1 SLOAD PUSH1 0x1 DUP2 PUSH1 0x1 AND ISZERO PUSH2 0x100 MUL SUB AND PUSH1 0x2 SWAP1 DIV DUP1 PUSH1 0x1F ADD PUSH1 0x20 DUP1 SWAP2 DIV MUL PUSH1 0x20 ADD PUSH1 0x40 MLOAD SWAP1 DUP2 ADD PUSH1 0x40 MSTORE DUP1 SWAP3 SWAP2 SWAP1 DUP2 DUP2 MSTORE PUSH1 0x20 ADD DUP3 DUP1 SLOAD PUSH1 0x1 DUP2 PUSH1 0x1 AND ISZERO PUSH2 0x100 MUL SUB AND PUSH1 0x2 SWAP1 DIV DUP1 ISZERO PUSH2 0x62E JUMPI DUP1 PUSH1 0x1F LT PUSH2 0x603 JUMPI PUSH2 0x100 DUP1 DUP4 SLOAD DIV MUL DUP4 MSTORE SWAP2 PUSH1 0x20 ADD SWAP2 PUSH2 0x62E JUMP JUMPDEST DUP3 ADD SWAP2 SWAP1 PUSH1 0x0 MSTORE PUSH1 0x20 PUSH1 0x0 KECCAK256 SWAP1 JUMPDEST DUP2 SLOAD DUP2 MSTORE SWAP1 PUSH1 0x1 ADD SWAP1 PUSH1 0x20 ADD DUP1 DUP4 GT PUSH2 0x611 JUMPI DUP3 SWAP1 SUB PUSH1 0x1F AND DUP3 ADD SWAP2 JUMPDEST POP POP POP POP POP SWAP1 DUP1 PUSH1 0x1 ADD SLOAD SWAP1 POP DUP3 JUMP JUMPDEST PUSH1 0x60 DUP1 PUSH1 0x0 DUP1 PUSH1 0x6 PUSH1 0x0 DUP7 PUSH20 0xFFFFFFFFFFFFFFFFFFFFFFFFFFFFFFFFFFFFFFFF AND PUSH20 0xFFFFFFFFFFFFFFFFFFFFFFFFFFFFFFFFFFFFFFFF AND DUP2 MSTORE PUSH1 0x20 ADD SWAP1 DUP2 MSTORE PUSH1 0x20 ADD PUSH1 0x0 KECCAK256 SLOAD PUSH1 0x40 MLOAD SWAP1 DUP1 DUP3 MSTORE DUP1 PUSH1 0x20 MUL PUSH1 0x20 ADD DUP3 ADD PUSH1 0x40 MSTORE DUP1 ISZERO PUSH2 0x6B2 JUMPI DUP2 PUSH1 0x20 ADD PUSH1 0x20 DUP3 MUL DUP1 CODESIZE DUP4 CODECOPY DUP1 DUP3 ADD SWAP2 POP POP SWAP1 POP JUMPDEST POP SWAP3 POP PUSH1 0x0 SWAP2 POP PUSH1 0x0 SWAP1 POP JUMPDEST PUSH1 0x4 DUP1 SLOAD SWAP1 POP DUP2 LT ISZERO PUSH2 0x765 JUMPI DUP5 PUSH20 0xFFFFFFFFFFFFFFFFFFFFFFFFFFFFFFFFFFFFFFFF AND PUSH1 0x5 PUSH1 0x0 DUP4 DUP2 MSTORE PUSH1 0x20 ADD SWAP1 DUP2 MSTORE PUSH1 0x20 ADD PUSH1 0x0 KECCAK256 PUSH1 0x0 SWAP1 SLOAD SWAP1 PUSH2 0x100 EXP SWAP1 DIV PUSH20 0xFFFFFFFFFFFFFFFFFFFFFFFFFFFFFFFFFFFFFFFF AND PUSH20 0xFFFFFFFFFFFFFFFFFFFFFFFFFFFFFFFFFFFFFFFF AND EQ ISZERO PUSH2 0x758 JUMPI DUP1 DUP4 DUP4 DUP2 MLOAD DUP2 LT ISZERO ISZERO PUSH2 0x741 JUMPI INVALID JUMPDEST SWAP1 PUSH1 0x20 ADD SWAP1 PUSH1 0x20 MUL ADD DUP2 DUP2 MSTORE POP POP DUP2 DUP1 PUSH1 0x1 ADD SWAP3 POP POP JUMPDEST DUP1 DUP1 PUSH1 0x1 ADD SWAP2 POP POP PUSH2 0x6BE JUMP JUMPDEST DUP3 SWAP4 POP POP POP POP SWAP2 SWAP1 POP JUMP JUMPDEST PUSH1 0x4 DUP2 DUP2 SLOAD DUP2 LT ISZERO ISZERO PUSH2 0x77F JUMPI INVALID JUMPDEST SWAP1 PUSH1 0x0 MSTORE PUSH1 0x20 PUSH1 0x0 KECCAK256 SWAP1 PUSH1 0x4 MUL ADD PUSH1 0x0 SWAP2 POP SWAP1 POP DUP1 PUSH1 0x0 ADD DUP1 SLOAD PUSH1 0x1 DUP2 PUSH1 0x1 AND ISZERO PUSH2 0x100 MUL SUB AND PUSH1 0x2 SWAP1 DIV DUP1 PUSH1 0x1F ADD PUSH1 0x20 DUP1 SWAP2 DIV MUL PUSH1 0x20 ADD PUSH1 0x40 MLOAD SWAP1 DUP2 ADD PUSH1 0x40 MSTORE DUP1 SWAP3 SWAP2 SWAP1 DUP2 DUP2 MSTORE PUSH1 0x20 ADD DUP3 DUP1 SLOAD PUSH1 0x1 DUP2 PUSH1 0x1 AND ISZERO PUSH2 0x100 MUL SUB AND PUSH1 0x2 SWAP1 DIV DUP1 ISZERO PUSH2 0x82B JUMPI DUP1 PUSH1 0x1F LT PUSH2 0x800 JUMPI PUSH2 0x100 DUP1 DUP4 SLOAD DIV MUL DUP4 MSTORE SWAP2 PUSH1 0x20 ADD SWAP2 PUSH2 0x82B JUMP JUMPDEST DUP3 ADD SWAP2 SWAP1 PUSH1 0x0 MSTORE PUSH1 0x20 PUSH1 0x0 KECCAK256 SWAP1 JUMPDEST DUP2 SLOAD DUP2 MSTORE SWAP1 PUSH1 0x1 ADD SWAP1 PUSH1 0x20 ADD DUP1 DUP4 GT PUSH2 0x80E JUMPI DUP3 SWAP1 SUB PUSH1 0x1F AND DUP3 ADD SWAP2 JUMPDEST POP POP POP POP POP SWAP1 DUP1 PUSH1 0x1 ADD SLOAD SWAP1 DUP1 PUSH1 0x2 ADD SLOAD SWAP1 DUP1 PUSH1 0x3 ADD SLOAD SWAP1 POP DUP5 JUMP JUMPDEST PUSH1 0x0 DUP1 SWAP1 SLOAD SWAP1 PUSH2 0x100 EXP SWAP1 DIV PUSH20 0xFFFFFFFFFFFFFFFFFFFFFFFFFFFFFFFFFFFFFFFF AND PUSH20 0xFFFFFFFFFFFFFFFFFFFFFFFFFFFFFFFFFFFFFFFF AND CALLER PUSH20 0xFFFFFFFFFFFFFFFFFFFFFFFFFFFFFFFFFFFFFFFF AND EQ ISZERO ISZERO PUSH2 0x8A2 JUMPI PUSH1 0x0 DUP1 REVERT JUMPDEST PUSH1 0x3 PUSH1 0x0 SWAP1 SLOAD SWAP1 PUSH2 0x100 EXP SWAP1 DIV PUSH20 0xFFFFFFFFFFFFFFFFFFFFFFFFFFFFFFFFFFFFFFFF AND PUSH20 0xFFFFFFFFFFFFFFFFFFFFFFFFFFFFFFFFFFFFFFFF AND PUSH2 0x8FC ADDRESS PUSH20 0xFFFFFFFFFFFFFFFFFFFFFFFFFFFFFFFFFFFFFFFF AND BALANCE SWAP1 DUP2 ISZERO MUL SWAP1 PUSH1 0x40 MLOAD PUSH1 0x0 PUSH1 0x40 MLOAD DUP1 DUP4 SUB DUP2 DUP6 DUP9 DUP9 CALL SWAP4 POP POP POP POP ISZERO DUP1 ISZERO PUSH2 0x921 JUMPI RETURNDATASIZE PUSH1 0x0 DUP1 RETURNDATACOPY RETURNDATASIZE PUSH1 0x0 REVERT JUMPDEST POP JUMP JUMPDEST CALLER PUSH20 0xFFFFFFFFFFFFFFFFFFFFFFFFFFFFFFFFFFFFFFFF AND PUSH1 0x3 PUSH1 0x0 SWAP1 SLOAD SWAP1 PUSH2 0x100 EXP SWAP1 DIV PUSH20 0xFFFFFFFFFFFFFFFFFFFFFFFFFFFFFFFFFFFFFFFF AND PUSH20 0xFFFFFFFFFFFFFFFFFFFFFFFFFFFFFFFFFFFFFFFF AND EQ ISZERO PUSH2 0x9B5 JUMPI PUSH1 0x3 PUSH1 0x0 SWAP1 SLOAD SWAP1 PUSH2 0x100 EXP SWAP1 DIV PUSH20 0xFFFFFFFFFFFFFFFFFFFFFFFFFFFFFFFFFFFFFFFF AND PUSH20 0xFFFFFFFFFFFFFFFFFFFFFFFFFFFFFFFFFFFFFFFF AND SELFDESTRUCT JUMPDEST JUMP JUMPDEST PUSH1 0x5 PUSH1 0x20 MSTORE DUP1 PUSH1 0x0 MSTORE PUSH1 0x40 PUSH1 0x0 KECCAK256 PUSH1 0x0 SWAP2 POP SLOAD SWAP1 PUSH2 0x100 EXP SWAP1 DIV PUSH20 0xFFFFFFFFFFFFFFFFFFFFFFFFFFFFFFFFFFFFFFFF AND DUP2 JUMP JUMPDEST PUSH1 0x0 DUP1 SWAP1 SLOAD SWAP1 PUSH2 0x100 EXP SWAP1 DIV PUSH20 0xFFFFFFFFFFFFFFFFFFFFFFFFFFFFFFFFFFFFFFFF AND DUP2 JUMP JUMPDEST PUSH1 0x0 DUP1 SWAP1 SLOAD SWAP1 PUSH2 0x100 EXP SWAP1 DIV PUSH20 0xFFFFFFFFFFFFFFFFFFFFFFFFFFFFFFFFFFFFFFFF AND PUSH20 0xFFFFFFFFFFFFFFFFFFFFFFFFFFFFFFFFFFFFFFFF AND CALLER PUSH20 0xFFFFFFFFFFFFFFFFFFFFFFFFFFFFFFFFFFFFFFFF AND EQ ISZERO ISZERO PUSH2 0xA6A JUMPI PUSH1 0x0 DUP1 REVERT JUMPDEST DUP1 PUSH1 0x7 DUP2 SWAP1 SSTORE POP POP JUMP JUMPDEST PUSH1 0x14 DUP3 DUP2 PUSH1 0x4 DUP3 DUP2 SLOAD DUP2 LT ISZERO ISZERO PUSH2 0xA87 JUMPI INVALID JUMPDEST SWAP1 PUSH1 0x0 MSTORE PUSH1 0x20 PUSH1 0x0 KECCAK256 SWAP1 PUSH1 0x4 MUL ADD PUSH1 0x3 ADD SLOAD LT ISZERO ISZERO ISZERO PUSH2 0xAA6 JUMPI PUSH1 0x0 DUP1 REVERT JUMPDEST DUP4 PUSH1 0x5 PUSH1 0x0 DUP3 DUP2 MSTORE PUSH1 0x20 ADD SWAP1 DUP2 MSTORE PUSH1 0x20 ADD PUSH1 0x0 KECCAK256 PUSH1 0x0 SWAP1 SLOAD SWAP1 PUSH2 0x100 EXP SWAP1 DIV PUSH20 0xFFFFFFFFFFFFFFFFFFFFFFFFFFFFFFFFFFFFFFFF AND PUSH20 0xFFFFFFFFFFFFFFFFFFFFFFFFFFFFFFFFFFFFFFFF AND CALLER PUSH20 0xFFFFFFFFFFFFFFFFFFFFFFFFFFFFFFFFFFFFFFFF AND EQ ISZERO ISZERO PUSH2 0xB14 JUMPI PUSH1 0x0 DUP1 REVERT JUMPDEST DUP4 PUSH1 0x4 DUP7 DUP2 SLOAD DUP2 LT ISZERO ISZERO PUSH2 0xB24 JUMPI INVALID JUMPDEST SWAP1 PUSH1 0x0 MSTORE PUSH1 0x20 PUSH1 0x0 KECCAK256 SWAP1 PUSH1 0x4 MUL ADD PUSH1 0x1 ADD DUP2 SWAP1 SSTORE POP POP POP POP POP POP JUMP JUMPDEST PUSH1 0x7 SLOAD CALLVALUE EQ ISZERO ISZERO PUSH2 0xB50 JUMPI PUSH1 0x0 DUP1 REVERT JUMPDEST PUSH1 0x4 DUP2 DUP2 SLOAD DUP2 LT ISZERO ISZERO PUSH2 0xB5F JUMPI INVALID JUMPDEST SWAP1 PUSH1 0x0 MSTORE PUSH1 0x20 PUSH1 0x0 KECCAK256 SWAP1 PUSH1 0x4 MUL ADD PUSH1 0x2 ADD PUSH1 0x0 DUP2 SLOAD DUP1 SWAP3 SWAP2 SWAP1 PUSH1 0x1 ADD SWAP2 SWAP1 POP SSTORE POP POP JUMP JUMPDEST PUSH1 0x2 DUP4 DUP2 PUSH1 0x4 DUP3 DUP2 SLOAD DUP2 LT ISZERO ISZERO PUSH2 0xB96 JUMPI INVALID JUMPDEST SWAP1 PUSH1 0x0 MSTORE PUSH1 0x20 PUSH1 0x0 KECCAK256 SWAP1 PUSH1 0x4 MUL ADD PUSH1 0x3 ADD SLOAD LT ISZERO ISZERO ISZERO PUSH2 0xBB5 JUMPI PUSH1 0x0 DUP1 REVERT JUMPDEST DUP5 PUSH1 0x5 PUSH1 0x0 DUP3 DUP2 MSTORE PUSH1 0x20 ADD SWAP1 DUP2 MSTORE PUSH1 0x20 ADD PUSH1 0x0 KECCAK256 PUSH1 0x0 SWAP1 SLOAD SWAP1 PUSH2 0x100 EXP SWAP1 DIV PUSH20 0xFFFFFFFFFFFFFFFFFFFFFFFFFFFFFFFFFFFFFFFF AND PUSH20 0xFFFFFFFFFFFFFFFFFFFFFFFFFFFFFFFFFFFFFFFF AND CALLER PUSH20 0xFFFFFFFFFFFFFFFFFFFFFFFFFFFFFFFFFFFFFFFF AND EQ ISZERO ISZERO PUSH2 0xC23 JUMPI PUSH1 0x0 DUP1 REVERT JUMPDEST DUP5 DUP5 PUSH1 0x4 DUP9 DUP2 SLOAD DUP2 LT ISZERO ISZERO PUSH2 0xC34 JUMPI INVALID JUMPDEST SWAP1 PUSH1 0x0 MSTORE PUSH1 0x20 PUSH1 0x0 KECCAK256 SWAP1 PUSH1 0x4 MUL ADD PUSH1 0x0 ADD SWAP2 SWAP1 PUSH2 0xC52 SWAP3 SWAP2 SWAP1 PUSH2 0x1204 JUMP JUMPDEST POP POP POP POP POP POP POP JUMP JUMPDEST PUSH1 0x0 DUP1 PUSH1 0x6 PUSH1 0x0 CALLER PUSH20 0xFFFFFFFFFFFFFFFFFFFFFFFFFFFFFFFFFFFFFFFF AND PUSH20 0xFFFFFFFFFFFFFFFFFFFFFFFFFFFFFFFFFFFFFFFF AND DUP2 MSTORE PUSH1 0x20 ADD SWAP1 DUP2 MSTORE PUSH1 0x20 ADD PUSH1 0x0 KECCAK256 SLOAD EQ ISZERO ISZERO PUSH2 0xCAA JUMPI PUSH1 0x0 DUP1 REVERT JUMPDEST PUSH2 0xCB3 DUP3 PUSH2 0xF0E JUMP JUMPDEST SWAP1 POP PUSH1 0x64 DUP2 DUP2 ISZERO ISZERO PUSH2 0xCC1 JUMPI INVALID JUMPDEST MOD DUP2 SUB SWAP1 POP PUSH2 0xCD0 DUP3 DUP3 PUSH2 0xF90 JUMP JUMPDEST POP POP JUMP JUMPDEST PUSH1 0x0 DUP1 PUSH1 0x0 DUP5 PUSH1 0x5 PUSH1 0x0 DUP3 DUP2 MSTORE PUSH1 0x20 ADD SWAP1 DUP2 MSTORE PUSH1 0x20 ADD PUSH1 0x0 KECCAK256 PUSH1 0x0 SWAP1 SLOAD SWAP1 PUSH2 0x100 EXP SWAP1 DIV PUSH20 0xFFFFFFFFFFFFFFFFFFFFFFFFFFFFFFFFFFFFFFFF AND PUSH20 0xFFFFFFFFFFFFFFFFFFFFFFFFFFFFFFFFFFFFFFFF AND CALLER PUSH20 0xFFFFFFFFFFFFFFFFFFFFFFFFFFFFFFFFFFFFFFFF AND EQ ISZERO ISZERO PUSH2 0xD47 JUMPI PUSH1 0x0 DUP1 REVERT JUMPDEST PUSH1 0x4 DUP7 DUP2 SLOAD DUP2 LT ISZERO ISZERO PUSH2 0xD56 JUMPI INVALID JUMPDEST SWAP1 PUSH1 0x0 MSTORE PUSH1 0x20 PUSH1 0x0 KECCAK256 SWAP1 PUSH1 0x4 MUL ADD SWAP4 POP PUSH1 0x8 DUP6 DUP2 SLOAD DUP2 LT ISZERO ISZERO PUSH2 0xD75 JUMPI INVALID JUMPDEST SWAP1 PUSH1 0x0 MSTORE PUSH1 0x20 PUSH1 0x0 KECCAK256 SWAP1 PUSH1 0x2 MUL ADD SWAP3 POP PUSH2 0xD8F PUSH1 0x64 PUSH2 0x1177 JUMP JUMPDEST SWAP2 POP PUSH1 0xA SLOAD DUP3 GT ISZERO ISZERO PUSH2 0xDB1 JUMPI DUP4 PUSH1 0x3 ADD PUSH1 0x0 DUP2 SLOAD DUP1 SWAP3 SWAP2 SWAP1 PUSH1 0x1 ADD SWAP2 SWAP1 POP SSTORE POP JUMPDEST POP POP POP POP POP POP JUMP JUMPDEST PUSH1 0x0 DUP1 SWAP1 SLOAD SWAP1 PUSH2 0x100 EXP SWAP1 DIV PUSH20 0xFFFFFFFFFFFFFFFFFFFFFFFFFFFFFFFFFFFFFFFF AND PUSH20 0xFFFFFFFFFFFFFFFFFFFFFFFFFFFFFFFFFFFFFFFF AND CALLER PUSH20 0xFFFFFFFFFFFFFFFFFFFFFFFFFFFFFFFFFFFFFFFF AND EQ ISZERO ISZERO PUSH2 0xE14 JUMPI PUSH1 0x0 DUP1 REVERT JUMPDEST PUSH1 0x0 PUSH20 0xFFFFFFFFFFFFFFFFFFFFFFFFFFFFFFFFFFFFFFFF AND DUP2 PUSH20 0xFFFFFFFFFFFFFFFFFFFFFFFFFFFFFFFFFFFFFFFF AND EQ ISZERO ISZERO ISZERO PUSH2 0xE50 JUMPI PUSH1 0x0 DUP1 REVERT JUMPDEST DUP1 PUSH20 0xFFFFFFFFFFFFFFFFFFFFFFFFFFFFFFFFFFFFFFFF AND PUSH1 0x0 DUP1 SWAP1 SLOAD SWAP1 PUSH2 0x100 EXP SWAP1 DIV PUSH20 0xFFFFFFFFFFFFFFFFFFFFFFFFFFFFFFFFFFFFFFFF AND PUSH20 0xFFFFFFFFFFFFFFFFFFFFFFFFFFFFFFFFFFFFFFFF AND PUSH32 0x8BE0079C531659141344CD1FD0A4F28419497F9722A3DAAFE3B4186F6B6457E0 PUSH1 0x40 MLOAD PUSH1 0x40 MLOAD DUP1 SWAP2 SUB SWAP1 LOG3 DUP1 PUSH1 0x0 DUP1 PUSH2 0x100 EXP DUP2 SLOAD DUP2 PUSH20 0xFFFFFFFFFFFFFFFFFFFFFFFFFFFFFFFFFFFFFFFF MUL NOT AND SWAP1 DUP4 PUSH20 0xFFFFFFFFFFFFFFFFFFFFFFFFFFFFFFFFFFFFFFFF AND MUL OR SWAP1 SSTORE POP POP JUMP JUMPDEST PUSH1 0x0 DUP1 DUP3 PUSH1 0x40 MLOAD DUP1 DUP3 DUP1 MLOAD SWAP1 PUSH1 0x20 ADD SWAP1 DUP1 DUP4 DUP4 JUMPDEST PUSH1 0x20 DUP4 LT ISZERO ISZERO PUSH2 0xF47 JUMPI DUP1 MLOAD DUP3 MSTORE PUSH1 0x20 DUP3 ADD SWAP2 POP PUSH1 0x20 DUP2 ADD SWAP1 POP PUSH1 0x20 DUP4 SUB SWAP3 POP PUSH2 0xF22 JUMP JUMPDEST PUSH1 0x1 DUP4 PUSH1 0x20 SUB PUSH2 0x100 EXP SUB DUP1 NOT DUP3 MLOAD AND DUP2 DUP5 MLOAD AND DUP1 DUP3 OR DUP6 MSTORE POP POP POP POP POP POP SWAP1 POP ADD SWAP2 POP POP PUSH1 0x40 MLOAD DUP1 SWAP2 SUB SWAP1 KECCAK256 PUSH1 0x1 SWAP1 DIV SWAP1 POP PUSH1 0x2 SLOAD DUP2 DUP2 ISZERO ISZERO PUSH2 0xF87 JUMPI INVALID JUMPDEST MOD SWAP2 POP POP SWAP2 SWAP1 POP JUMP JUMPDEST PUSH1 0x0 PUSH1 0x1 PUSH1 0x4 PUSH1 0x80 PUSH1 0x40 MLOAD SWAP1 DUP2 ADD PUSH1 0x40 MSTORE DUP1 DUP7 DUP2 MSTORE PUSH1 0x20 ADD DUP6 DUP2 MSTORE PUSH1 0x20 ADD PUSH1 0x1 DUP2 MSTORE PUSH1 0x20 ADD PUSH1 0x0 DUP2 MSTORE POP SWAP1 DUP1 PUSH1 0x1 DUP2 SLOAD ADD DUP1 DUP3 SSTORE DUP1 SWAP2 POP POP SWAP1 PUSH1 0x1 DUP3 SUB SWAP1 PUSH1 0x0 MSTORE PUSH1 0x20 PUSH1 0x0 KECCAK256 SWAP1 PUSH1 0x4 MUL ADD PUSH1 0x0 SWAP1 SWAP2 SWAP3 SWAP1 SWAP2 SWAP1 SWAP2 POP PUSH1 0x0 DUP3 ADD MLOAD DUP2 PUSH1 0x0 ADD SWAP1 DUP1 MLOAD SWAP1 PUSH1 0x20 ADD SWAP1 PUSH2 0x1001 SWAP3 SWAP2 SWAP1 PUSH2 0x1284 JUMP JUMPDEST POP PUSH1 0x20 DUP3 ADD MLOAD DUP2 PUSH1 0x1 ADD SSTORE PUSH1 0x40 DUP3 ADD MLOAD DUP2 PUSH1 0x2 ADD SSTORE PUSH1 0x60 DUP3 ADD MLOAD DUP2 PUSH1 0x3 ADD SSTORE POP POP SUB SWAP1 POP CALLER PUSH1 0x5 PUSH1 0x0 DUP4 DUP2 MSTORE PUSH1 0x20 ADD SWAP1 DUP2 MSTORE PUSH1 0x20 ADD PUSH1 0x0 KECCAK256 PUSH1 0x0 PUSH2 0x100 EXP DUP2 SLOAD DUP2 PUSH20 0xFFFFFFFFFFFFFFFFFFFFFFFFFFFFFFFFFFFFFFFF MUL NOT AND SWAP1 DUP4 PUSH20 0xFFFFFFFFFFFFFFFFFFFFFFFFFFFFFFFFFFFFFFFF AND MUL OR SWAP1 SSTORE POP PUSH1 0x6 PUSH1 0x0 CALLER PUSH20 0xFFFFFFFFFFFFFFFFFFFFFFFFFFFFFFFFFFFFFFFF AND PUSH20 0xFFFFFFFFFFFFFFFFFFFFFFFFFFFFFFFFFFFFFFFF AND DUP2 MSTORE PUSH1 0x20 ADD SWAP1 DUP2 MSTORE PUSH1 0x20 ADD PUSH1 0x0 KECCAK256 PUSH1 0x0 DUP2 SLOAD DUP1 SWAP3 SWAP2 SWAP1 PUSH1 0x1 ADD SWAP2 SWAP1 POP SSTORE POP PUSH32 0xCB5C019DF3D46F8FB328DB304BCF1718AF383E0EEA729499EA9C5205C5A99C69 DUP2 DUP5 DUP5 PUSH1 0x40 MLOAD DUP1 DUP5 DUP2 MSTORE PUSH1 0x20 ADD DUP1 PUSH1 0x20 ADD DUP4 DUP2 MSTORE PUSH1 0x20 ADD DUP3 DUP2 SUB DUP3 MSTORE DUP5 DUP2 DUP2 MLOAD DUP2 MSTORE PUSH1 0x20 ADD SWAP2 POP DUP1 MLOAD SWAP1 PUSH1 0x20 ADD SWAP1 DUP1 DUP4 DUP4 PUSH1 0x0 JUMPDEST DUP4 DUP2 LT ISZERO PUSH2 0x1136 JUMPI DUP1 DUP3 ADD MLOAD DUP2 DUP5 ADD MSTORE PUSH1 0x20 DUP2 ADD SWAP1 POP PUSH2 0x111B JUMP JUMPDEST POP POP POP POP SWAP1 POP SWAP1 DUP2 ADD SWAP1 PUSH1 0x1F AND DUP1 ISZERO PUSH2 0x1163 JUMPI DUP1 DUP3 SUB DUP1 MLOAD PUSH1 0x1 DUP4 PUSH1 0x20 SUB PUSH2 0x100 EXP SUB NOT AND DUP2 MSTORE PUSH1 0x20 ADD SWAP2 POP JUMPDEST POP SWAP5 POP POP POP POP POP PUSH1 0x40 MLOAD DUP1 SWAP2 SUB SWAP1 LOG1 POP POP POP JUMP JUMPDEST PUSH1 0x0 PUSH1 0x9 PUSH1 0x0 DUP2 SLOAD DUP1 SWAP3 SWAP2 SWAP1 PUSH1 0x1 ADD SWAP2 SWAP1 POP SSTORE POP DUP2 TIMESTAMP CALLER PUSH1 0x9 SLOAD PUSH1 0x40 MLOAD DUP1 DUP5 DUP2 MSTORE PUSH1 0x20 ADD DUP4 PUSH20 0xFFFFFFFFFFFFFFFFFFFFFFFFFFFFFFFFFFFFFFFF AND PUSH20 0xFFFFFFFFFFFFFFFFFFFFFFFFFFFFFFFFFFFFFFFF AND PUSH13 0x1000000000000000000000000 MUL DUP2 MSTORE PUSH1 0x14 ADD DUP3 DUP2 MSTORE PUSH1 0x20 ADD SWAP4 POP POP POP POP PUSH1 0x40 MLOAD DUP1 SWAP2 SUB SWAP1 KECCAK256 PUSH1 0x1 SWAP1 DIV DUP2 ISZERO ISZERO PUSH2 0x11FC JUMPI INVALID JUMPDEST MOD SWAP1 POP SWAP2 SWAP1 POP JUMP JUMPDEST DUP3 DUP1 SLOAD PUSH1 0x1 DUP2 PUSH1 0x1 AND ISZERO PUSH2 0x100 MUL SUB AND PUSH1 0x2 SWAP1 DIV SWAP1 PUSH1 0x0 MSTORE PUSH1 0x20 PUSH1 0x0 KECCAK256 SWAP1 PUSH1 0x1F ADD PUSH1 0x20 SWAP1 DIV DUP2 ADD SWAP3 DUP3 PUSH1 0x1F LT PUSH2 0x1245 JUMPI DUP1 CALLDATALOAD PUSH1 0xFF NOT AND DUP4 DUP1 ADD OR DUP6 SSTORE PUSH2 0x1273 JUMP JUMPDEST DUP3 DUP1 ADD PUSH1 0x1 ADD DUP6 SSTORE DUP3 ISZERO PUSH2 0x1273 JUMPI SWAP2 DUP3 ADD JUMPDEST DUP3 DUP2 GT ISZERO PUSH2 0x1272 JUMPI DUP3 CALLDATALOAD DUP3 SSTORE SWAP2 PUSH1 0x20 ADD SWAP2 SWAP1 PUSH1 0x1 ADD SWAP1 PUSH2 0x1257 JUMP JUMPDEST JUMPDEST POP SWAP1 POP PUSH2 0x1280 SWAP2 SWAP1 PUSH2 0x1304 JUMP JUMPDEST POP SWAP1 JUMP JUMPDEST DUP3 DUP1 SLOAD PUSH1 0x1 DUP2 PUSH1 0x1 AND ISZERO PUSH2 0x100 MUL SUB AND PUSH1 0x2 SWAP1 DIV SWAP1 PUSH1 0x0 MSTORE PUSH1 0x20 PUSH1 0x0 KECCAK256 SWAP1 PUSH1 0x1F ADD PUSH1 0x20 SWAP1 DIV DUP2 ADD SWAP3 DUP3 PUSH1 0x1F LT PUSH2 0x12C5 JUMPI DUP1 MLOAD PUSH1 0xFF NOT AND DUP4 DUP1 ADD OR DUP6 SSTORE PUSH2 0x12F3 JUMP JUMPDEST DUP3 DUP1 ADD PUSH1 0x1 ADD DUP6 SSTORE DUP3 ISZERO PUSH2 0x12F3 JUMPI SWAP2 DUP3 ADD JUMPDEST DUP3 DUP2 GT ISZERO PUSH2 0x12F2 JUMPI DUP3 MLOAD DUP3 SSTORE SWAP2 PUSH1 0x20 ADD SWAP2 SWAP1 PUSH1 0x1 ADD SWAP1 PUSH2 0x12D7 JUMP JUMPDEST JUMPDEST POP SWAP1 POP PUSH2 0x1300 SWAP2 SWAP1 PUSH2 0x1304 JUMP JUMPDEST POP SWAP1 JUMP JUMPDEST PUSH2 0x1326 SWAP2 SWAP1 JUMPDEST DUP1 DUP3 GT ISZERO PUSH2 0x1322 JUMPI PUSH1 0x0 DUP2 PUSH1 0x0 SWAP1 SSTORE POP PUSH1 0x1 ADD PUSH2 0x130A JUMP JUMPDEST POP SWAP1 JUMP JUMPDEST SWAP1 JUMP STOP LOG1 PUSH6 0x627A7A723058 KECCAK256 0xed 0x48 SWAP11 0xcc 0xd0 0xe4 DUP2 SELFDESTRUCT 0xf9 0xcd 0xe0 0xb9 STATICCALL 0x5e CALLCODE SWAP5 0xf 0xb6 SWAP4 0xe8 0x1f 0xbe ISZERO PUSH5 0x55F976EAFB DUP12 0x5f 0xc9 STOP 0x29 "
				},
				"gasEstimates": {
					"creation": {
						"codeDepositCost": "989800",
						"executionCost": "126828",
						"totalCost": "1116628"
					},
					"external": {
						"changeName(uint256,string)": "infinite",
						"changeRna(uint256,uint256)": "21617",
						"createRandomVaccine(string)": "infinite",
						"getVaccinesByOwner(address)": "infinite",
						"kill()": "30729",
						"owner()": "574",
						"powerUp(uint256)": "21133",
						"setPowerUpFee(uint256)": "20635",
						"test(uint256,uint256)": "42637",
						"transferOwnership(address)": "22851",
						"vaccineToOwner(uint256)": "673",
						"vaccines(uint256)": "infinite",
						"viruses(uint256)": "infinite",
						"withdraw()": "infinite"
					},
					"internal": {
						"randMod(uint256)": "infinite"
					}
				},
				"methodIdentifiers": {
					"changeName(uint256,string)": "c39cbef1",
					"changeRna(uint256,uint256)": "934c4649",
					"createRandomVaccine(string)": "e8d57580",
					"getVaccinesByOwner(address)": "2dc49fb6",
					"kill()": "41c0e1b5",
					"owner()": "8da5cb5b",
					"powerUp(uint256)": "9a6bd379",
					"setPowerUpFee(uint256)": "90b0722e",
					"test(uint256,uint256)": "eb8ac921",
					"transferOwnership(address)": "f2fde38b",
					"vaccineToOwner(uint256)": "527c382f",
					"vaccines(uint256)": "300e88bd",
					"viruses(uint256)": "1bb57b96",
					"withdraw()": "3ccfd60b"
				}
			},
			"userdoc": {
				"methods": {}
			}
		}
	}
}