{
	"contracts/vaccineHelper.sol": {
		"VaccineHelper": {
			"abi": [
				{
					"constant": true,
					"inputs": [
						{
							"name": "_owner",
							"type": "address"
						}
					],
					"name": "getVaccinesByOwner",
					"outputs": [
						{
							"name": "",
							"type": "uint256[]"
						}
					],
					"payable": false,
					"stateMutability": "view",
					"type": "function"
				},
				{
					"constant": true,
					"inputs": [
						{
							"name": "",
							"type": "uint256"
						}
					],
					"name": "vaccines",
					"outputs": [
						{
							"name": "name",
							"type": "string"
						},
						{
							"name": "rna",
							"type": "uint256"
						},
						{
							"name": "power",
							"type": "uint256"
						},
						{
							"name": "cures",
							"type": "uint256"
						}
					],
					"payable": false,
					"stateMutability": "view",
					"type": "function"
				},
				{
					"constant": false,
					"inputs": [],
					"name": "withdraw",
					"outputs": [],
					"payable": false,
					"stateMutability": "nonpayable",
					"type": "function"
				},
				{
					"constant": false,
					"inputs": [],
					"name": "kill",
					"outputs": [],
					"payable": false,
					"stateMutability": "nonpayable",
					"type": "function"
				},
				{
					"constant": true,
					"inputs": [
						{
							"name": "",
							"type": "uint256"
						}
					],
					"name": "vaccineToOwner",
					"outputs": [
						{
							"name": "",
							"type": "address"
						}
					],
					"payable": false,
					"stateMutability": "view",
					"type": "function"
				},
				{
					"constant": true,
					"inputs": [],
					"name": "owner",
					"outputs": [
						{
							"name": "",
							"type": "address"
						}
					],
					"payable": false,
					"stateMutability": "view",
					"type": "function"
				},
				{
					"constant": false,
					"inputs": [
						{
							"name": "_fee",
							"type": "uint256"
						}
					],
					"name": "setPowerUpFee",
					"outputs": [],
					"payable": false,
					"stateMutability": "nonpayable",
					"type": "function"
				},
				{
					"constant": false,
					"inputs": [],
					"name": "check",
					"outputs": [
						{
							"name": "",
							"type": "uint256"
						}
					],
					"payable": false,
					"stateMutability": "nonpayable",
					"type": "function"
				},
				{
					"constant": false,
					"inputs": [
						{
							"name": "_vaccineID",
							"type": "uint256"
						},
						{
							"name": "_newRna",
							"type": "uint256"
						}
					],
					"name": "changeRna",
					"outputs": [],
					"payable": false,
					"stateMutability": "nonpayable",
					"type": "function"
				},
				{
					"constant": false,
					"inputs": [
						{
							"name": "_vaccineID",
							"type": "uint256"
						}
					],
					"name": "powerUp",
					"outputs": [],
					"payable": true,
					"stateMutability": "payable",
					"type": "function"
				},
				{
					"constant": false,
					"inputs": [],
					"name": "whoRU",
					"outputs": [
						{
							"name": "",
							"type": "address"
						}
					],
					"payable": false,
					"stateMutability": "nonpayable",
					"type": "function"
				},
				{
					"constant": false,
					"inputs": [
						{
							"name": "_vaccineID",
							"type": "uint256"
						},
						{
							"name": "_newName",
							"type": "string"
						}
					],
					"name": "changeName",
					"outputs": [],
					"payable": false,
					"stateMutability": "nonpayable",
					"type": "function"
				},
				{
					"constant": false,
					"inputs": [
						{
							"name": "_name",
							"type": "string"
						}
					],
					"name": "createRandomVaccine",
					"outputs": [],
					"payable": false,
					"stateMutability": "nonpayable",
					"type": "function"
				},
				{
					"constant": false,
					"inputs": [
						{
							"name": "newOwner",
							"type": "address"
						}
					],
					"name": "transferOwnership",
					"outputs": [],
					"payable": false,
					"stateMutability": "nonpayable",
					"type": "function"
				},
				{
					"anonymous": false,
					"inputs": [
						{
							"indexed": false,
							"name": "vaccineID",
							"type": "uint256"
						},
						{
							"indexed": false,
							"name": "name",
							"type": "string"
						},
						{
							"indexed": false,
							"name": "rna",
							"type": "uint256"
						}
					],
					"name": "newVaccine",
					"type": "event"
				},
				{
					"anonymous": false,
					"inputs": [
						{
							"indexed": true,
							"name": "previousOwner",
							"type": "address"
						},
						{
							"indexed": true,
							"name": "newOwner",
							"type": "address"
						}
					],
					"name": "OwnershipTransferred",
					"type": "event"
				}
			],
			"devdoc": {
				"methods": {}
			},
			"evm": {
				"assembly": "    /* \"contracts/vaccineHelper.sol\":62:1587  contract VaccineHelper is VaccineFactory {\r... */\n  mstore(0x40, 0x80)\n    /* \"contracts/vaccineFactory.sol\":175:177  16 */\n  0x10\n    /* \"contracts/vaccineFactory.sol\":158:177  uint rnaDigits = 16 */\n  0x1\n  sstore\n    /* \"contracts/vaccineFactory.sol\":208:217  rnaDigits */\n  sload(0x1)\n    /* \"contracts/vaccineFactory.sol\":202:204  10 */\n  0xa\n    /* \"contracts/vaccineFactory.sol\":202:217  10 ** rnaDigits */\n  exp\n    /* \"contracts/vaccineFactory.sol\":184:217  uint rnaModulus = 10 ** rnaDigits */\n  0x2\n  sstore\n    /* \"contracts/vaccineHelper.sol\":390:402  0.0001 ether */\n  0x5af3107a4000\n    /* \"contracts/vaccineHelper.sol\":372:402  uint powerUpFee = 0.0001 ether */\n  0x7\n  sstore\n    /* \"contracts/ownable.sol\":220:230  msg.sender */\n  caller\n    /* \"contracts/ownable.sol\":212:217  owner */\n  0x0\n  dup1\n    /* \"contracts/ownable.sol\":212:230  owner = msg.sender */\n  0x100\n  exp\n  dup2\n  sload\n  dup2\n  0xffffffffffffffffffffffffffffffffffffffff\n  mul\n  not\n  and\n  swap1\n  dup4\n  0xffffffffffffffffffffffffffffffffffffffff\n  and\n  mul\n  or\n  swap1\n  sstore\n  pop\n    /* \"contracts/vaccineFactory.sol\":293:303  msg.sender */\n  caller\n    /* \"contracts/vaccineFactory.sol\":285:290  owner */\n  0x3\n  0x0\n    /* \"contracts/vaccineFactory.sol\":285:303  owner = msg.sender */\n  0x100\n  exp\n  dup2\n  sload\n  dup2\n  0xffffffffffffffffffffffffffffffffffffffff\n  mul\n  not\n  and\n  swap1\n  dup4\n  0xffffffffffffffffffffffffffffffffffffffff\n  and\n  mul\n  or\n  swap1\n  sstore\n  pop\n    /* \"contracts/vaccineHelper.sol\":62:1587  contract VaccineHelper is VaccineFactory {\r... */\n  dataSize(sub_0)\n  dup1\n  dataOffset(sub_0)\n  0x0\n  codecopy\n  0x0\n  return\nstop\n\nsub_0: assembly {\n        /* \"contracts/vaccineHelper.sol\":62:1587  contract VaccineHelper is VaccineFactory {\r... */\n      mstore(0x40, 0x80)\n      jumpi(tag_1, lt(calldatasize, 0x4))\n      calldataload(0x0)\n      0x100000000000000000000000000000000000000000000000000000000\n      swap1\n      div\n      0xffffffff\n      and\n      dup1\n      0x2dc49fb6\n      eq\n      tag_2\n      jumpi\n      dup1\n      0x300e88bd\n      eq\n      tag_3\n      jumpi\n      dup1\n      0x3ccfd60b\n      eq\n      tag_4\n      jumpi\n      dup1\n      0x41c0e1b5\n      eq\n      tag_5\n      jumpi\n      dup1\n      0x527c382f\n      eq\n      tag_6\n      jumpi\n      dup1\n      0x8da5cb5b\n      eq\n      tag_7\n      jumpi\n      dup1\n      0x90b0722e\n      eq\n      tag_8\n      jumpi\n      dup1\n      0x919840ad\n      eq\n      tag_9\n      jumpi\n      dup1\n      0x934c4649\n      eq\n      tag_10\n      jumpi\n      dup1\n      0x9a6bd379\n      eq\n      tag_11\n      jumpi\n      dup1\n      0xbee50cb4\n      eq\n      tag_12\n      jumpi\n      dup1\n      0xc39cbef1\n      eq\n      tag_13\n      jumpi\n      dup1\n      0xe8d57580\n      eq\n      tag_14\n      jumpi\n      dup1\n      0xf2fde38b\n      eq\n      tag_15\n      jumpi\n    tag_1:\n      0x0\n      dup1\n      revert\n        /* \"contracts/vaccineHelper.sol\":1186:1584  function getVaccinesByOwner(address _owner) external view returns(uint[]) {\r... */\n    tag_2:\n      callvalue\n        /* \"--CODEGEN--\":8:17   */\n      dup1\n        /* \"--CODEGEN--\":5:7   */\n      iszero\n      tag_16\n      jumpi\n        /* \"--CODEGEN--\":30:31   */\n      0x0\n        /* \"--CODEGEN--\":27:28   */\n      dup1\n        /* \"--CODEGEN--\":20:32   */\n      revert\n        /* \"--CODEGEN--\":5:7   */\n    tag_16:\n        /* \"contracts/vaccineHelper.sol\":1186:1584  function getVaccinesByOwner(address _owner) external view returns(uint[]) {\r... */\n      pop\n      tag_17\n      0x4\n      dup1\n      calldatasize\n      sub\n      dup2\n      add\n      swap1\n      dup1\n      dup1\n      calldataload\n      0xffffffffffffffffffffffffffffffffffffffff\n      and\n      swap1\n      0x20\n      add\n      swap1\n      swap3\n      swap2\n      swap1\n      pop\n      pop\n      pop\n      jump(tag_18)\n    tag_17:\n      mload(0x40)\n      dup1\n      dup1\n      0x20\n      add\n      dup3\n      dup2\n      sub\n      dup3\n      mstore\n      dup4\n      dup2\n      dup2\n      mload\n      dup2\n      mstore\n      0x20\n      add\n      swap2\n      pop\n      dup1\n      mload\n      swap1\n      0x20\n      add\n      swap1\n      0x20\n      mul\n      dup1\n      dup4\n      dup4\n        /* \"--CODEGEN--\":23:24   */\n      0x0\n        /* \"--CODEGEN--\":8:108   */\n    tag_19:\n        /* \"--CODEGEN--\":33:36   */\n      dup4\n        /* \"--CODEGEN--\":30:31   */\n      dup2\n        /* \"--CODEGEN--\":27:37   */\n      lt\n        /* \"--CODEGEN--\":8:108   */\n      iszero\n      tag_20\n      jumpi\n        /* \"--CODEGEN--\":99:100   */\n      dup1\n        /* \"--CODEGEN--\":94:97   */\n      dup3\n        /* \"--CODEGEN--\":90:101   */\n      add\n        /* \"--CODEGEN--\":84:102   */\n      mload\n        /* \"--CODEGEN--\":80:81   */\n      dup2\n        /* \"--CODEGEN--\":75:78   */\n      dup5\n        /* \"--CODEGEN--\":71:82   */\n      add\n        /* \"--CODEGEN--\":64:103   */\n      mstore\n        /* \"--CODEGEN--\":52:54   */\n      0x20\n        /* \"--CODEGEN--\":49:50   */\n      dup2\n        /* \"--CODEGEN--\":45:55   */\n      add\n        /* \"--CODEGEN--\":40:55   */\n      swap1\n      pop\n        /* \"--CODEGEN--\":8:108   */\n      jump(tag_19)\n    tag_20:\n        /* \"--CODEGEN--\":12:26   */\n      pop\n        /* \"contracts/vaccineHelper.sol\":1186:1584  function getVaccinesByOwner(address _owner) external view returns(uint[]) {\r... */\n      pop\n      pop\n      pop\n      swap1\n      pop\n      add\n      swap3\n      pop\n      pop\n      pop\n      mload(0x40)\n      dup1\n      swap2\n      sub\n      swap1\n      return\n        /* \"contracts/vaccineFactory.sol\":433:458  Vaccine[] public vaccines */\n    tag_3:\n      callvalue\n        /* \"--CODEGEN--\":8:17   */\n      dup1\n        /* \"--CODEGEN--\":5:7   */\n      iszero\n      tag_22\n      jumpi\n        /* \"--CODEGEN--\":30:31   */\n      0x0\n        /* \"--CODEGEN--\":27:28   */\n      dup1\n        /* \"--CODEGEN--\":20:32   */\n      revert\n        /* \"--CODEGEN--\":5:7   */\n    tag_22:\n        /* \"contracts/vaccineFactory.sol\":433:458  Vaccine[] public vaccines */\n      pop\n      tag_23\n      0x4\n      dup1\n      calldatasize\n      sub\n      dup2\n      add\n      swap1\n      dup1\n      dup1\n      calldataload\n      swap1\n      0x20\n      add\n      swap1\n      swap3\n      swap2\n      swap1\n      pop\n      pop\n      pop\n      jump(tag_24)\n    tag_23:\n      mload(0x40)\n      dup1\n      dup1\n      0x20\n      add\n      dup6\n      dup2\n      mstore\n      0x20\n      add\n      dup5\n      dup2\n      mstore\n      0x20\n      add\n      dup4\n      dup2\n      mstore\n      0x20\n      add\n      dup3\n      dup2\n      sub\n      dup3\n      mstore\n      dup7\n      dup2\n      dup2\n      mload\n      dup2\n      mstore\n      0x20\n      add\n      swap2\n      pop\n      dup1\n      mload\n      swap1\n      0x20\n      add\n      swap1\n      dup1\n      dup4\n      dup4\n        /* \"--CODEGEN--\":23:24   */\n      0x0\n        /* \"--CODEGEN--\":8:108   */\n    tag_25:\n        /* \"--CODEGEN--\":33:36   */\n      dup4\n        /* \"--CODEGEN--\":30:31   */\n      dup2\n        /* \"--CODEGEN--\":27:37   */\n      lt\n        /* \"--CODEGEN--\":8:108   */\n      iszero\n      tag_26\n      jumpi\n        /* \"--CODEGEN--\":99:100   */\n      dup1\n        /* \"--CODEGEN--\":94:97   */\n      dup3\n        /* \"--CODEGEN--\":90:101   */\n      add\n        /* \"--CODEGEN--\":84:102   */\n      mload\n        /* \"--CODEGEN--\":80:81   */\n      dup2\n        /* \"--CODEGEN--\":75:78   */\n      dup5\n        /* \"--CODEGEN--\":71:82   */\n      add\n        /* \"--CODEGEN--\":64:103   */\n      mstore\n        /* \"--CODEGEN--\":52:54   */\n      0x20\n        /* \"--CODEGEN--\":49:50   */\n      dup2\n        /* \"--CODEGEN--\":45:55   */\n      add\n        /* \"--CODEGEN--\":40:55   */\n      swap1\n      pop\n        /* \"--CODEGEN--\":8:108   */\n      jump(tag_25)\n    tag_26:\n        /* \"--CODEGEN--\":12:26   */\n      pop\n        /* \"contracts/vaccineFactory.sol\":433:458  Vaccine[] public vaccines */\n      pop\n      pop\n      pop\n      swap1\n      pop\n      swap1\n      dup2\n      add\n      swap1\n      0x1f\n      and\n      dup1\n      iszero\n      tag_28\n      jumpi\n      dup1\n      dup3\n      sub\n      dup1\n      mload\n      0x1\n      dup4\n      0x20\n      sub\n      0x100\n      exp\n      sub\n      not\n      and\n      dup2\n      mstore\n      0x20\n      add\n      swap2\n      pop\n    tag_28:\n      pop\n      swap6\n      pop\n      pop\n      pop\n      pop\n      pop\n      pop\n      mload(0x40)\n      dup1\n      swap2\n      sub\n      swap1\n      return\n        /* \"contracts/vaccineHelper.sol\":411:497  function withdraw() external onlyOwner {\r... */\n    tag_4:\n      callvalue\n        /* \"--CODEGEN--\":8:17   */\n      dup1\n        /* \"--CODEGEN--\":5:7   */\n      iszero\n      tag_29\n      jumpi\n        /* \"--CODEGEN--\":30:31   */\n      0x0\n        /* \"--CODEGEN--\":27:28   */\n      dup1\n        /* \"--CODEGEN--\":20:32   */\n      revert\n        /* \"--CODEGEN--\":5:7   */\n    tag_29:\n        /* \"contracts/vaccineHelper.sol\":411:497  function withdraw() external onlyOwner {\r... */\n      pop\n      tag_30\n      jump(tag_31)\n    tag_30:\n      stop\n        /* \"contracts/vaccineFactory.sol\":1343:1455  function kill() public {\r... */\n    tag_5:\n      callvalue\n        /* \"--CODEGEN--\":8:17   */\n      dup1\n        /* \"--CODEGEN--\":5:7   */\n      iszero\n      tag_32\n      jumpi\n        /* \"--CODEGEN--\":30:31   */\n      0x0\n        /* \"--CODEGEN--\":27:28   */\n      dup1\n        /* \"--CODEGEN--\":20:32   */\n      revert\n        /* \"--CODEGEN--\":5:7   */\n    tag_32:\n        /* \"contracts/vaccineFactory.sol\":1343:1455  function kill() public {\r... */\n      pop\n      tag_33\n      jump(tag_34)\n    tag_33:\n      stop\n        /* \"contracts/vaccineFactory.sol\":467:514  mapping (uint => address) public vaccineToOwner */\n    tag_6:\n      callvalue\n        /* \"--CODEGEN--\":8:17   */\n      dup1\n        /* \"--CODEGEN--\":5:7   */\n      iszero\n      tag_35\n      jumpi\n        /* \"--CODEGEN--\":30:31   */\n      0x0\n        /* \"--CODEGEN--\":27:28   */\n      dup1\n        /* \"--CODEGEN--\":20:32   */\n      revert\n        /* \"--CODEGEN--\":5:7   */\n    tag_35:\n        /* \"contracts/vaccineFactory.sol\":467:514  mapping (uint => address) public vaccineToOwner */\n      pop\n      tag_36\n      0x4\n      dup1\n      calldatasize\n      sub\n      dup2\n      add\n      swap1\n      dup1\n      dup1\n      calldataload\n      swap1\n      0x20\n      add\n      swap1\n      swap3\n      swap2\n      swap1\n      pop\n      pop\n      pop\n      jump(tag_37)\n    tag_36:\n      mload(0x40)\n      dup1\n      dup3\n      0xffffffffffffffffffffffffffffffffffffffff\n      and\n      0xffffffffffffffffffffffffffffffffffffffff\n      and\n      dup2\n      mstore\n      0x20\n      add\n      swap2\n      pop\n      pop\n      mload(0x40)\n      dup1\n      swap2\n      sub\n      swap1\n      return\n        /* \"contracts/ownable.sol\":52:72  address public owner */\n    tag_7:\n      callvalue\n        /* \"--CODEGEN--\":8:17   */\n      dup1\n        /* \"--CODEGEN--\":5:7   */\n      iszero\n      tag_38\n      jumpi\n        /* \"--CODEGEN--\":30:31   */\n      0x0\n        /* \"--CODEGEN--\":27:28   */\n      dup1\n        /* \"--CODEGEN--\":20:32   */\n      revert\n        /* \"--CODEGEN--\":5:7   */\n    tag_38:\n        /* \"contracts/ownable.sol\":52:72  address public owner */\n      pop\n      tag_39\n      jump(tag_40)\n    tag_39:\n      mload(0x40)\n      dup1\n      dup3\n      0xffffffffffffffffffffffffffffffffffffffff\n      and\n      0xffffffffffffffffffffffffffffffffffffffff\n      and\n      dup2\n      mstore\n      0x20\n      add\n      swap2\n      pop\n      pop\n      mload(0x40)\n      dup1\n      swap2\n      sub\n      swap1\n      return\n        /* \"contracts/vaccineHelper.sol\":505:594  function setPowerUpFee(uint _fee) external onlyOwner {\r... */\n    tag_8:\n      callvalue\n        /* \"--CODEGEN--\":8:17   */\n      dup1\n        /* \"--CODEGEN--\":5:7   */\n      iszero\n      tag_41\n      jumpi\n        /* \"--CODEGEN--\":30:31   */\n      0x0\n        /* \"--CODEGEN--\":27:28   */\n      dup1\n        /* \"--CODEGEN--\":20:32   */\n      revert\n        /* \"--CODEGEN--\":5:7   */\n    tag_41:\n        /* \"contracts/vaccineHelper.sol\":505:594  function setPowerUpFee(uint _fee) external onlyOwner {\r... */\n      pop\n      tag_42\n      0x4\n      dup1\n      calldatasize\n      sub\n      dup2\n      add\n      swap1\n      dup1\n      dup1\n      calldataload\n      swap1\n      0x20\n      add\n      swap1\n      swap3\n      swap2\n      swap1\n      pop\n      pop\n      pop\n      jump(tag_43)\n    tag_42:\n      stop\n        /* \"contracts/vaccineHelper.sol\":751:831  function check() public returns (uint) {\r... */\n    tag_9:\n      callvalue\n        /* \"--CODEGEN--\":8:17   */\n      dup1\n        /* \"--CODEGEN--\":5:7   */\n      iszero\n      tag_44\n      jumpi\n        /* \"--CODEGEN--\":30:31   */\n      0x0\n        /* \"--CODEGEN--\":27:28   */\n      dup1\n        /* \"--CODEGEN--\":20:32   */\n      revert\n        /* \"--CODEGEN--\":5:7   */\n    tag_44:\n        /* \"contracts/vaccineHelper.sol\":751:831  function check() public returns (uint) {\r... */\n      pop\n      tag_45\n      jump(tag_46)\n    tag_45:\n      mload(0x40)\n      dup1\n      dup3\n      dup2\n      mstore\n      0x20\n      add\n      swap2\n      pop\n      pop\n      mload(0x40)\n      dup1\n      swap2\n      sub\n      swap1\n      return\n        /* \"contracts/vaccineHelper.sol\":1015:1178  function changeRna(uint _vaccineID, uint _newRna) external aboveCures(20, _vaccineID) onlyOwnerOf(_vaccineID) {\r... */\n    tag_10:\n      callvalue\n        /* \"--CODEGEN--\":8:17   */\n      dup1\n        /* \"--CODEGEN--\":5:7   */\n      iszero\n      tag_47\n      jumpi\n        /* \"--CODEGEN--\":30:31   */\n      0x0\n        /* \"--CODEGEN--\":27:28   */\n      dup1\n        /* \"--CODEGEN--\":20:32   */\n      revert\n        /* \"--CODEGEN--\":5:7   */\n    tag_47:\n        /* \"contracts/vaccineHelper.sol\":1015:1178  function changeRna(uint _vaccineID, uint _newRna) external aboveCures(20, _vaccineID) onlyOwnerOf(_vaccineID) {\r... */\n      pop\n      tag_48\n      0x4\n      dup1\n      calldatasize\n      sub\n      dup2\n      add\n      swap1\n      dup1\n      dup1\n      calldataload\n      swap1\n      0x20\n      add\n      swap1\n      swap3\n      swap2\n      swap1\n      dup1\n      calldataload\n      swap1\n      0x20\n      add\n      swap1\n      swap3\n      swap2\n      swap1\n      pop\n      pop\n      pop\n      jump(tag_49)\n    tag_48:\n      stop\n        /* \"contracts/vaccineHelper.sol\":602:743  function powerUp(uint _vaccineID) external payable {\r... */\n    tag_11:\n      tag_50\n      0x4\n      dup1\n      calldatasize\n      sub\n      dup2\n      add\n      swap1\n      dup1\n      dup1\n      calldataload\n      swap1\n      0x20\n      add\n      swap1\n      swap3\n      swap2\n      swap1\n      pop\n      pop\n      pop\n      jump(tag_51)\n    tag_50:\n      stop\n        /* \"contracts/vaccineFactory.sol\":835:913  function whoRU() public returns (address) {\r... */\n    tag_12:\n      callvalue\n        /* \"--CODEGEN--\":8:17   */\n      dup1\n        /* \"--CODEGEN--\":5:7   */\n      iszero\n      tag_52\n      jumpi\n        /* \"--CODEGEN--\":30:31   */\n      0x0\n        /* \"--CODEGEN--\":27:28   */\n      dup1\n        /* \"--CODEGEN--\":20:32   */\n      revert\n        /* \"--CODEGEN--\":5:7   */\n    tag_52:\n        /* \"contracts/vaccineFactory.sol\":835:913  function whoRU() public returns (address) {\r... */\n      pop\n      tag_53\n      jump(tag_54)\n    tag_53:\n      mload(0x40)\n      dup1\n      dup3\n      0xffffffffffffffffffffffffffffffffffffffff\n      and\n      0xffffffffffffffffffffffffffffffffffffffff\n      and\n      dup2\n      mstore\n      0x20\n      add\n      swap2\n      pop\n      pop\n      mload(0x40)\n      dup1\n      swap2\n      sub\n      swap1\n      return\n        /* \"contracts/vaccineHelper.sol\":839:1007  function changeName(uint _vaccineID, string _newName) external aboveCures(2, _vaccineID) onlyOwnerOf(_vaccineID) {\r... */\n    tag_13:\n      callvalue\n        /* \"--CODEGEN--\":8:17   */\n      dup1\n        /* \"--CODEGEN--\":5:7   */\n      iszero\n      tag_55\n      jumpi\n        /* \"--CODEGEN--\":30:31   */\n      0x0\n        /* \"--CODEGEN--\":27:28   */\n      dup1\n        /* \"--CODEGEN--\":20:32   */\n      revert\n        /* \"--CODEGEN--\":5:7   */\n    tag_55:\n        /* \"contracts/vaccineHelper.sol\":839:1007  function changeName(uint _vaccineID, string _newName) external aboveCures(2, _vaccineID) onlyOwnerOf(_vaccineID) {\r... */\n      pop\n      tag_56\n      0x4\n      dup1\n      calldatasize\n      sub\n      dup2\n      add\n      swap1\n      dup1\n      dup1\n      calldataload\n      swap1\n      0x20\n      add\n      swap1\n      swap3\n      swap2\n      swap1\n      dup1\n      calldataload\n      swap1\n      0x20\n      add\n      swap1\n      dup3\n      add\n      dup1\n      calldataload\n      swap1\n      0x20\n      add\n      swap2\n      swap1\n      swap2\n      swap3\n      swap4\n      swap2\n      swap3\n      swap4\n      swap1\n      pop\n      pop\n      pop\n      jump(tag_57)\n    tag_56:\n      stop\n        /* \"contracts/vaccineFactory.sol\":1085:1335  function createRandomVaccine(string _name) public {\r... */\n    tag_14:\n      callvalue\n        /* \"--CODEGEN--\":8:17   */\n      dup1\n        /* \"--CODEGEN--\":5:7   */\n      iszero\n      tag_58\n      jumpi\n        /* \"--CODEGEN--\":30:31   */\n      0x0\n        /* \"--CODEGEN--\":27:28   */\n      dup1\n        /* \"--CODEGEN--\":20:32   */\n      revert\n        /* \"--CODEGEN--\":5:7   */\n    tag_58:\n        /* \"contracts/vaccineFactory.sol\":1085:1335  function createRandomVaccine(string _name) public {\r... */\n      pop\n      tag_59\n      0x4\n      dup1\n      calldatasize\n      sub\n      dup2\n      add\n      swap1\n      dup1\n      dup1\n      calldataload\n      swap1\n      0x20\n      add\n      swap1\n      dup3\n      add\n      dup1\n      calldataload\n      swap1\n      0x20\n      add\n      swap1\n      dup1\n      dup1\n      0x1f\n      add\n      0x20\n      dup1\n      swap2\n      div\n      mul\n      0x20\n      add\n      mload(0x40)\n      swap1\n      dup2\n      add\n      0x40\n      mstore\n      dup1\n      swap4\n      swap3\n      swap2\n      swap1\n      dup2\n      dup2\n      mstore\n      0x20\n      add\n      dup4\n      dup4\n      dup1\n      dup3\n      dup5\n      calldatacopy\n      dup3\n      add\n      swap2\n      pop\n      pop\n      pop\n      pop\n      pop\n      pop\n      swap2\n      swap3\n      swap2\n      swap3\n      swap1\n      pop\n      pop\n      pop\n      jump(tag_60)\n    tag_59:\n      stop\n        /* \"contracts/ownable.sol\":334:521  function transferOwnership(address newOwner) public onlyOwner {\r... */\n    tag_15:\n      callvalue\n        /* \"--CODEGEN--\":8:17   */\n      dup1\n        /* \"--CODEGEN--\":5:7   */\n      iszero\n      tag_61\n      jumpi\n        /* \"--CODEGEN--\":30:31   */\n      0x0\n        /* \"--CODEGEN--\":27:28   */\n      dup1\n        /* \"--CODEGEN--\":20:32   */\n      revert\n        /* \"--CODEGEN--\":5:7   */\n    tag_61:\n        /* \"contracts/ownable.sol\":334:521  function transferOwnership(address newOwner) public onlyOwner {\r... */\n      pop\n      tag_62\n      0x4\n      dup1\n      calldatasize\n      sub\n      dup2\n      add\n      swap1\n      dup1\n      dup1\n      calldataload\n      0xffffffffffffffffffffffffffffffffffffffff\n      and\n      swap1\n      0x20\n      add\n      swap1\n      swap3\n      swap2\n      swap1\n      pop\n      pop\n      pop\n      jump(tag_63)\n    tag_62:\n      stop\n        /* \"contracts/vaccineHelper.sol\":1186:1584  function getVaccinesByOwner(address _owner) external view returns(uint[]) {\r... */\n    tag_18:\n        /* \"contracts/vaccineHelper.sol\":1252:1258  uint[] */\n      0x60\n        /* \"contracts/vaccineHelper.sol\":1271:1291  uint[] memory result */\n      dup1\n        /* \"contracts/vaccineHelper.sol\":1342:1354  uint counter */\n      0x0\n        /* \"contracts/vaccineHelper.sol\":1374:1380  uint i */\n      dup1\n        /* \"contracts/vaccineHelper.sol\":1305:1322  ownerVaccineCount */\n      0x6\n        /* \"contracts/vaccineHelper.sol\":1305:1330  ownerVaccineCount[_owner] */\n      0x0\n        /* \"contracts/vaccineHelper.sol\":1323:1329  _owner */\n      dup7\n        /* \"contracts/vaccineHelper.sol\":1305:1330  ownerVaccineCount[_owner] */\n      0xffffffffffffffffffffffffffffffffffffffff\n      and\n      0xffffffffffffffffffffffffffffffffffffffff\n      and\n      dup2\n      mstore\n      0x20\n      add\n      swap1\n      dup2\n      mstore\n      0x20\n      add\n      0x0\n      keccak256\n      sload\n        /* \"contracts/vaccineHelper.sol\":1294:1331  new uint[](ownerVaccineCount[_owner]) */\n      mload(0x40)\n      swap1\n      dup1\n      dup3\n      mstore\n      dup1\n      0x20\n      mul\n      0x20\n      add\n      dup3\n      add\n      0x40\n      mstore\n      dup1\n      iszero\n      tag_65\n      jumpi\n      dup2\n      0x20\n      add\n        /* \"--CODEGEN--\":29:31   */\n      0x20\n        /* \"--CODEGEN--\":21:27   */\n      dup3\n        /* \"--CODEGEN--\":17:32   */\n      mul\n        /* \"--CODEGEN--\":117:121   */\n      dup1\n        /* \"--CODEGEN--\":105:115   */\n      codesize\n        /* \"--CODEGEN--\":97:103   */\n      dup4\n        /* \"--CODEGEN--\":88:122   */\n      codecopy\n        /* \"--CODEGEN--\":148:152   */\n      dup1\n        /* \"--CODEGEN--\":140:146   */\n      dup3\n        /* \"--CODEGEN--\":136:153   */\n      add\n        /* \"--CODEGEN--\":126:153   */\n      swap2\n      pop\n        /* \"--CODEGEN--\":0:157   */\n      pop\n        /* \"contracts/vaccineHelper.sol\":1294:1331  new uint[](ownerVaccineCount[_owner]) */\n      swap1\n      pop\n    tag_65:\n      pop\n        /* \"contracts/vaccineHelper.sol\":1271:1331  uint[] memory result = new uint[](ownerVaccineCount[_owner]) */\n      swap3\n      pop\n        /* \"contracts/vaccineHelper.sol\":1357:1358  0 */\n      0x0\n        /* \"contracts/vaccineHelper.sol\":1342:1358  uint counter = 0 */\n      swap2\n      pop\n        /* \"contracts/vaccineHelper.sol\":1383:1384  0 */\n      0x0\n        /* \"contracts/vaccineHelper.sol\":1374:1384  uint i = 0 */\n      swap1\n      pop\n        /* \"contracts/vaccineHelper.sol\":1369:1553  for (uint i = 0; i < vaccines.length; i++) {\r... */\n    tag_66:\n        /* \"contracts/vaccineHelper.sol\":1390:1398  vaccines */\n      0x4\n        /* \"contracts/vaccineHelper.sol\":1390:1405  vaccines.length */\n      dup1\n      sload\n      swap1\n      pop\n        /* \"contracts/vaccineHelper.sol\":1386:1387  i */\n      dup2\n        /* \"contracts/vaccineHelper.sol\":1386:1405  i < vaccines.length */\n      lt\n        /* \"contracts/vaccineHelper.sol\":1369:1553  for (uint i = 0; i < vaccines.length; i++) {\r... */\n      iszero\n      tag_67\n      jumpi\n        /* \"contracts/vaccineHelper.sol\":1452:1458  _owner */\n      dup5\n        /* \"contracts/vaccineHelper.sol\":1431:1458  vaccineToOwner[i] == _owner */\n      0xffffffffffffffffffffffffffffffffffffffff\n      and\n        /* \"contracts/vaccineHelper.sol\":1431:1445  vaccineToOwner */\n      0x5\n        /* \"contracts/vaccineHelper.sol\":1431:1448  vaccineToOwner[i] */\n      0x0\n        /* \"contracts/vaccineHelper.sol\":1446:1447  i */\n      dup4\n        /* \"contracts/vaccineHelper.sol\":1431:1448  vaccineToOwner[i] */\n      dup2\n      mstore\n      0x20\n      add\n      swap1\n      dup2\n      mstore\n      0x20\n      add\n      0x0\n      keccak256\n      0x0\n      swap1\n      sload\n      swap1\n      0x100\n      exp\n      swap1\n      div\n      0xffffffffffffffffffffffffffffffffffffffff\n      and\n        /* \"contracts/vaccineHelper.sol\":1431:1458  vaccineToOwner[i] == _owner */\n      0xffffffffffffffffffffffffffffffffffffffff\n      and\n      eq\n        /* \"contracts/vaccineHelper.sol\":1427:1542  if (vaccineToOwner[i] == _owner) {\r... */\n      iszero\n      tag_69\n      jumpi\n        /* \"contracts/vaccineHelper.sol\":1497:1498  i */\n      dup1\n        /* \"contracts/vaccineHelper.sol\":1479:1485  result */\n      dup4\n        /* \"contracts/vaccineHelper.sol\":1486:1493  counter */\n      dup4\n        /* \"contracts/vaccineHelper.sol\":1479:1494  result[counter] */\n      dup2\n      mload\n      dup2\n      lt\n      iszero\n      iszero\n      tag_70\n      jumpi\n      invalid\n    tag_70:\n      swap1\n      0x20\n      add\n      swap1\n      0x20\n      mul\n      add\n        /* \"contracts/vaccineHelper.sol\":1479:1498  result[counter] = i */\n      dup2\n      dup2\n      mstore\n      pop\n      pop\n        /* \"contracts/vaccineHelper.sol\":1517:1526  counter++ */\n      dup2\n      dup1\n      0x1\n      add\n      swap3\n      pop\n      pop\n        /* \"contracts/vaccineHelper.sol\":1427:1542  if (vaccineToOwner[i] == _owner) {\r... */\n    tag_69:\n        /* \"contracts/vaccineHelper.sol\":1407:1410  i++ */\n      dup1\n      dup1\n      0x1\n      add\n      swap2\n      pop\n      pop\n        /* \"contracts/vaccineHelper.sol\":1369:1553  for (uint i = 0; i < vaccines.length; i++) {\r... */\n      jump(tag_66)\n    tag_67:\n        /* \"contracts/vaccineHelper.sol\":1570:1576  result */\n      dup3\n        /* \"contracts/vaccineHelper.sol\":1563:1576  return result */\n      swap4\n      pop\n        /* \"contracts/vaccineHelper.sol\":1186:1584  function getVaccinesByOwner(address _owner) external view returns(uint[]) {\r... */\n      pop\n      pop\n      pop\n      swap2\n      swap1\n      pop\n      jump\t// out\n        /* \"contracts/vaccineFactory.sol\":433:458  Vaccine[] public vaccines */\n    tag_24:\n      0x4\n      dup2\n      dup2\n      sload\n      dup2\n      lt\n      iszero\n      iszero\n      tag_71\n      jumpi\n      invalid\n    tag_71:\n      swap1\n      0x0\n      mstore\n      keccak256(0x0, 0x20)\n      swap1\n      0x4\n      mul\n      add\n      0x0\n      swap2\n      pop\n      swap1\n      pop\n      dup1\n      0x0\n      add\n      dup1\n      sload\n      0x1\n      dup2\n      0x1\n      and\n      iszero\n      0x100\n      mul\n      sub\n      and\n      0x2\n      swap1\n      div\n      dup1\n      0x1f\n      add\n      0x20\n      dup1\n      swap2\n      div\n      mul\n      0x20\n      add\n      mload(0x40)\n      swap1\n      dup2\n      add\n      0x40\n      mstore\n      dup1\n      swap3\n      swap2\n      swap1\n      dup2\n      dup2\n      mstore\n      0x20\n      add\n      dup3\n      dup1\n      sload\n      0x1\n      dup2\n      0x1\n      and\n      iszero\n      0x100\n      mul\n      sub\n      and\n      0x2\n      swap1\n      div\n      dup1\n      iszero\n      tag_73\n      jumpi\n      dup1\n      0x1f\n      lt\n      tag_74\n      jumpi\n      0x100\n      dup1\n      dup4\n      sload\n      div\n      mul\n      dup4\n      mstore\n      swap2\n      0x20\n      add\n      swap2\n      jump(tag_73)\n    tag_74:\n      dup3\n      add\n      swap2\n      swap1\n      0x0\n      mstore\n      keccak256(0x0, 0x20)\n      swap1\n    tag_75:\n      dup2\n      sload\n      dup2\n      mstore\n      swap1\n      0x1\n      add\n      swap1\n      0x20\n      add\n      dup1\n      dup4\n      gt\n      tag_75\n      jumpi\n      dup3\n      swap1\n      sub\n      0x1f\n      and\n      dup3\n      add\n      swap2\n    tag_73:\n      pop\n      pop\n      pop\n      pop\n      pop\n      swap1\n      dup1\n      0x1\n      add\n      sload\n      swap1\n      dup1\n      0x2\n      add\n      sload\n      swap1\n      dup1\n      0x3\n      add\n      sload\n      swap1\n      pop\n      dup5\n      jump\t// out\n        /* \"contracts/vaccineHelper.sol\":411:497  function withdraw() external onlyOwner {\r... */\n    tag_31:\n        /* \"contracts/ownable.sol\":300:305  owner */\n      0x0\n      dup1\n      swap1\n      sload\n      swap1\n      0x100\n      exp\n      swap1\n      div\n      0xffffffffffffffffffffffffffffffffffffffff\n      and\n        /* \"contracts/ownable.sol\":286:305  msg.sender == owner */\n      0xffffffffffffffffffffffffffffffffffffffff\n      and\n        /* \"contracts/ownable.sol\":286:296  msg.sender */\n      caller\n        /* \"contracts/ownable.sol\":286:305  msg.sender == owner */\n      0xffffffffffffffffffffffffffffffffffffffff\n      and\n      eq\n        /* \"contracts/ownable.sol\":278:306  require(msg.sender == owner) */\n      iszero\n      iszero\n      tag_77\n      jumpi\n      0x0\n      dup1\n      revert\n    tag_77:\n        /* \"contracts/vaccineHelper.sol\":461:466  owner */\n      0x3\n      0x0\n      swap1\n      sload\n      swap1\n      0x100\n      exp\n      swap1\n      div\n      0xffffffffffffffffffffffffffffffffffffffff\n      and\n        /* \"contracts/vaccineHelper.sol\":461:475  owner.transfer */\n      0xffffffffffffffffffffffffffffffffffffffff\n      and\n        /* \"contracts/vaccineHelper.sol\":461:489  owner.transfer(this.balance) */\n      0x8fc\n        /* \"contracts/vaccineHelper.sol\":476:480  this */\n      address\n        /* \"contracts/vaccineHelper.sol\":476:488  this.balance */\n      0xffffffffffffffffffffffffffffffffffffffff\n      and\n      balance\n        /* \"contracts/vaccineHelper.sol\":461:489  owner.transfer(this.balance) */\n      swap1\n      dup2\n      iszero\n      mul\n      swap1\n      mload(0x40)\n      0x0\n      mload(0x40)\n      dup1\n      dup4\n      sub\n      dup2\n      dup6\n      dup9\n      dup9\n      call\n      swap4\n      pop\n      pop\n      pop\n      pop\n      iszero\n        /* \"--CODEGEN--\":8:17   */\n      dup1\n        /* \"--CODEGEN--\":5:7   */\n      iszero\n      tag_79\n      jumpi\n        /* \"--CODEGEN--\":45:61   */\n      returndatasize\n        /* \"--CODEGEN--\":42:43   */\n      0x0\n        /* \"--CODEGEN--\":39:40   */\n      dup1\n        /* \"--CODEGEN--\":24:62   */\n      returndatacopy\n        /* \"--CODEGEN--\":77:93   */\n      returndatasize\n        /* \"--CODEGEN--\":74:75   */\n      0x0\n        /* \"--CODEGEN--\":67:94   */\n      revert\n        /* \"--CODEGEN--\":5:7   */\n    tag_79:\n        /* \"contracts/vaccineHelper.sol\":461:489  owner.transfer(this.balance) */\n      pop\n        /* \"contracts/vaccineHelper.sol\":411:497  function withdraw() external onlyOwner {\r... */\n      jump\t// out\n        /* \"contracts/vaccineFactory.sol\":1343:1455  function kill() public {\r... */\n    tag_34:\n        /* \"contracts/vaccineFactory.sol\":1390:1400  msg.sender */\n      caller\n        /* \"contracts/vaccineFactory.sol\":1381:1400  owner == msg.sender */\n      0xffffffffffffffffffffffffffffffffffffffff\n      and\n        /* \"contracts/vaccineFactory.sol\":1381:1386  owner */\n      0x3\n      0x0\n      swap1\n      sload\n      swap1\n      0x100\n      exp\n      swap1\n      div\n      0xffffffffffffffffffffffffffffffffffffffff\n      and\n        /* \"contracts/vaccineFactory.sol\":1381:1400  owner == msg.sender */\n      0xffffffffffffffffffffffffffffffffffffffff\n      and\n      eq\n        /* \"contracts/vaccineFactory.sol\":1377:1448  if (owner == msg.sender) {\r... */\n      iszero\n      tag_81\n      jumpi\n        /* \"contracts/vaccineFactory.sol\":1430:1435  owner */\n      0x3\n      0x0\n      swap1\n      sload\n      swap1\n      0x100\n      exp\n      swap1\n      div\n      0xffffffffffffffffffffffffffffffffffffffff\n      and\n        /* \"contracts/vaccineFactory.sol\":1417:1436  selfdestruct(owner) */\n      0xffffffffffffffffffffffffffffffffffffffff\n      and\n      selfdestruct\n        /* \"contracts/vaccineFactory.sol\":1377:1448  if (owner == msg.sender) {\r... */\n    tag_81:\n        /* \"contracts/vaccineFactory.sol\":1343:1455  function kill() public {\r... */\n      jump\t// out\n        /* \"contracts/vaccineFactory.sol\":467:514  mapping (uint => address) public vaccineToOwner */\n    tag_37:\n      mstore(0x20, 0x5)\n      dup1\n      0x0\n      mstore\n      keccak256(0x0, 0x40)\n      0x0\n      swap2\n      pop\n      sload\n      swap1\n      0x100\n      exp\n      swap1\n      div\n      0xffffffffffffffffffffffffffffffffffffffff\n      and\n      dup2\n      jump\t// out\n        /* \"contracts/ownable.sol\":52:72  address public owner */\n    tag_40:\n      0x0\n      dup1\n      swap1\n      sload\n      swap1\n      0x100\n      exp\n      swap1\n      div\n      0xffffffffffffffffffffffffffffffffffffffff\n      and\n      dup2\n      jump\t// out\n        /* \"contracts/vaccineHelper.sol\":505:594  function setPowerUpFee(uint _fee) external onlyOwner {\r... */\n    tag_43:\n        /* \"contracts/ownable.sol\":300:305  owner */\n      0x0\n      dup1\n      swap1\n      sload\n      swap1\n      0x100\n      exp\n      swap1\n      div\n      0xffffffffffffffffffffffffffffffffffffffff\n      and\n        /* \"contracts/ownable.sol\":286:305  msg.sender == owner */\n      0xffffffffffffffffffffffffffffffffffffffff\n      and\n        /* \"contracts/ownable.sol\":286:296  msg.sender */\n      caller\n        /* \"contracts/ownable.sol\":286:305  msg.sender == owner */\n      0xffffffffffffffffffffffffffffffffffffffff\n      and\n      eq\n        /* \"contracts/ownable.sol\":278:306  require(msg.sender == owner) */\n      iszero\n      iszero\n      tag_83\n      jumpi\n      0x0\n      dup1\n      revert\n    tag_83:\n        /* \"contracts/vaccineHelper.sol\":582:586  _fee */\n      dup1\n        /* \"contracts/vaccineHelper.sol\":569:579  powerUpFee */\n      0x7\n        /* \"contracts/vaccineHelper.sol\":569:586  powerUpFee = _fee */\n      dup2\n      swap1\n      sstore\n      pop\n        /* \"contracts/vaccineHelper.sol\":505:594  function setPowerUpFee(uint _fee) external onlyOwner {\r... */\n      pop\n      jump\t// out\n        /* \"contracts/vaccineHelper.sol\":751:831  function check() public returns (uint) {\r... */\n    tag_46:\n        /* \"contracts/vaccineHelper.sol\":784:788  uint */\n      0x0\n        /* \"contracts/vaccineHelper.sol\":808:813  owner */\n      0x3\n      0x0\n      swap1\n      sload\n      swap1\n      0x100\n      exp\n      swap1\n      div\n      0xffffffffffffffffffffffffffffffffffffffff\n      and\n        /* \"contracts/vaccineHelper.sol\":808:821  owner.balance */\n      0xffffffffffffffffffffffffffffffffffffffff\n      and\n      balance\n        /* \"contracts/vaccineHelper.sol\":801:821  return owner.balance */\n      swap1\n      pop\n        /* \"contracts/vaccineHelper.sol\":751:831  function check() public returns (uint) {\r... */\n      swap1\n      jump\t// out\n        /* \"contracts/vaccineHelper.sol\":1015:1178  function changeRna(uint _vaccineID, uint _newRna) external aboveCures(20, _vaccineID) onlyOwnerOf(_vaccineID) {\r... */\n    tag_49:\n        /* \"contracts/vaccineHelper.sol\":1085:1087  20 */\n      0x14\n        /* \"contracts/vaccineHelper.sol\":1089:1099  _vaccineID */\n      dup3\n        /* \"contracts/vaccineHelper.sol\":337:343  _cures */\n      dup2\n        /* \"contracts/vaccineHelper.sol\":307:315  vaccines */\n      0x4\n        /* \"contracts/vaccineHelper.sol\":316:326  _vaccineID */\n      dup3\n        /* \"contracts/vaccineHelper.sol\":307:327  vaccines[_vaccineID] */\n      dup2\n      sload\n      dup2\n      lt\n      iszero\n      iszero\n      tag_87\n      jumpi\n      invalid\n    tag_87:\n      swap1\n      0x0\n      mstore\n      keccak256(0x0, 0x20)\n      swap1\n      0x4\n      mul\n      add\n        /* \"contracts/vaccineHelper.sol\":307:333  vaccines[_vaccineID].cures */\n      0x3\n      add\n      sload\n        /* \"contracts/vaccineHelper.sol\":307:343  vaccines[_vaccineID].cures >= _cures */\n      lt\n      iszero\n        /* \"contracts/vaccineHelper.sol\":299:344  require(vaccines[_vaccineID].cures >= _cures) */\n      iszero\n      iszero\n      tag_89\n      jumpi\n      0x0\n      dup1\n      revert\n    tag_89:\n        /* \"contracts/vaccineHelper.sol\":1113:1123  _vaccineID */\n      dup4\n        /* \"contracts/vaccineHelper.sol\":183:197  vaccineToOwner */\n      0x5\n        /* \"contracts/vaccineHelper.sol\":183:209  vaccineToOwner[_vaccineID] */\n      0x0\n        /* \"contracts/vaccineHelper.sol\":198:208  _vaccineID */\n      dup3\n        /* \"contracts/vaccineHelper.sol\":183:209  vaccineToOwner[_vaccineID] */\n      dup2\n      mstore\n      0x20\n      add\n      swap1\n      dup2\n      mstore\n      0x20\n      add\n      0x0\n      keccak256\n      0x0\n      swap1\n      sload\n      swap1\n      0x100\n      exp\n      swap1\n      div\n      0xffffffffffffffffffffffffffffffffffffffff\n      and\n        /* \"contracts/vaccineHelper.sol\":169:209  msg.sender == vaccineToOwner[_vaccineID] */\n      0xffffffffffffffffffffffffffffffffffffffff\n      and\n        /* \"contracts/vaccineHelper.sol\":169:179  msg.sender */\n      caller\n        /* \"contracts/vaccineHelper.sol\":169:209  msg.sender == vaccineToOwner[_vaccineID] */\n      0xffffffffffffffffffffffffffffffffffffffff\n      and\n      eq\n        /* \"contracts/vaccineHelper.sol\":161:210  require(msg.sender == vaccineToOwner[_vaccineID]) */\n      iszero\n      iszero\n      tag_91\n      jumpi\n      0x0\n      dup1\n      revert\n    tag_91:\n        /* \"contracts/vaccineHelper.sol\":1163:1170  _newRna */\n      dup4\n        /* \"contracts/vaccineHelper.sol\":1136:1144  vaccines */\n      0x4\n        /* \"contracts/vaccineHelper.sol\":1145:1155  _vaccineID */\n      dup7\n        /* \"contracts/vaccineHelper.sol\":1136:1156  vaccines[_vaccineID] */\n      dup2\n      sload\n      dup2\n      lt\n      iszero\n      iszero\n      tag_93\n      jumpi\n      invalid\n    tag_93:\n      swap1\n      0x0\n      mstore\n      keccak256(0x0, 0x20)\n      swap1\n      0x4\n      mul\n      add\n        /* \"contracts/vaccineHelper.sol\":1136:1160  vaccines[_vaccineID].rna */\n      0x1\n      add\n        /* \"contracts/vaccineHelper.sol\":1136:1170  vaccines[_vaccineID].rna = _newRna */\n      dup2\n      swap1\n      sstore\n      pop\n        /* \"contracts/vaccineHelper.sol\":355:356  _ */\n      pop\n        /* \"contracts/vaccineHelper.sol\":1015:1178  function changeRna(uint _vaccineID, uint _newRna) external aboveCures(20, _vaccineID) onlyOwnerOf(_vaccineID) {\r... */\n      pop\n      pop\n      pop\n      pop\n      jump\t// out\n        /* \"contracts/vaccineHelper.sol\":602:743  function powerUp(uint _vaccineID) external payable {\r... */\n    tag_51:\n        /* \"contracts/vaccineHelper.sol\":685:695  powerUpFee */\n      sload(0x7)\n        /* \"contracts/vaccineHelper.sol\":672:681  msg.value */\n      callvalue\n        /* \"contracts/vaccineHelper.sol\":672:695  msg.value == powerUpFee */\n      eq\n        /* \"contracts/vaccineHelper.sol\":664:696  require(msg.value == powerUpFee) */\n      iszero\n      iszero\n      tag_96\n      jumpi\n      0x0\n      dup1\n      revert\n    tag_96:\n        /* \"contracts/vaccineHelper.sol\":707:715  vaccines */\n      0x4\n        /* \"contracts/vaccineHelper.sol\":716:726  _vaccineID */\n      dup2\n        /* \"contracts/vaccineHelper.sol\":707:727  vaccines[_vaccineID] */\n      dup2\n      sload\n      dup2\n      lt\n      iszero\n      iszero\n      tag_97\n      jumpi\n      invalid\n    tag_97:\n      swap1\n      0x0\n      mstore\n      keccak256(0x0, 0x20)\n      swap1\n      0x4\n      mul\n      add\n        /* \"contracts/vaccineHelper.sol\":707:733  vaccines[_vaccineID].power */\n      0x2\n      add\n      0x0\n        /* \"contracts/vaccineHelper.sol\":707:735  vaccines[_vaccineID].power++ */\n      dup2\n      sload\n      dup1\n      swap3\n      swap2\n      swap1\n      0x1\n      add\n      swap2\n      swap1\n      pop\n      sstore\n      pop\n        /* \"contracts/vaccineHelper.sol\":602:743  function powerUp(uint _vaccineID) external payable {\r... */\n      pop\n      jump\t// out\n        /* \"contracts/vaccineFactory.sol\":835:913  function whoRU() public returns (address) {\r... */\n    tag_54:\n        /* \"contracts/vaccineFactory.sol\":868:875  address */\n      0x0\n        /* \"contracts/vaccineFactory.sol\":895:905  msg.sender */\n      caller\n        /* \"contracts/vaccineFactory.sol\":888:905  return msg.sender */\n      swap1\n      pop\n        /* \"contracts/vaccineFactory.sol\":835:913  function whoRU() public returns (address) {\r... */\n      swap1\n      jump\t// out\n        /* \"contracts/vaccineHelper.sol\":839:1007  function changeName(uint _vaccineID, string _newName) external aboveCures(2, _vaccineID) onlyOwnerOf(_vaccineID) {\r... */\n    tag_57:\n        /* \"contracts/vaccineHelper.sol\":913:914  2 */\n      0x2\n        /* \"contracts/vaccineHelper.sol\":916:926  _vaccineID */\n      dup4\n        /* \"contracts/vaccineHelper.sol\":337:343  _cures */\n      dup2\n        /* \"contracts/vaccineHelper.sol\":307:315  vaccines */\n      0x4\n        /* \"contracts/vaccineHelper.sol\":316:326  _vaccineID */\n      dup3\n        /* \"contracts/vaccineHelper.sol\":307:327  vaccines[_vaccineID] */\n      dup2\n      sload\n      dup2\n      lt\n      iszero\n      iszero\n      tag_101\n      jumpi\n      invalid\n    tag_101:\n      swap1\n      0x0\n      mstore\n      keccak256(0x0, 0x20)\n      swap1\n      0x4\n      mul\n      add\n        /* \"contracts/vaccineHelper.sol\":307:333  vaccines[_vaccineID].cures */\n      0x3\n      add\n      sload\n        /* \"contracts/vaccineHelper.sol\":307:343  vaccines[_vaccineID].cures >= _cures */\n      lt\n      iszero\n        /* \"contracts/vaccineHelper.sol\":299:344  require(vaccines[_vaccineID].cures >= _cures) */\n      iszero\n      iszero\n      tag_103\n      jumpi\n      0x0\n      dup1\n      revert\n    tag_103:\n        /* \"contracts/vaccineHelper.sol\":940:950  _vaccineID */\n      dup5\n        /* \"contracts/vaccineHelper.sol\":183:197  vaccineToOwner */\n      0x5\n        /* \"contracts/vaccineHelper.sol\":183:209  vaccineToOwner[_vaccineID] */\n      0x0\n        /* \"contracts/vaccineHelper.sol\":198:208  _vaccineID */\n      dup3\n        /* \"contracts/vaccineHelper.sol\":183:209  vaccineToOwner[_vaccineID] */\n      dup2\n      mstore\n      0x20\n      add\n      swap1\n      dup2\n      mstore\n      0x20\n      add\n      0x0\n      keccak256\n      0x0\n      swap1\n      sload\n      swap1\n      0x100\n      exp\n      swap1\n      div\n      0xffffffffffffffffffffffffffffffffffffffff\n      and\n        /* \"contracts/vaccineHelper.sol\":169:209  msg.sender == vaccineToOwner[_vaccineID] */\n      0xffffffffffffffffffffffffffffffffffffffff\n      and\n        /* \"contracts/vaccineHelper.sol\":169:179  msg.sender */\n      caller\n        /* \"contracts/vaccineHelper.sol\":169:209  msg.sender == vaccineToOwner[_vaccineID] */\n      0xffffffffffffffffffffffffffffffffffffffff\n      and\n      eq\n        /* \"contracts/vaccineHelper.sol\":161:210  require(msg.sender == vaccineToOwner[_vaccineID]) */\n      iszero\n      iszero\n      tag_105\n      jumpi\n      0x0\n      dup1\n      revert\n    tag_105:\n        /* \"contracts/vaccineHelper.sol\":991:999  _newName */\n      dup5\n      dup5\n        /* \"contracts/vaccineHelper.sol\":963:971  vaccines */\n      0x4\n        /* \"contracts/vaccineHelper.sol\":972:982  _vaccineID */\n      dup9\n        /* \"contracts/vaccineHelper.sol\":963:983  vaccines[_vaccineID] */\n      dup2\n      sload\n      dup2\n      lt\n      iszero\n      iszero\n      tag_107\n      jumpi\n      invalid\n    tag_107:\n      swap1\n      0x0\n      mstore\n      keccak256(0x0, 0x20)\n      swap1\n      0x4\n      mul\n      add\n        /* \"contracts/vaccineHelper.sol\":963:988  vaccines[_vaccineID].name */\n      0x0\n      add\n        /* \"contracts/vaccineHelper.sol\":963:999  vaccines[_vaccineID].name = _newName */\n      swap2\n      swap1\n      tag_109\n      swap3\n      swap2\n      swap1\n      jump\t// in(tag_110)\n    tag_109:\n      pop\n        /* \"contracts/vaccineHelper.sol\":355:356  _ */\n      pop\n        /* \"contracts/vaccineHelper.sol\":839:1007  function changeName(uint _vaccineID, string _newName) external aboveCures(2, _vaccineID) onlyOwnerOf(_vaccineID) {\r... */\n      pop\n      pop\n      pop\n      pop\n      pop\n      jump\t// out\n        /* \"contracts/vaccineFactory.sol\":1085:1335  function createRandomVaccine(string _name) public {\r... */\n    tag_60:\n        /* \"contracts/vaccineFactory.sol\":1202:1214  uint randRna */\n      0x0\n        /* \"contracts/vaccineFactory.sol\":1217:1242  _generateRandomRna(_name) */\n      tag_112\n        /* \"contracts/vaccineFactory.sol\":1236:1241  _name */\n      dup3\n        /* \"contracts/vaccineFactory.sol\":1217:1235  _generateRandomRna */\n      tag_113\n        /* \"contracts/vaccineFactory.sol\":1217:1242  _generateRandomRna(_name) */\n      jump\t// in\n    tag_112:\n        /* \"contracts/vaccineFactory.sol\":1202:1242  uint randRna = _generateRandomRna(_name) */\n      swap1\n      pop\n        /* \"contracts/vaccineFactory.sol\":1283:1286  100 */\n      0x64\n        /* \"contracts/vaccineFactory.sol\":1273:1280  randRna */\n      dup2\n        /* \"contracts/vaccineFactory.sol\":1273:1286  randRna % 100 */\n      dup2\n      iszero\n      iszero\n      tag_114\n      jumpi\n      invalid\n    tag_114:\n      mod\n        /* \"contracts/vaccineFactory.sol\":1263:1270  randRna */\n      dup2\n        /* \"contracts/vaccineFactory.sol\":1263:1286  randRna - randRna % 100 */\n      sub\n        /* \"contracts/vaccineFactory.sol\":1253:1286  randRna = randRna - randRna % 100 */\n      swap1\n      pop\n        /* \"contracts/vaccineFactory.sol\":1297:1327  _createVaccine(_name, randRna) */\n      tag_115\n        /* \"contracts/vaccineFactory.sol\":1312:1317  _name */\n      dup3\n        /* \"contracts/vaccineFactory.sol\":1319:1326  randRna */\n      dup3\n        /* \"contracts/vaccineFactory.sol\":1297:1311  _createVaccine */\n      tag_116\n        /* \"contracts/vaccineFactory.sol\":1297:1327  _createVaccine(_name, randRna) */\n      jump\t// in\n    tag_115:\n        /* \"contracts/vaccineFactory.sol\":1085:1335  function createRandomVaccine(string _name) public {\r... */\n      pop\n      pop\n      jump\t// out\n        /* \"contracts/ownable.sol\":334:521  function transferOwnership(address newOwner) public onlyOwner {\r... */\n    tag_63:\n        /* \"contracts/ownable.sol\":300:305  owner */\n      0x0\n      dup1\n      swap1\n      sload\n      swap1\n      0x100\n      exp\n      swap1\n      div\n      0xffffffffffffffffffffffffffffffffffffffff\n      and\n        /* \"contracts/ownable.sol\":286:305  msg.sender == owner */\n      0xffffffffffffffffffffffffffffffffffffffff\n      and\n        /* \"contracts/ownable.sol\":286:296  msg.sender */\n      caller\n        /* \"contracts/ownable.sol\":286:305  msg.sender == owner */\n      0xffffffffffffffffffffffffffffffffffffffff\n      and\n      eq\n        /* \"contracts/ownable.sol\":278:306  require(msg.sender == owner) */\n      iszero\n      iszero\n      tag_118\n      jumpi\n      0x0\n      dup1\n      revert\n    tag_118:\n        /* \"contracts/ownable.sol\":435:436  0 */\n      0x0\n        /* \"contracts/ownable.sol\":415:437  newOwner != address(0) */\n      0xffffffffffffffffffffffffffffffffffffffff\n      and\n        /* \"contracts/ownable.sol\":415:423  newOwner */\n      dup2\n        /* \"contracts/ownable.sol\":415:437  newOwner != address(0) */\n      0xffffffffffffffffffffffffffffffffffffffff\n      and\n      eq\n      iszero\n        /* \"contracts/ownable.sol\":407:438  require(newOwner != address(0)) */\n      iszero\n      iszero\n      tag_120\n      jumpi\n      0x0\n      dup1\n      revert\n    tag_120:\n        /* \"contracts/ownable.sol\":477:485  newOwner */\n      dup1\n        /* \"contracts/ownable.sol\":449:486  OwnershipTransferred(owner, newOwner) */\n      0xffffffffffffffffffffffffffffffffffffffff\n      and\n        /* \"contracts/ownable.sol\":470:475  owner */\n      0x0\n      dup1\n      swap1\n      sload\n      swap1\n      0x100\n      exp\n      swap1\n      div\n      0xffffffffffffffffffffffffffffffffffffffff\n      and\n        /* \"contracts/ownable.sol\":449:486  OwnershipTransferred(owner, newOwner) */\n      0xffffffffffffffffffffffffffffffffffffffff\n      and\n      0x8be0079c531659141344cd1fd0a4f28419497f9722a3daafe3b4186f6b6457e0\n      mload(0x40)\n      mload(0x40)\n      dup1\n      swap2\n      sub\n      swap1\n      log3\n        /* \"contracts/ownable.sol\":505:513  newOwner */\n      dup1\n        /* \"contracts/ownable.sol\":497:502  owner */\n      0x0\n      dup1\n        /* \"contracts/ownable.sol\":497:513  owner = newOwner */\n      0x100\n      exp\n      dup2\n      sload\n      dup2\n      0xffffffffffffffffffffffffffffffffffffffff\n      mul\n      not\n      and\n      swap1\n      dup4\n      0xffffffffffffffffffffffffffffffffffffffff\n      and\n      mul\n      or\n      swap1\n      sstore\n      pop\n        /* \"contracts/ownable.sol\":334:521  function transferOwnership(address newOwner) public onlyOwner {\r... */\n      pop\n      jump\t// out\n        /* \"contracts/vaccineFactory.sol\":921:1077  function _generateRandomRna(string _str) private view returns (uint) {\r... */\n    tag_113:\n        /* \"contracts/vaccineFactory.sol\":984:988  uint */\n      0x0\n        /* \"contracts/vaccineFactory.sol\":1001:1010  uint rand */\n      dup1\n        /* \"contracts/vaccineFactory.sol\":1028:1032  _str */\n      dup3\n        /* \"contracts/vaccineFactory.sol\":1018:1033  keccak256(_str) */\n      mload(0x40)\n      dup1\n      dup3\n      dup1\n      mload\n      swap1\n      0x20\n      add\n      swap1\n      dup1\n      dup4\n      dup4\n        /* \"--CODEGEN--\":36:189   */\n    tag_122:\n        /* \"--CODEGEN--\":66:68   */\n      0x20\n        /* \"--CODEGEN--\":61:64   */\n      dup4\n        /* \"--CODEGEN--\":58:69   */\n      lt\n        /* \"--CODEGEN--\":51:70   */\n      iszero\n        /* \"--CODEGEN--\":36:189   */\n      iszero\n      tag_123\n      jumpi\n        /* \"--CODEGEN--\":182:185   */\n      dup1\n        /* \"--CODEGEN--\":176:186   */\n      mload\n        /* \"--CODEGEN--\":171:174   */\n      dup3\n        /* \"--CODEGEN--\":164:187   */\n      mstore\n        /* \"--CODEGEN--\":98:100   */\n      0x20\n        /* \"--CODEGEN--\":93:96   */\n      dup3\n        /* \"--CODEGEN--\":89:101   */\n      add\n        /* \"--CODEGEN--\":82:101   */\n      swap2\n      pop\n        /* \"--CODEGEN--\":123:125   */\n      0x20\n        /* \"--CODEGEN--\":118:121   */\n      dup2\n        /* \"--CODEGEN--\":114:126   */\n      add\n        /* \"--CODEGEN--\":107:126   */\n      swap1\n      pop\n        /* \"--CODEGEN--\":148:150   */\n      0x20\n        /* \"--CODEGEN--\":143:146   */\n      dup4\n        /* \"--CODEGEN--\":139:151   */\n      sub\n        /* \"--CODEGEN--\":132:151   */\n      swap3\n      pop\n        /* \"--CODEGEN--\":36:189   */\n      jump(tag_122)\n    tag_123:\n        /* \"--CODEGEN--\":274:275   */\n      0x1\n        /* \"--CODEGEN--\":267:270   */\n      dup4\n        /* \"--CODEGEN--\":263:265   */\n      0x20\n        /* \"--CODEGEN--\":259:271   */\n      sub\n        /* \"--CODEGEN--\":254:257   */\n      0x100\n        /* \"--CODEGEN--\":250:272   */\n      exp\n        /* \"--CODEGEN--\":246:276   */\n      sub\n        /* \"--CODEGEN--\":315:319   */\n      dup1\n        /* \"--CODEGEN--\":311:320   */\n      not\n        /* \"--CODEGEN--\":305:308   */\n      dup3\n        /* \"--CODEGEN--\":299:309   */\n      mload\n        /* \"--CODEGEN--\":295:321   */\n      and\n        /* \"--CODEGEN--\":356:360   */\n      dup2\n        /* \"--CODEGEN--\":350:353   */\n      dup5\n        /* \"--CODEGEN--\":344:354   */\n      mload\n        /* \"--CODEGEN--\":340:361   */\n      and\n        /* \"--CODEGEN--\":389:396   */\n      dup1\n        /* \"--CODEGEN--\":380:387   */\n      dup3\n        /* \"--CODEGEN--\":377:397   */\n      or\n        /* \"--CODEGEN--\":372:375   */\n      dup6\n        /* \"--CODEGEN--\":365:398   */\n      mstore\n        /* \"--CODEGEN--\":3:402   */\n      pop\n      pop\n      pop\n        /* \"contracts/vaccineFactory.sol\":1018:1033  keccak256(_str) */\n      pop\n      pop\n      pop\n      swap1\n      pop\n      add\n      swap2\n      pop\n      pop\n      mload(0x40)\n      dup1\n      swap2\n      sub\n      swap1\n      keccak256\n        /* \"contracts/vaccineFactory.sol\":1013:1034  uint(keccak256(_str)) */\n      0x1\n      swap1\n      div\n        /* \"contracts/vaccineFactory.sol\":1001:1034  uint rand = uint(keccak256(_str)) */\n      swap1\n      pop\n        /* \"contracts/vaccineFactory.sol\":1059:1069  rnaModulus */\n      sload(0x2)\n        /* \"contracts/vaccineFactory.sol\":1052:1056  rand */\n      dup2\n        /* \"contracts/vaccineFactory.sol\":1052:1069  rand % rnaModulus */\n      dup2\n      iszero\n      iszero\n      tag_125\n      jumpi\n      invalid\n    tag_125:\n      mod\n        /* \"contracts/vaccineFactory.sol\":1045:1069  return rand % rnaModulus */\n      swap2\n      pop\n        /* \"contracts/vaccineFactory.sol\":921:1077  function _generateRandomRna(string _str) private view returns (uint) {\r... */\n      pop\n      swap2\n      swap1\n      pop\n      jump\t// out\n        /* \"contracts/vaccineFactory.sol\":573:827  function _createVaccine(string _name, uint _rna) internal {\r... */\n    tag_116:\n        /* \"contracts/vaccineFactory.sol\":642:649  uint id */\n      0x0\n        /* \"contracts/vaccineFactory.sol\":696:697  1 */\n      0x1\n        /* \"contracts/vaccineFactory.sol\":652:660  vaccines */\n      0x4\n        /* \"contracts/vaccineFactory.sol\":666:692  Vaccine(_name, _rna, 1, 0) */\n      0x80\n      mload(0x40)\n      swap1\n      dup2\n      add\n      0x40\n      mstore\n      dup1\n        /* \"contracts/vaccineFactory.sol\":674:679  _name */\n      dup7\n        /* \"contracts/vaccineFactory.sol\":666:692  Vaccine(_name, _rna, 1, 0) */\n      dup2\n      mstore\n      0x20\n      add\n        /* \"contracts/vaccineFactory.sol\":681:685  _rna */\n      dup6\n        /* \"contracts/vaccineFactory.sol\":666:692  Vaccine(_name, _rna, 1, 0) */\n      dup2\n      mstore\n      0x20\n      add\n        /* \"contracts/vaccineFactory.sol\":687:688  1 */\n      0x1\n        /* \"contracts/vaccineFactory.sol\":666:692  Vaccine(_name, _rna, 1, 0) */\n      dup2\n      mstore\n      0x20\n      add\n        /* \"contracts/vaccineFactory.sol\":690:691  0 */\n      0x0\n        /* \"contracts/vaccineFactory.sol\":666:692  Vaccine(_name, _rna, 1, 0) */\n      dup2\n      mstore\n      pop\n        /* \"contracts/vaccineFactory.sol\":652:693  vaccines.push(Vaccine(_name, _rna, 1, 0)) */\n      swap1\n      dup1\n        /* \"--CODEGEN--\":39:40   */\n      0x1\n        /* \"--CODEGEN--\":33:36   */\n      dup2\n        /* \"--CODEGEN--\":27:37   */\n      sload\n        /* \"--CODEGEN--\":23:41   */\n      add\n        /* \"--CODEGEN--\":57:67   */\n      dup1\n        /* \"--CODEGEN--\":52:55   */\n      dup3\n        /* \"--CODEGEN--\":45:68   */\n      sstore\n        /* \"--CODEGEN--\":79:89   */\n      dup1\n        /* \"--CODEGEN--\":72:89   */\n      swap2\n      pop\n        /* \"--CODEGEN--\":0:93   */\n      pop\n        /* \"contracts/vaccineFactory.sol\":652:693  vaccines.push(Vaccine(_name, _rna, 1, 0)) */\n      swap1\n      0x1\n      dup3\n      sub\n      swap1\n      0x0\n      mstore\n      keccak256(0x0, 0x20)\n      swap1\n      0x4\n      mul\n      add\n      0x0\n      swap1\n      swap2\n      swap3\n      swap1\n      swap2\n      swap1\n      swap2\n      pop\n      0x0\n      dup3\n      add\n      mload\n      dup2\n      0x0\n      add\n      swap1\n      dup1\n      mload\n      swap1\n      0x20\n      add\n      swap1\n      tag_128\n      swap3\n      swap2\n      swap1\n      jump\t// in(tag_129)\n    tag_128:\n      pop\n      0x20\n      dup3\n      add\n      mload\n      dup2\n      0x1\n      add\n      sstore\n      0x40\n      dup3\n      add\n      mload\n      dup2\n      0x2\n      add\n      sstore\n      0x60\n      dup3\n      add\n      mload\n      dup2\n      0x3\n      add\n      sstore\n      pop\n      pop\n        /* \"contracts/vaccineFactory.sol\":652:697  vaccines.push(Vaccine(_name, _rna, 1, 0)) - 1 */\n      sub\n        /* \"contracts/vaccineFactory.sol\":642:697  uint id = vaccines.push(Vaccine(_name, _rna, 1, 0)) - 1 */\n      swap1\n      pop\n        /* \"contracts/vaccineFactory.sol\":729:739  msg.sender */\n      caller\n        /* \"contracts/vaccineFactory.sol\":708:722  vaccineToOwner */\n      0x5\n        /* \"contracts/vaccineFactory.sol\":708:726  vaccineToOwner[id] */\n      0x0\n        /* \"contracts/vaccineFactory.sol\":723:725  id */\n      dup4\n        /* \"contracts/vaccineFactory.sol\":708:726  vaccineToOwner[id] */\n      dup2\n      mstore\n      0x20\n      add\n      swap1\n      dup2\n      mstore\n      0x20\n      add\n      0x0\n      keccak256\n      0x0\n        /* \"contracts/vaccineFactory.sol\":708:739  vaccineToOwner[id] = msg.sender */\n      0x100\n      exp\n      dup2\n      sload\n      dup2\n      0xffffffffffffffffffffffffffffffffffffffff\n      mul\n      not\n      and\n      swap1\n      dup4\n      0xffffffffffffffffffffffffffffffffffffffff\n      and\n      mul\n      or\n      swap1\n      sstore\n      pop\n        /* \"contracts/vaccineFactory.sol\":750:767  ownerVaccineCount */\n      0x6\n        /* \"contracts/vaccineFactory.sol\":750:779  ownerVaccineCount[msg.sender] */\n      0x0\n        /* \"contracts/vaccineFactory.sol\":768:778  msg.sender */\n      caller\n        /* \"contracts/vaccineFactory.sol\":750:779  ownerVaccineCount[msg.sender] */\n      0xffffffffffffffffffffffffffffffffffffffff\n      and\n      0xffffffffffffffffffffffffffffffffffffffff\n      and\n      dup2\n      mstore\n      0x20\n      add\n      swap1\n      dup2\n      mstore\n      0x20\n      add\n      0x0\n      keccak256\n      0x0\n        /* \"contracts/vaccineFactory.sol\":750:781  ownerVaccineCount[msg.sender]++ */\n      dup2\n      sload\n      dup1\n      swap3\n      swap2\n      swap1\n      0x1\n      add\n      swap2\n      swap1\n      pop\n      sstore\n      pop\n        /* \"contracts/vaccineFactory.sol\":792:819  newVaccine(id, _name, _rna) */\n      0xcb5c019df3d46f8fb328db304bcf1718af383e0eea729499ea9c5205c5a99c69\n        /* \"contracts/vaccineFactory.sol\":803:805  id */\n      dup2\n        /* \"contracts/vaccineFactory.sol\":807:812  _name */\n      dup5\n        /* \"contracts/vaccineFactory.sol\":814:818  _rna */\n      dup5\n        /* \"contracts/vaccineFactory.sol\":792:819  newVaccine(id, _name, _rna) */\n      mload(0x40)\n      dup1\n      dup5\n      dup2\n      mstore\n      0x20\n      add\n      dup1\n      0x20\n      add\n      dup4\n      dup2\n      mstore\n      0x20\n      add\n      dup3\n      dup2\n      sub\n      dup3\n      mstore\n      dup5\n      dup2\n      dup2\n      mload\n      dup2\n      mstore\n      0x20\n      add\n      swap2\n      pop\n      dup1\n      mload\n      swap1\n      0x20\n      add\n      swap1\n      dup1\n      dup4\n      dup4\n        /* \"--CODEGEN--\":23:24   */\n      0x0\n        /* \"--CODEGEN--\":8:108   */\n    tag_130:\n        /* \"--CODEGEN--\":33:36   */\n      dup4\n        /* \"--CODEGEN--\":30:31   */\n      dup2\n        /* \"--CODEGEN--\":27:37   */\n      lt\n        /* \"--CODEGEN--\":8:108   */\n      iszero\n      tag_131\n      jumpi\n        /* \"--CODEGEN--\":99:100   */\n      dup1\n        /* \"--CODEGEN--\":94:97   */\n      dup3\n        /* \"--CODEGEN--\":90:101   */\n      add\n        /* \"--CODEGEN--\":84:102   */\n      mload\n        /* \"--CODEGEN--\":80:81   */\n      dup2\n        /* \"--CODEGEN--\":75:78   */\n      dup5\n        /* \"--CODEGEN--\":71:82   */\n      add\n        /* \"--CODEGEN--\":64:103   */\n      mstore\n        /* \"--CODEGEN--\":52:54   */\n      0x20\n        /* \"--CODEGEN--\":49:50   */\n      dup2\n        /* \"--CODEGEN--\":45:55   */\n      add\n        /* \"--CODEGEN--\":40:55   */\n      swap1\n      pop\n        /* \"--CODEGEN--\":8:108   */\n      jump(tag_130)\n    tag_131:\n        /* \"--CODEGEN--\":12:26   */\n      pop\n        /* \"contracts/vaccineFactory.sol\":792:819  newVaccine(id, _name, _rna) */\n      pop\n      pop\n      pop\n      swap1\n      pop\n      swap1\n      dup2\n      add\n      swap1\n      0x1f\n      and\n      dup1\n      iszero\n      tag_133\n      jumpi\n      dup1\n      dup3\n      sub\n      dup1\n      mload\n      0x1\n      dup4\n      0x20\n      sub\n      0x100\n      exp\n      sub\n      not\n      and\n      dup2\n      mstore\n      0x20\n      add\n      swap2\n      pop\n    tag_133:\n      pop\n      swap5\n      pop\n      pop\n      pop\n      pop\n      pop\n      mload(0x40)\n      dup1\n      swap2\n      sub\n      swap1\n      log1\n        /* \"contracts/vaccineFactory.sol\":573:827  function _createVaccine(string _name, uint _rna) internal {\r... */\n      pop\n      pop\n      pop\n      jump\t// out\n        /* \"contracts/vaccineHelper.sol\":62:1587  contract VaccineHelper is VaccineFactory {\r... */\n    tag_110:\n      dup3\n      dup1\n      sload\n      0x1\n      dup2\n      0x1\n      and\n      iszero\n      0x100\n      mul\n      sub\n      and\n      0x2\n      swap1\n      div\n      swap1\n      0x0\n      mstore\n      keccak256(0x0, 0x20)\n      swap1\n      0x1f\n      add\n      0x20\n      swap1\n      div\n      dup2\n      add\n      swap3\n      dup3\n      0x1f\n      lt\n      tag_135\n      jumpi\n      dup1\n      calldataload\n      not(0xff)\n      and\n      dup4\n      dup1\n      add\n      or\n      dup6\n      sstore\n      jump(tag_134)\n    tag_135:\n      dup3\n      dup1\n      add\n      0x1\n      add\n      dup6\n      sstore\n      dup3\n      iszero\n      tag_134\n      jumpi\n      swap2\n      dup3\n      add\n    tag_136:\n      dup3\n      dup2\n      gt\n      iszero\n      tag_137\n      jumpi\n      dup3\n      calldataload\n      dup3\n      sstore\n      swap2\n      0x20\n      add\n      swap2\n      swap1\n      0x1\n      add\n      swap1\n      jump(tag_136)\n    tag_137:\n    tag_134:\n      pop\n      swap1\n      pop\n      tag_138\n      swap2\n      swap1\n      jump\t// in(tag_139)\n    tag_138:\n      pop\n      swap1\n      jump\t// out\n    tag_129:\n      dup3\n      dup1\n      sload\n      0x1\n      dup2\n      0x1\n      and\n      iszero\n      0x100\n      mul\n      sub\n      and\n      0x2\n      swap1\n      div\n      swap1\n      0x0\n      mstore\n      keccak256(0x0, 0x20)\n      swap1\n      0x1f\n      add\n      0x20\n      swap1\n      div\n      dup2\n      add\n      swap3\n      dup3\n      0x1f\n      lt\n      tag_141\n      jumpi\n      dup1\n      mload\n      not(0xff)\n      and\n      dup4\n      dup1\n      add\n      or\n      dup6\n      sstore\n      jump(tag_140)\n    tag_141:\n      dup3\n      dup1\n      add\n      0x1\n      add\n      dup6\n      sstore\n      dup3\n      iszero\n      tag_140\n      jumpi\n      swap2\n      dup3\n      add\n    tag_142:\n      dup3\n      dup2\n      gt\n      iszero\n      tag_143\n      jumpi\n      dup3\n      mload\n      dup3\n      sstore\n      swap2\n      0x20\n      add\n      swap2\n      swap1\n      0x1\n      add\n      swap1\n      jump(tag_142)\n    tag_143:\n    tag_140:\n      pop\n      swap1\n      pop\n      tag_144\n      swap2\n      swap1\n      jump\t// in(tag_139)\n    tag_144:\n      pop\n      swap1\n      jump\t// out\n    tag_139:\n      tag_145\n      swap2\n      swap1\n    tag_146:\n      dup1\n      dup3\n      gt\n      iszero\n      tag_147\n      jumpi\n      0x0\n      dup2\n      0x0\n      swap1\n      sstore\n      pop\n      0x1\n      add\n      jump(tag_146)\n    tag_147:\n      pop\n      swap1\n      jump\n    tag_145:\n      swap1\n      jump\t// out\n\n    auxdata: 0xa165627a7a7230582060a704d076d14804b93fb887c4e6b4f14dc7159bc17adbf4deadcc71d8792bda0029\n}\n",
				"bytecode": {
					"linkReferences": {},
					"object": "60806040526010600155600154600a0a600255655af3107a4000600755336000806101000a81548173ffffffffffffffffffffffffffffffffffffffff021916908373ffffffffffffffffffffffffffffffffffffffff16021790555033600360006101000a81548173ffffffffffffffffffffffffffffffffffffffff021916908373ffffffffffffffffffffffffffffffffffffffff1602179055506110b2806100ac6000396000f3006080604052600436106100d0576000357c0100000000000000000000000000000000000000000000000000000000900463ffffffff1680632dc49fb6146100d5578063300e88bd1461016d5780633ccfd60b1461022857806341c0e1b51461023f578063527c382f146102565780638da5cb5b146102c357806390b0722e1461031a578063919840ad14610347578063934c4649146103725780639a6bd379146103a9578063bee50cb4146103c9578063c39cbef114610420578063e8d5758014610465578063f2fde38b146104ce575b600080fd5b3480156100e157600080fd5b50610116600480360381019080803573ffffffffffffffffffffffffffffffffffffffff169060200190929190505050610511565b6040518080602001828103825283818151815260200191508051906020019060200280838360005b8381101561015957808201518184015260208101905061013e565b505050509050019250505060405180910390f35b34801561017957600080fd5b5061019860048036038101908080359060200190929190505050610643565b6040518080602001858152602001848152602001838152602001828103825286818151815260200191508051906020019080838360005b838110156101ea5780820151818401526020810190506101cf565b50505050905090810190601f1680156102175780820380516001836020036101000a031916815260200191505b509550505050505060405180910390f35b34801561023457600080fd5b5061023d61071a565b005b34801561024b57600080fd5b506102546107f7565b005b34801561026257600080fd5b506102816004803603810190808035906020019092919050505061088a565b604051808273ffffffffffffffffffffffffffffffffffffffff1673ffffffffffffffffffffffffffffffffffffffff16815260200191505060405180910390f35b3480156102cf57600080fd5b506102d86108bd565b604051808273ffffffffffffffffffffffffffffffffffffffff1673ffffffffffffffffffffffffffffffffffffffff16815260200191505060405180910390f35b34801561032657600080fd5b50610345600480360381019080803590602001909291905050506108e2565b005b34801561035357600080fd5b5061035c610947565b6040518082815260200191505060405180910390f35b34801561037e57600080fd5b506103a76004803603810190808035906020019092919080359060200190929190505050610988565b005b6103c760048036038101908080359060200190929190505050610a54565b005b3480156103d557600080fd5b506103de610a97565b604051808273ffffffffffffffffffffffffffffffffffffffff1673ffffffffffffffffffffffffffffffffffffffff16815260200191505060405180910390f35b34801561042c57600080fd5b5061046360048036038101908080359060200190929190803590602001908201803590602001919091929391929390505050610a9f565b005b34801561047157600080fd5b506104cc600480360381019080803590602001908201803590602001908080601f0160208091040260200160405190810160405280939291908181526020018383808284378201915050505050509192919290505050610b77565b005b3480156104da57600080fd5b5061050f600480360381019080803573ffffffffffffffffffffffffffffffffffffffff169060200190929190505050610ba3565b005b606080600080600660008673ffffffffffffffffffffffffffffffffffffffff1673ffffffffffffffffffffffffffffffffffffffff168152602001908152602001600020546040519080825280602002602001820160405280156105855781602001602082028038833980820191505090505b50925060009150600090505b600480549050811015610638578473ffffffffffffffffffffffffffffffffffffffff166005600083815260200190815260200160002060009054906101000a900473ffffffffffffffffffffffffffffffffffffffff1673ffffffffffffffffffffffffffffffffffffffff16141561062b5780838381518110151561061457fe5b906020019060200201818152505081806001019250505b8080600101915050610591565b829350505050919050565b60048181548110151561065257fe5b9060005260206000209060040201600091509050806000018054600181600116156101000203166002900480601f0160208091040260200160405190810160405280929190818152602001828054600181600116156101000203166002900480156106fe5780601f106106d3576101008083540402835291602001916106fe565b820191906000526020600020905b8154815290600101906020018083116106e157829003601f168201915b5050505050908060010154908060020154908060030154905084565b6000809054906101000a900473ffffffffffffffffffffffffffffffffffffffff1673ffffffffffffffffffffffffffffffffffffffff163373ffffffffffffffffffffffffffffffffffffffff1614151561077557600080fd5b600360009054906101000a900473ffffffffffffffffffffffffffffffffffffffff1673ffffffffffffffffffffffffffffffffffffffff166108fc3073ffffffffffffffffffffffffffffffffffffffff16319081150290604051600060405180830381858888f193505050501580156107f4573d6000803e3d6000fd5b50565b3373ffffffffffffffffffffffffffffffffffffffff16600360009054906101000a900473ffffffffffffffffffffffffffffffffffffffff1673ffffffffffffffffffffffffffffffffffffffff16141561088857600360009054906101000a900473ffffffffffffffffffffffffffffffffffffffff1673ffffffffffffffffffffffffffffffffffffffff16ff5b565b60056020528060005260406000206000915054906101000a900473ffffffffffffffffffffffffffffffffffffffff1681565b6000809054906101000a900473ffffffffffffffffffffffffffffffffffffffff1681565b6000809054906101000a900473ffffffffffffffffffffffffffffffffffffffff1673ffffffffffffffffffffffffffffffffffffffff163373ffffffffffffffffffffffffffffffffffffffff1614151561093d57600080fd5b8060078190555050565b6000600360009054906101000a900473ffffffffffffffffffffffffffffffffffffffff1673ffffffffffffffffffffffffffffffffffffffff1631905090565b6014828160048281548110151561099b57fe5b906000526020600020906004020160030154101515156109ba57600080fd5b836005600082815260200190815260200160002060009054906101000a900473ffffffffffffffffffffffffffffffffffffffff1673ffffffffffffffffffffffffffffffffffffffff163373ffffffffffffffffffffffffffffffffffffffff16141515610a2857600080fd5b83600486815481101515610a3857fe5b9060005260206000209060040201600101819055505050505050565b60075434141515610a6457600080fd5b600481815481101515610a7357fe5b90600052602060002090600402016002016000815480929190600101919050555050565b600033905090565b60028381600482815481101515610ab257fe5b90600052602060002090600402016003015410151515610ad157600080fd5b846005600082815260200190815260200160002060009054906101000a900473ffffffffffffffffffffffffffffffffffffffff1673ffffffffffffffffffffffffffffffffffffffff163373ffffffffffffffffffffffffffffffffffffffff16141515610b3f57600080fd5b8484600488815481101515610b5057fe5b90600052602060002090600402016000019190610b6e929190610f61565b50505050505050565b6000610b8282610cf8565b9050606481811515610b9057fe5b0681039050610b9f8282610d7a565b5050565b6000809054906101000a900473ffffffffffffffffffffffffffffffffffffffff1673ffffffffffffffffffffffffffffffffffffffff163373ffffffffffffffffffffffffffffffffffffffff16141515610bfe57600080fd5b600073ffffffffffffffffffffffffffffffffffffffff168173ffffffffffffffffffffffffffffffffffffffff1614151515610c3a57600080fd5b8073ffffffffffffffffffffffffffffffffffffffff166000809054906101000a900473ffffffffffffffffffffffffffffffffffffffff1673ffffffffffffffffffffffffffffffffffffffff167f8be0079c531659141344cd1fd0a4f28419497f9722a3daafe3b4186f6b6457e060405160405180910390a3806000806101000a81548173ffffffffffffffffffffffffffffffffffffffff021916908373ffffffffffffffffffffffffffffffffffffffff16021790555050565b600080826040518082805190602001908083835b602083101515610d315780518252602082019150602081019050602083039250610d0c565b6001836020036101000a038019825116818451168082178552505050505050905001915050604051809103902060019004905060025481811515610d7157fe5b06915050919050565b600060016004608060405190810160405280868152602001858152602001600181526020016000815250908060018154018082558091505090600182039060005260206000209060040201600090919290919091506000820151816000019080519060200190610deb929190610fe1565b506020820151816001015560408201518160020155606082015181600301555050039050336005600083815260200190815260200160002060006101000a81548173ffffffffffffffffffffffffffffffffffffffff021916908373ffffffffffffffffffffffffffffffffffffffff160217905550600660003373ffffffffffffffffffffffffffffffffffffffff1673ffffffffffffffffffffffffffffffffffffffff168152602001908152602001600020600081548092919060010191905055507fcb5c019df3d46f8fb328db304bcf1718af383e0eea729499ea9c5205c5a99c698184846040518084815260200180602001838152602001828103825284818151815260200191508051906020019080838360005b83811015610f20578082015181840152602081019050610f05565b50505050905090810190601f168015610f4d5780820380516001836020036101000a031916815260200191505b5094505050505060405180910390a1505050565b828054600181600116156101000203166002900490600052602060002090601f016020900481019282601f10610fa257803560ff1916838001178555610fd0565b82800160010185558215610fd0579182015b82811115610fcf578235825591602001919060010190610fb4565b5b509050610fdd9190611061565b5090565b828054600181600116156101000203166002900490600052602060002090601f016020900481019282601f1061102257805160ff1916838001178555611050565b82800160010185558215611050579182015b8281111561104f578251825591602001919060010190611034565b5b50905061105d9190611061565b5090565b61108391905b8082111561107f576000816000905550600101611067565b5090565b905600a165627a7a7230582060a704d076d14804b93fb887c4e6b4f14dc7159bc17adbf4deadcc71d8792bda0029",
					"opcodes": "PUSH1 0x80 PUSH1 0x40 MSTORE PUSH1 0x10 PUSH1 0x1 SSTORE PUSH1 0x1 SLOAD PUSH1 0xA EXP PUSH1 0x2 SSTORE PUSH6 0x5AF3107A4000 PUSH1 0x7 SSTORE CALLER PUSH1 0x0 DUP1 PUSH2 0x100 EXP DUP2 SLOAD DUP2 PUSH20 0xFFFFFFFFFFFFFFFFFFFFFFFFFFFFFFFFFFFFFFFF MUL NOT AND SWAP1 DUP4 PUSH20 0xFFFFFFFFFFFFFFFFFFFFFFFFFFFFFFFFFFFFFFFF AND MUL OR SWAP1 SSTORE POP CALLER PUSH1 0x3 PUSH1 0x0 PUSH2 0x100 EXP DUP2 SLOAD DUP2 PUSH20 0xFFFFFFFFFFFFFFFFFFFFFFFFFFFFFFFFFFFFFFFF MUL NOT AND SWAP1 DUP4 PUSH20 0xFFFFFFFFFFFFFFFFFFFFFFFFFFFFFFFFFFFFFFFF AND MUL OR SWAP1 SSTORE POP PUSH2 0x10B2 DUP1 PUSH2 0xAC PUSH1 0x0 CODECOPY PUSH1 0x0 RETURN STOP PUSH1 0x80 PUSH1 0x40 MSTORE PUSH1 0x4 CALLDATASIZE LT PUSH2 0xD0 JUMPI PUSH1 0x0 CALLDATALOAD PUSH29 0x100000000000000000000000000000000000000000000000000000000 SWAP1 DIV PUSH4 0xFFFFFFFF AND DUP1 PUSH4 0x2DC49FB6 EQ PUSH2 0xD5 JUMPI DUP1 PUSH4 0x300E88BD EQ PUSH2 0x16D JUMPI DUP1 PUSH4 0x3CCFD60B EQ PUSH2 0x228 JUMPI DUP1 PUSH4 0x41C0E1B5 EQ PUSH2 0x23F JUMPI DUP1 PUSH4 0x527C382F EQ PUSH2 0x256 JUMPI DUP1 PUSH4 0x8DA5CB5B EQ PUSH2 0x2C3 JUMPI DUP1 PUSH4 0x90B0722E EQ PUSH2 0x31A JUMPI DUP1 PUSH4 0x919840AD EQ PUSH2 0x347 JUMPI DUP1 PUSH4 0x934C4649 EQ PUSH2 0x372 JUMPI DUP1 PUSH4 0x9A6BD379 EQ PUSH2 0x3A9 JUMPI DUP1 PUSH4 0xBEE50CB4 EQ PUSH2 0x3C9 JUMPI DUP1 PUSH4 0xC39CBEF1 EQ PUSH2 0x420 JUMPI DUP1 PUSH4 0xE8D57580 EQ PUSH2 0x465 JUMPI DUP1 PUSH4 0xF2FDE38B EQ PUSH2 0x4CE JUMPI JUMPDEST PUSH1 0x0 DUP1 REVERT JUMPDEST CALLVALUE DUP1 ISZERO PUSH2 0xE1 JUMPI PUSH1 0x0 DUP1 REVERT JUMPDEST POP PUSH2 0x116 PUSH1 0x4 DUP1 CALLDATASIZE SUB DUP2 ADD SWAP1 DUP1 DUP1 CALLDATALOAD PUSH20 0xFFFFFFFFFFFFFFFFFFFFFFFFFFFFFFFFFFFFFFFF AND SWAP1 PUSH1 0x20 ADD SWAP1 SWAP3 SWAP2 SWAP1 POP POP POP PUSH2 0x511 JUMP JUMPDEST PUSH1 0x40 MLOAD DUP1 DUP1 PUSH1 0x20 ADD DUP3 DUP2 SUB DUP3 MSTORE DUP4 DUP2 DUP2 MLOAD DUP2 MSTORE PUSH1 0x20 ADD SWAP2 POP DUP1 MLOAD SWAP1 PUSH1 0x20 ADD SWAP1 PUSH1 0x20 MUL DUP1 DUP4 DUP4 PUSH1 0x0 JUMPDEST DUP4 DUP2 LT ISZERO PUSH2 0x159 JUMPI DUP1 DUP3 ADD MLOAD DUP2 DUP5 ADD MSTORE PUSH1 0x20 DUP2 ADD SWAP1 POP PUSH2 0x13E JUMP JUMPDEST POP POP POP POP SWAP1 POP ADD SWAP3 POP POP POP PUSH1 0x40 MLOAD DUP1 SWAP2 SUB SWAP1 RETURN JUMPDEST CALLVALUE DUP1 ISZERO PUSH2 0x179 JUMPI PUSH1 0x0 DUP1 REVERT JUMPDEST POP PUSH2 0x198 PUSH1 0x4 DUP1 CALLDATASIZE SUB DUP2 ADD SWAP1 DUP1 DUP1 CALLDATALOAD SWAP1 PUSH1 0x20 ADD SWAP1 SWAP3 SWAP2 SWAP1 POP POP POP PUSH2 0x643 JUMP JUMPDEST PUSH1 0x40 MLOAD DUP1 DUP1 PUSH1 0x20 ADD DUP6 DUP2 MSTORE PUSH1 0x20 ADD DUP5 DUP2 MSTORE PUSH1 0x20 ADD DUP4 DUP2 MSTORE PUSH1 0x20 ADD DUP3 DUP2 SUB DUP3 MSTORE DUP7 DUP2 DUP2 MLOAD DUP2 MSTORE PUSH1 0x20 ADD SWAP2 POP DUP1 MLOAD SWAP1 PUSH1 0x20 ADD SWAP1 DUP1 DUP4 DUP4 PUSH1 0x0 JUMPDEST DUP4 DUP2 LT ISZERO PUSH2 0x1EA JUMPI DUP1 DUP3 ADD MLOAD DUP2 DUP5 ADD MSTORE PUSH1 0x20 DUP2 ADD SWAP1 POP PUSH2 0x1CF JUMP JUMPDEST POP POP POP POP SWAP1 POP SWAP1 DUP2 ADD SWAP1 PUSH1 0x1F AND DUP1 ISZERO PUSH2 0x217 JUMPI DUP1 DUP3 SUB DUP1 MLOAD PUSH1 0x1 DUP4 PUSH1 0x20 SUB PUSH2 0x100 EXP SUB NOT AND DUP2 MSTORE PUSH1 0x20 ADD SWAP2 POP JUMPDEST POP SWAP6 POP POP POP POP POP POP PUSH1 0x40 MLOAD DUP1 SWAP2 SUB SWAP1 RETURN JUMPDEST CALLVALUE DUP1 ISZERO PUSH2 0x234 JUMPI PUSH1 0x0 DUP1 REVERT JUMPDEST POP PUSH2 0x23D PUSH2 0x71A JUMP JUMPDEST STOP JUMPDEST CALLVALUE DUP1 ISZERO PUSH2 0x24B JUMPI PUSH1 0x0 DUP1 REVERT JUMPDEST POP PUSH2 0x254 PUSH2 0x7F7 JUMP JUMPDEST STOP JUMPDEST CALLVALUE DUP1 ISZERO PUSH2 0x262 JUMPI PUSH1 0x0 DUP1 REVERT JUMPDEST POP PUSH2 0x281 PUSH1 0x4 DUP1 CALLDATASIZE SUB DUP2 ADD SWAP1 DUP1 DUP1 CALLDATALOAD SWAP1 PUSH1 0x20 ADD SWAP1 SWAP3 SWAP2 SWAP1 POP POP POP PUSH2 0x88A JUMP JUMPDEST PUSH1 0x40 MLOAD DUP1 DUP3 PUSH20 0xFFFFFFFFFFFFFFFFFFFFFFFFFFFFFFFFFFFFFFFF AND PUSH20 0xFFFFFFFFFFFFFFFFFFFFFFFFFFFFFFFFFFFFFFFF AND DUP2 MSTORE PUSH1 0x20 ADD SWAP2 POP POP PUSH1 0x40 MLOAD DUP1 SWAP2 SUB SWAP1 RETURN JUMPDEST CALLVALUE DUP1 ISZERO PUSH2 0x2CF JUMPI PUSH1 0x0 DUP1 REVERT JUMPDEST POP PUSH2 0x2D8 PUSH2 0x8BD JUMP JUMPDEST PUSH1 0x40 MLOAD DUP1 DUP3 PUSH20 0xFFFFFFFFFFFFFFFFFFFFFFFFFFFFFFFFFFFFFFFF AND PUSH20 0xFFFFFFFFFFFFFFFFFFFFFFFFFFFFFFFFFFFFFFFF AND DUP2 MSTORE PUSH1 0x20 ADD SWAP2 POP POP PUSH1 0x40 MLOAD DUP1 SWAP2 SUB SWAP1 RETURN JUMPDEST CALLVALUE DUP1 ISZERO PUSH2 0x326 JUMPI PUSH1 0x0 DUP1 REVERT JUMPDEST POP PUSH2 0x345 PUSH1 0x4 DUP1 CALLDATASIZE SUB DUP2 ADD SWAP1 DUP1 DUP1 CALLDATALOAD SWAP1 PUSH1 0x20 ADD SWAP1 SWAP3 SWAP2 SWAP1 POP POP POP PUSH2 0x8E2 JUMP JUMPDEST STOP JUMPDEST CALLVALUE DUP1 ISZERO PUSH2 0x353 JUMPI PUSH1 0x0 DUP1 REVERT JUMPDEST POP PUSH2 0x35C PUSH2 0x947 JUMP JUMPDEST PUSH1 0x40 MLOAD DUP1 DUP3 DUP2 MSTORE PUSH1 0x20 ADD SWAP2 POP POP PUSH1 0x40 MLOAD DUP1 SWAP2 SUB SWAP1 RETURN JUMPDEST CALLVALUE DUP1 ISZERO PUSH2 0x37E JUMPI PUSH1 0x0 DUP1 REVERT JUMPDEST POP PUSH2 0x3A7 PUSH1 0x4 DUP1 CALLDATASIZE SUB DUP2 ADD SWAP1 DUP1 DUP1 CALLDATALOAD SWAP1 PUSH1 0x20 ADD SWAP1 SWAP3 SWAP2 SWAP1 DUP1 CALLDATALOAD SWAP1 PUSH1 0x20 ADD SWAP1 SWAP3 SWAP2 SWAP1 POP POP POP PUSH2 0x988 JUMP JUMPDEST STOP JUMPDEST PUSH2 0x3C7 PUSH1 0x4 DUP1 CALLDATASIZE SUB DUP2 ADD SWAP1 DUP1 DUP1 CALLDATALOAD SWAP1 PUSH1 0x20 ADD SWAP1 SWAP3 SWAP2 SWAP1 POP POP POP PUSH2 0xA54 JUMP JUMPDEST STOP JUMPDEST CALLVALUE DUP1 ISZERO PUSH2 0x3D5 JUMPI PUSH1 0x0 DUP1 REVERT JUMPDEST POP PUSH2 0x3DE PUSH2 0xA97 JUMP JUMPDEST PUSH1 0x40 MLOAD DUP1 DUP3 PUSH20 0xFFFFFFFFFFFFFFFFFFFFFFFFFFFFFFFFFFFFFFFF AND PUSH20 0xFFFFFFFFFFFFFFFFFFFFFFFFFFFFFFFFFFFFFFFF AND DUP2 MSTORE PUSH1 0x20 ADD SWAP2 POP POP PUSH1 0x40 MLOAD DUP1 SWAP2 SUB SWAP1 RETURN JUMPDEST CALLVALUE DUP1 ISZERO PUSH2 0x42C JUMPI PUSH1 0x0 DUP1 REVERT JUMPDEST POP PUSH2 0x463 PUSH1 0x4 DUP1 CALLDATASIZE SUB DUP2 ADD SWAP1 DUP1 DUP1 CALLDATALOAD SWAP1 PUSH1 0x20 ADD SWAP1 SWAP3 SWAP2 SWAP1 DUP1 CALLDATALOAD SWAP1 PUSH1 0x20 ADD SWAP1 DUP3 ADD DUP1 CALLDATALOAD SWAP1 PUSH1 0x20 ADD SWAP2 SWAP1 SWAP2 SWAP3 SWAP4 SWAP2 SWAP3 SWAP4 SWAP1 POP POP POP PUSH2 0xA9F JUMP JUMPDEST STOP JUMPDEST CALLVALUE DUP1 ISZERO PUSH2 0x471 JUMPI PUSH1 0x0 DUP1 REVERT JUMPDEST POP PUSH2 0x4CC PUSH1 0x4 DUP1 CALLDATASIZE SUB DUP2 ADD SWAP1 DUP1 DUP1 CALLDATALOAD SWAP1 PUSH1 0x20 ADD SWAP1 DUP3 ADD DUP1 CALLDATALOAD SWAP1 PUSH1 0x20 ADD SWAP1 DUP1 DUP1 PUSH1 0x1F ADD PUSH1 0x20 DUP1 SWAP2 DIV MUL PUSH1 0x20 ADD PUSH1 0x40 MLOAD SWAP1 DUP2 ADD PUSH1 0x40 MSTORE DUP1 SWAP4 SWAP3 SWAP2 SWAP1 DUP2 DUP2 MSTORE PUSH1 0x20 ADD DUP4 DUP4 DUP1 DUP3 DUP5 CALLDATACOPY DUP3 ADD SWAP2 POP POP POP POP POP POP SWAP2 SWAP3 SWAP2 SWAP3 SWAP1 POP POP POP PUSH2 0xB77 JUMP JUMPDEST STOP JUMPDEST CALLVALUE DUP1 ISZERO PUSH2 0x4DA JUMPI PUSH1 0x0 DUP1 REVERT JUMPDEST POP PUSH2 0x50F PUSH1 0x4 DUP1 CALLDATASIZE SUB DUP2 ADD SWAP1 DUP1 DUP1 CALLDATALOAD PUSH20 0xFFFFFFFFFFFFFFFFFFFFFFFFFFFFFFFFFFFFFFFF AND SWAP1 PUSH1 0x20 ADD SWAP1 SWAP3 SWAP2 SWAP1 POP POP POP PUSH2 0xBA3 JUMP JUMPDEST STOP JUMPDEST PUSH1 0x60 DUP1 PUSH1 0x0 DUP1 PUSH1 0x6 PUSH1 0x0 DUP7 PUSH20 0xFFFFFFFFFFFFFFFFFFFFFFFFFFFFFFFFFFFFFFFF AND PUSH20 0xFFFFFFFFFFFFFFFFFFFFFFFFFFFFFFFFFFFFFFFF AND DUP2 MSTORE PUSH1 0x20 ADD SWAP1 DUP2 MSTORE PUSH1 0x20 ADD PUSH1 0x0 KECCAK256 SLOAD PUSH1 0x40 MLOAD SWAP1 DUP1 DUP3 MSTORE DUP1 PUSH1 0x20 MUL PUSH1 0x20 ADD DUP3 ADD PUSH1 0x40 MSTORE DUP1 ISZERO PUSH2 0x585 JUMPI DUP2 PUSH1 0x20 ADD PUSH1 0x20 DUP3 MUL DUP1 CODESIZE DUP4 CODECOPY DUP1 DUP3 ADD SWAP2 POP POP SWAP1 POP JUMPDEST POP SWAP3 POP PUSH1 0x0 SWAP2 POP PUSH1 0x0 SWAP1 POP JUMPDEST PUSH1 0x4 DUP1 SLOAD SWAP1 POP DUP2 LT ISZERO PUSH2 0x638 JUMPI DUP5 PUSH20 0xFFFFFFFFFFFFFFFFFFFFFFFFFFFFFFFFFFFFFFFF AND PUSH1 0x5 PUSH1 0x0 DUP4 DUP2 MSTORE PUSH1 0x20 ADD SWAP1 DUP2 MSTORE PUSH1 0x20 ADD PUSH1 0x0 KECCAK256 PUSH1 0x0 SWAP1 SLOAD SWAP1 PUSH2 0x100 EXP SWAP1 DIV PUSH20 0xFFFFFFFFFFFFFFFFFFFFFFFFFFFFFFFFFFFFFFFF AND PUSH20 0xFFFFFFFFFFFFFFFFFFFFFFFFFFFFFFFFFFFFFFFF AND EQ ISZERO PUSH2 0x62B JUMPI DUP1 DUP4 DUP4 DUP2 MLOAD DUP2 LT ISZERO ISZERO PUSH2 0x614 JUMPI INVALID JUMPDEST SWAP1 PUSH1 0x20 ADD SWAP1 PUSH1 0x20 MUL ADD DUP2 DUP2 MSTORE POP POP DUP2 DUP1 PUSH1 0x1 ADD SWAP3 POP POP JUMPDEST DUP1 DUP1 PUSH1 0x1 ADD SWAP2 POP POP PUSH2 0x591 JUMP JUMPDEST DUP3 SWAP4 POP POP POP POP SWAP2 SWAP1 POP JUMP JUMPDEST PUSH1 0x4 DUP2 DUP2 SLOAD DUP2 LT ISZERO ISZERO PUSH2 0x652 JUMPI INVALID JUMPDEST SWAP1 PUSH1 0x0 MSTORE PUSH1 0x20 PUSH1 0x0 KECCAK256 SWAP1 PUSH1 0x4 MUL ADD PUSH1 0x0 SWAP2 POP SWAP1 POP DUP1 PUSH1 0x0 ADD DUP1 SLOAD PUSH1 0x1 DUP2 PUSH1 0x1 AND ISZERO PUSH2 0x100 MUL SUB AND PUSH1 0x2 SWAP1 DIV DUP1 PUSH1 0x1F ADD PUSH1 0x20 DUP1 SWAP2 DIV MUL PUSH1 0x20 ADD PUSH1 0x40 MLOAD SWAP1 DUP2 ADD PUSH1 0x40 MSTORE DUP1 SWAP3 SWAP2 SWAP1 DUP2 DUP2 MSTORE PUSH1 0x20 ADD DUP3 DUP1 SLOAD PUSH1 0x1 DUP2 PUSH1 0x1 AND ISZERO PUSH2 0x100 MUL SUB AND PUSH1 0x2 SWAP1 DIV DUP1 ISZERO PUSH2 0x6FE JUMPI DUP1 PUSH1 0x1F LT PUSH2 0x6D3 JUMPI PUSH2 0x100 DUP1 DUP4 SLOAD DIV MUL DUP4 MSTORE SWAP2 PUSH1 0x20 ADD SWAP2 PUSH2 0x6FE JUMP JUMPDEST DUP3 ADD SWAP2 SWAP1 PUSH1 0x0 MSTORE PUSH1 0x20 PUSH1 0x0 KECCAK256 SWAP1 JUMPDEST DUP2 SLOAD DUP2 MSTORE SWAP1 PUSH1 0x1 ADD SWAP1 PUSH1 0x20 ADD DUP1 DUP4 GT PUSH2 0x6E1 JUMPI DUP3 SWAP1 SUB PUSH1 0x1F AND DUP3 ADD SWAP2 JUMPDEST POP POP POP POP POP SWAP1 DUP1 PUSH1 0x1 ADD SLOAD SWAP1 DUP1 PUSH1 0x2 ADD SLOAD SWAP1 DUP1 PUSH1 0x3 ADD SLOAD SWAP1 POP DUP5 JUMP JUMPDEST PUSH1 0x0 DUP1 SWAP1 SLOAD SWAP1 PUSH2 0x100 EXP SWAP1 DIV PUSH20 0xFFFFFFFFFFFFFFFFFFFFFFFFFFFFFFFFFFFFFFFF AND PUSH20 0xFFFFFFFFFFFFFFFFFFFFFFFFFFFFFFFFFFFFFFFF AND CALLER PUSH20 0xFFFFFFFFFFFFFFFFFFFFFFFFFFFFFFFFFFFFFFFF AND EQ ISZERO ISZERO PUSH2 0x775 JUMPI PUSH1 0x0 DUP1 REVERT JUMPDEST PUSH1 0x3 PUSH1 0x0 SWAP1 SLOAD SWAP1 PUSH2 0x100 EXP SWAP1 DIV PUSH20 0xFFFFFFFFFFFFFFFFFFFFFFFFFFFFFFFFFFFFFFFF AND PUSH20 0xFFFFFFFFFFFFFFFFFFFFFFFFFFFFFFFFFFFFFFFF AND PUSH2 0x8FC ADDRESS PUSH20 0xFFFFFFFFFFFFFFFFFFFFFFFFFFFFFFFFFFFFFFFF AND BALANCE SWAP1 DUP2 ISZERO MUL SWAP1 PUSH1 0x40 MLOAD PUSH1 0x0 PUSH1 0x40 MLOAD DUP1 DUP4 SUB DUP2 DUP6 DUP9 DUP9 CALL SWAP4 POP POP POP POP ISZERO DUP1 ISZERO PUSH2 0x7F4 JUMPI RETURNDATASIZE PUSH1 0x0 DUP1 RETURNDATACOPY RETURNDATASIZE PUSH1 0x0 REVERT JUMPDEST POP JUMP JUMPDEST CALLER PUSH20 0xFFFFFFFFFFFFFFFFFFFFFFFFFFFFFFFFFFFFFFFF AND PUSH1 0x3 PUSH1 0x0 SWAP1 SLOAD SWAP1 PUSH2 0x100 EXP SWAP1 DIV PUSH20 0xFFFFFFFFFFFFFFFFFFFFFFFFFFFFFFFFFFFFFFFF AND PUSH20 0xFFFFFFFFFFFFFFFFFFFFFFFFFFFFFFFFFFFFFFFF AND EQ ISZERO PUSH2 0x888 JUMPI PUSH1 0x3 PUSH1 0x0 SWAP1 SLOAD SWAP1 PUSH2 0x100 EXP SWAP1 DIV PUSH20 0xFFFFFFFFFFFFFFFFFFFFFFFFFFFFFFFFFFFFFFFF AND PUSH20 0xFFFFFFFFFFFFFFFFFFFFFFFFFFFFFFFFFFFFFFFF AND SELFDESTRUCT JUMPDEST JUMP JUMPDEST PUSH1 0x5 PUSH1 0x20 MSTORE DUP1 PUSH1 0x0 MSTORE PUSH1 0x40 PUSH1 0x0 KECCAK256 PUSH1 0x0 SWAP2 POP SLOAD SWAP1 PUSH2 0x100 EXP SWAP1 DIV PUSH20 0xFFFFFFFFFFFFFFFFFFFFFFFFFFFFFFFFFFFFFFFF AND DUP2 JUMP JUMPDEST PUSH1 0x0 DUP1 SWAP1 SLOAD SWAP1 PUSH2 0x100 EXP SWAP1 DIV PUSH20 0xFFFFFFFFFFFFFFFFFFFFFFFFFFFFFFFFFFFFFFFF AND DUP2 JUMP JUMPDEST PUSH1 0x0 DUP1 SWAP1 SLOAD SWAP1 PUSH2 0x100 EXP SWAP1 DIV PUSH20 0xFFFFFFFFFFFFFFFFFFFFFFFFFFFFFFFFFFFFFFFF AND PUSH20 0xFFFFFFFFFFFFFFFFFFFFFFFFFFFFFFFFFFFFFFFF AND CALLER PUSH20 0xFFFFFFFFFFFFFFFFFFFFFFFFFFFFFFFFFFFFFFFF AND EQ ISZERO ISZERO PUSH2 0x93D JUMPI PUSH1 0x0 DUP1 REVERT JUMPDEST DUP1 PUSH1 0x7 DUP2 SWAP1 SSTORE POP POP JUMP JUMPDEST PUSH1 0x0 PUSH1 0x3 PUSH1 0x0 SWAP1 SLOAD SWAP1 PUSH2 0x100 EXP SWAP1 DIV PUSH20 0xFFFFFFFFFFFFFFFFFFFFFFFFFFFFFFFFFFFFFFFF AND PUSH20 0xFFFFFFFFFFFFFFFFFFFFFFFFFFFFFFFFFFFFFFFF AND BALANCE SWAP1 POP SWAP1 JUMP JUMPDEST PUSH1 0x14 DUP3 DUP2 PUSH1 0x4 DUP3 DUP2 SLOAD DUP2 LT ISZERO ISZERO PUSH2 0x99B JUMPI INVALID JUMPDEST SWAP1 PUSH1 0x0 MSTORE PUSH1 0x20 PUSH1 0x0 KECCAK256 SWAP1 PUSH1 0x4 MUL ADD PUSH1 0x3 ADD SLOAD LT ISZERO ISZERO ISZERO PUSH2 0x9BA JUMPI PUSH1 0x0 DUP1 REVERT JUMPDEST DUP4 PUSH1 0x5 PUSH1 0x0 DUP3 DUP2 MSTORE PUSH1 0x20 ADD SWAP1 DUP2 MSTORE PUSH1 0x20 ADD PUSH1 0x0 KECCAK256 PUSH1 0x0 SWAP1 SLOAD SWAP1 PUSH2 0x100 EXP SWAP1 DIV PUSH20 0xFFFFFFFFFFFFFFFFFFFFFFFFFFFFFFFFFFFFFFFF AND PUSH20 0xFFFFFFFFFFFFFFFFFFFFFFFFFFFFFFFFFFFFFFFF AND CALLER PUSH20 0xFFFFFFFFFFFFFFFFFFFFFFFFFFFFFFFFFFFFFFFF AND EQ ISZERO ISZERO PUSH2 0xA28 JUMPI PUSH1 0x0 DUP1 REVERT JUMPDEST DUP4 PUSH1 0x4 DUP7 DUP2 SLOAD DUP2 LT ISZERO ISZERO PUSH2 0xA38 JUMPI INVALID JUMPDEST SWAP1 PUSH1 0x0 MSTORE PUSH1 0x20 PUSH1 0x0 KECCAK256 SWAP1 PUSH1 0x4 MUL ADD PUSH1 0x1 ADD DUP2 SWAP1 SSTORE POP POP POP POP POP POP JUMP JUMPDEST PUSH1 0x7 SLOAD CALLVALUE EQ ISZERO ISZERO PUSH2 0xA64 JUMPI PUSH1 0x0 DUP1 REVERT JUMPDEST PUSH1 0x4 DUP2 DUP2 SLOAD DUP2 LT ISZERO ISZERO PUSH2 0xA73 JUMPI INVALID JUMPDEST SWAP1 PUSH1 0x0 MSTORE PUSH1 0x20 PUSH1 0x0 KECCAK256 SWAP1 PUSH1 0x4 MUL ADD PUSH1 0x2 ADD PUSH1 0x0 DUP2 SLOAD DUP1 SWAP3 SWAP2 SWAP1 PUSH1 0x1 ADD SWAP2 SWAP1 POP SSTORE POP POP JUMP JUMPDEST PUSH1 0x0 CALLER SWAP1 POP SWAP1 JUMP JUMPDEST PUSH1 0x2 DUP4 DUP2 PUSH1 0x4 DUP3 DUP2 SLOAD DUP2 LT ISZERO ISZERO PUSH2 0xAB2 JUMPI INVALID JUMPDEST SWAP1 PUSH1 0x0 MSTORE PUSH1 0x20 PUSH1 0x0 KECCAK256 SWAP1 PUSH1 0x4 MUL ADD PUSH1 0x3 ADD SLOAD LT ISZERO ISZERO ISZERO PUSH2 0xAD1 JUMPI PUSH1 0x0 DUP1 REVERT JUMPDEST DUP5 PUSH1 0x5 PUSH1 0x0 DUP3 DUP2 MSTORE PUSH1 0x20 ADD SWAP1 DUP2 MSTORE PUSH1 0x20 ADD PUSH1 0x0 KECCAK256 PUSH1 0x0 SWAP1 SLOAD SWAP1 PUSH2 0x100 EXP SWAP1 DIV PUSH20 0xFFFFFFFFFFFFFFFFFFFFFFFFFFFFFFFFFFFFFFFF AND PUSH20 0xFFFFFFFFFFFFFFFFFFFFFFFFFFFFFFFFFFFFFFFF AND CALLER PUSH20 0xFFFFFFFFFFFFFFFFFFFFFFFFFFFFFFFFFFFFFFFF AND EQ ISZERO ISZERO PUSH2 0xB3F JUMPI PUSH1 0x0 DUP1 REVERT JUMPDEST DUP5 DUP5 PUSH1 0x4 DUP9 DUP2 SLOAD DUP2 LT ISZERO ISZERO PUSH2 0xB50 JUMPI INVALID JUMPDEST SWAP1 PUSH1 0x0 MSTORE PUSH1 0x20 PUSH1 0x0 KECCAK256 SWAP1 PUSH1 0x4 MUL ADD PUSH1 0x0 ADD SWAP2 SWAP1 PUSH2 0xB6E SWAP3 SWAP2 SWAP1 PUSH2 0xF61 JUMP JUMPDEST POP POP POP POP POP POP POP JUMP JUMPDEST PUSH1 0x0 PUSH2 0xB82 DUP3 PUSH2 0xCF8 JUMP JUMPDEST SWAP1 POP PUSH1 0x64 DUP2 DUP2 ISZERO ISZERO PUSH2 0xB90 JUMPI INVALID JUMPDEST MOD DUP2 SUB SWAP1 POP PUSH2 0xB9F DUP3 DUP3 PUSH2 0xD7A JUMP JUMPDEST POP POP JUMP JUMPDEST PUSH1 0x0 DUP1 SWAP1 SLOAD SWAP1 PUSH2 0x100 EXP SWAP1 DIV PUSH20 0xFFFFFFFFFFFFFFFFFFFFFFFFFFFFFFFFFFFFFFFF AND PUSH20 0xFFFFFFFFFFFFFFFFFFFFFFFFFFFFFFFFFFFFFFFF AND CALLER PUSH20 0xFFFFFFFFFFFFFFFFFFFFFFFFFFFFFFFFFFFFFFFF AND EQ ISZERO ISZERO PUSH2 0xBFE JUMPI PUSH1 0x0 DUP1 REVERT JUMPDEST PUSH1 0x0 PUSH20 0xFFFFFFFFFFFFFFFFFFFFFFFFFFFFFFFFFFFFFFFF AND DUP2 PUSH20 0xFFFFFFFFFFFFFFFFFFFFFFFFFFFFFFFFFFFFFFFF AND EQ ISZERO ISZERO ISZERO PUSH2 0xC3A JUMPI PUSH1 0x0 DUP1 REVERT JUMPDEST DUP1 PUSH20 0xFFFFFFFFFFFFFFFFFFFFFFFFFFFFFFFFFFFFFFFF AND PUSH1 0x0 DUP1 SWAP1 SLOAD SWAP1 PUSH2 0x100 EXP SWAP1 DIV PUSH20 0xFFFFFFFFFFFFFFFFFFFFFFFFFFFFFFFFFFFFFFFF AND PUSH20 0xFFFFFFFFFFFFFFFFFFFFFFFFFFFFFFFFFFFFFFFF AND PUSH32 0x8BE0079C531659141344CD1FD0A4F28419497F9722A3DAAFE3B4186F6B6457E0 PUSH1 0x40 MLOAD PUSH1 0x40 MLOAD DUP1 SWAP2 SUB SWAP1 LOG3 DUP1 PUSH1 0x0 DUP1 PUSH2 0x100 EXP DUP2 SLOAD DUP2 PUSH20 0xFFFFFFFFFFFFFFFFFFFFFFFFFFFFFFFFFFFFFFFF MUL NOT AND SWAP1 DUP4 PUSH20 0xFFFFFFFFFFFFFFFFFFFFFFFFFFFFFFFFFFFFFFFF AND MUL OR SWAP1 SSTORE POP POP JUMP JUMPDEST PUSH1 0x0 DUP1 DUP3 PUSH1 0x40 MLOAD DUP1 DUP3 DUP1 MLOAD SWAP1 PUSH1 0x20 ADD SWAP1 DUP1 DUP4 DUP4 JUMPDEST PUSH1 0x20 DUP4 LT ISZERO ISZERO PUSH2 0xD31 JUMPI DUP1 MLOAD DUP3 MSTORE PUSH1 0x20 DUP3 ADD SWAP2 POP PUSH1 0x20 DUP2 ADD SWAP1 POP PUSH1 0x20 DUP4 SUB SWAP3 POP PUSH2 0xD0C JUMP JUMPDEST PUSH1 0x1 DUP4 PUSH1 0x20 SUB PUSH2 0x100 EXP SUB DUP1 NOT DUP3 MLOAD AND DUP2 DUP5 MLOAD AND DUP1 DUP3 OR DUP6 MSTORE POP POP POP POP POP POP SWAP1 POP ADD SWAP2 POP POP PUSH1 0x40 MLOAD DUP1 SWAP2 SUB SWAP1 KECCAK256 PUSH1 0x1 SWAP1 DIV SWAP1 POP PUSH1 0x2 SLOAD DUP2 DUP2 ISZERO ISZERO PUSH2 0xD71 JUMPI INVALID JUMPDEST MOD SWAP2 POP POP SWAP2 SWAP1 POP JUMP JUMPDEST PUSH1 0x0 PUSH1 0x1 PUSH1 0x4 PUSH1 0x80 PUSH1 0x40 MLOAD SWAP1 DUP2 ADD PUSH1 0x40 MSTORE DUP1 DUP7 DUP2 MSTORE PUSH1 0x20 ADD DUP6 DUP2 MSTORE PUSH1 0x20 ADD PUSH1 0x1 DUP2 MSTORE PUSH1 0x20 ADD PUSH1 0x0 DUP2 MSTORE POP SWAP1 DUP1 PUSH1 0x1 DUP2 SLOAD ADD DUP1 DUP3 SSTORE DUP1 SWAP2 POP POP SWAP1 PUSH1 0x1 DUP3 SUB SWAP1 PUSH1 0x0 MSTORE PUSH1 0x20 PUSH1 0x0 KECCAK256 SWAP1 PUSH1 0x4 MUL ADD PUSH1 0x0 SWAP1 SWAP2 SWAP3 SWAP1 SWAP2 SWAP1 SWAP2 POP PUSH1 0x0 DUP3 ADD MLOAD DUP2 PUSH1 0x0 ADD SWAP1 DUP1 MLOAD SWAP1 PUSH1 0x20 ADD SWAP1 PUSH2 0xDEB SWAP3 SWAP2 SWAP1 PUSH2 0xFE1 JUMP JUMPDEST POP PUSH1 0x20 DUP3 ADD MLOAD DUP2 PUSH1 0x1 ADD SSTORE PUSH1 0x40 DUP3 ADD MLOAD DUP2 PUSH1 0x2 ADD SSTORE PUSH1 0x60 DUP3 ADD MLOAD DUP2 PUSH1 0x3 ADD SSTORE POP POP SUB SWAP1 POP CALLER PUSH1 0x5 PUSH1 0x0 DUP4 DUP2 MSTORE PUSH1 0x20 ADD SWAP1 DUP2 MSTORE PUSH1 0x20 ADD PUSH1 0x0 KECCAK256 PUSH1 0x0 PUSH2 0x100 EXP DUP2 SLOAD DUP2 PUSH20 0xFFFFFFFFFFFFFFFFFFFFFFFFFFFFFFFFFFFFFFFF MUL NOT AND SWAP1 DUP4 PUSH20 0xFFFFFFFFFFFFFFFFFFFFFFFFFFFFFFFFFFFFFFFF AND MUL OR SWAP1 SSTORE POP PUSH1 0x6 PUSH1 0x0 CALLER PUSH20 0xFFFFFFFFFFFFFFFFFFFFFFFFFFFFFFFFFFFFFFFF AND PUSH20 0xFFFFFFFFFFFFFFFFFFFFFFFFFFFFFFFFFFFFFFFF AND DUP2 MSTORE PUSH1 0x20 ADD SWAP1 DUP2 MSTORE PUSH1 0x20 ADD PUSH1 0x0 KECCAK256 PUSH1 0x0 DUP2 SLOAD DUP1 SWAP3 SWAP2 SWAP1 PUSH1 0x1 ADD SWAP2 SWAP1 POP SSTORE POP PUSH32 0xCB5C019DF3D46F8FB328DB304BCF1718AF383E0EEA729499EA9C5205C5A99C69 DUP2 DUP5 DUP5 PUSH1 0x40 MLOAD DUP1 DUP5 DUP2 MSTORE PUSH1 0x20 ADD DUP1 PUSH1 0x20 ADD DUP4 DUP2 MSTORE PUSH1 0x20 ADD DUP3 DUP2 SUB DUP3 MSTORE DUP5 DUP2 DUP2 MLOAD DUP2 MSTORE PUSH1 0x20 ADD SWAP2 POP DUP1 MLOAD SWAP1 PUSH1 0x20 ADD SWAP1 DUP1 DUP4 DUP4 PUSH1 0x0 JUMPDEST DUP4 DUP2 LT ISZERO PUSH2 0xF20 JUMPI DUP1 DUP3 ADD MLOAD DUP2 DUP5 ADD MSTORE PUSH1 0x20 DUP2 ADD SWAP1 POP PUSH2 0xF05 JUMP JUMPDEST POP POP POP POP SWAP1 POP SWAP1 DUP2 ADD SWAP1 PUSH1 0x1F AND DUP1 ISZERO PUSH2 0xF4D JUMPI DUP1 DUP3 SUB DUP1 MLOAD PUSH1 0x1 DUP4 PUSH1 0x20 SUB PUSH2 0x100 EXP SUB NOT AND DUP2 MSTORE PUSH1 0x20 ADD SWAP2 POP JUMPDEST POP SWAP5 POP POP POP POP POP PUSH1 0x40 MLOAD DUP1 SWAP2 SUB SWAP1 LOG1 POP POP POP JUMP JUMPDEST DUP3 DUP1 SLOAD PUSH1 0x1 DUP2 PUSH1 0x1 AND ISZERO PUSH2 0x100 MUL SUB AND PUSH1 0x2 SWAP1 DIV SWAP1 PUSH1 0x0 MSTORE PUSH1 0x20 PUSH1 0x0 KECCAK256 SWAP1 PUSH1 0x1F ADD PUSH1 0x20 SWAP1 DIV DUP2 ADD SWAP3 DUP3 PUSH1 0x1F LT PUSH2 0xFA2 JUMPI DUP1 CALLDATALOAD PUSH1 0xFF NOT AND DUP4 DUP1 ADD OR DUP6 SSTORE PUSH2 0xFD0 JUMP JUMPDEST DUP3 DUP1 ADD PUSH1 0x1 ADD DUP6 SSTORE DUP3 ISZERO PUSH2 0xFD0 JUMPI SWAP2 DUP3 ADD JUMPDEST DUP3 DUP2 GT ISZERO PUSH2 0xFCF JUMPI DUP3 CALLDATALOAD DUP3 SSTORE SWAP2 PUSH1 0x20 ADD SWAP2 SWAP1 PUSH1 0x1 ADD SWAP1 PUSH2 0xFB4 JUMP JUMPDEST JUMPDEST POP SWAP1 POP PUSH2 0xFDD SWAP2 SWAP1 PUSH2 0x1061 JUMP JUMPDEST POP SWAP1 JUMP JUMPDEST DUP3 DUP1 SLOAD PUSH1 0x1 DUP2 PUSH1 0x1 AND ISZERO PUSH2 0x100 MUL SUB AND PUSH1 0x2 SWAP1 DIV SWAP1 PUSH1 0x0 MSTORE PUSH1 0x20 PUSH1 0x0 KECCAK256 SWAP1 PUSH1 0x1F ADD PUSH1 0x20 SWAP1 DIV DUP2 ADD SWAP3 DUP3 PUSH1 0x1F LT PUSH2 0x1022 JUMPI DUP1 MLOAD PUSH1 0xFF NOT AND DUP4 DUP1 ADD OR DUP6 SSTORE PUSH2 0x1050 JUMP JUMPDEST DUP3 DUP1 ADD PUSH1 0x1 ADD DUP6 SSTORE DUP3 ISZERO PUSH2 0x1050 JUMPI SWAP2 DUP3 ADD JUMPDEST DUP3 DUP2 GT ISZERO PUSH2 0x104F JUMPI DUP3 MLOAD DUP3 SSTORE SWAP2 PUSH1 0x20 ADD SWAP2 SWAP1 PUSH1 0x1 ADD SWAP1 PUSH2 0x1034 JUMP JUMPDEST JUMPDEST POP SWAP1 POP PUSH2 0x105D SWAP2 SWAP1 PUSH2 0x1061 JUMP JUMPDEST POP SWAP1 JUMP JUMPDEST PUSH2 0x1083 SWAP2 SWAP1 JUMPDEST DUP1 DUP3 GT ISZERO PUSH2 0x107F JUMPI PUSH1 0x0 DUP2 PUSH1 0x0 SWAP1 SSTORE POP PUSH1 0x1 ADD PUSH2 0x1067 JUMP JUMPDEST POP SWAP1 JUMP JUMPDEST SWAP1 JUMP STOP LOG1 PUSH6 0x627A7A723058 KECCAK256 PUSH1 0xA7 DIV 0xd0 PUSH23 0xD14804B93FB887C4E6B4F14DC7159BC17ADBF4DEADCC71 0xd8 PUSH26 0x2BDA002900000000000000000000000000000000000000000000 "
				},
				"gasEstimates": {
					"creation": {
						"codeDepositCost": "854800",
						"executionCost": "101679",
						"totalCost": "956479"
					},
					"external": {
						"changeName(uint256,string)": "infinite",
						"changeRna(uint256,uint256)": "21617",
						"check()": "998",
						"createRandomVaccine(string)": "infinite",
						"getVaccinesByOwner(address)": "infinite",
						"kill()": "30707",
						"owner()": "552",
						"powerUp(uint256)": "21133",
						"setPowerUpFee(uint256)": "20613",
						"transferOwnership(address)": "22851",
						"vaccineToOwner(uint256)": "651",
						"vaccines(uint256)": "infinite",
						"whoRU()": "433",
						"withdraw()": "infinite"
					}
				},
				"methodIdentifiers": {
					"changeName(uint256,string)": "c39cbef1",
					"changeRna(uint256,uint256)": "934c4649",
					"check()": "919840ad",
					"createRandomVaccine(string)": "e8d57580",
					"getVaccinesByOwner(address)": "2dc49fb6",
					"kill()": "41c0e1b5",
					"owner()": "8da5cb5b",
					"powerUp(uint256)": "9a6bd379",
					"setPowerUpFee(uint256)": "90b0722e",
					"transferOwnership(address)": "f2fde38b",
					"vaccineToOwner(uint256)": "527c382f",
					"vaccines(uint256)": "300e88bd",
					"whoRU()": "bee50cb4",
					"withdraw()": "3ccfd60b"
				}
			},
			"userdoc": {
				"methods": {}
			}
		}
	}
}