{
	"contracts/test.sol": {
		"C": {
			"abi": [
				{
					"constant": true,
					"inputs": [],
					"name": "x",
					"outputs": [
						{
							"name": "",
							"type": "uint256"
						}
					],
					"payable": false,
					"stateMutability": "view",
					"type": "function"
				},
				{
					"constant": false,
					"inputs": [],
					"name": "g",
					"outputs": [
						{
							"name": "",
							"type": "uint256"
						}
					],
					"payable": false,
					"stateMutability": "nonpayable",
					"type": "function"
				}
			],
			"devdoc": {
				"methods": {}
			},
			"evm": {
				"assembly": "    /* \"contracts/test.sol\":180:261  contract C is A {\r... */\n  mstore(0x40, 0x80)\n    /* \"contracts/test.sol\":62:64  10 */\n  0xa\n    /* \"contracts/test.sol\":46:64  uint public x = 10 */\n  0x0\n  sstore\n    /* \"contracts/test.sol\":180:261  contract C is A {\r... */\n  callvalue\n    /* \"--CODEGEN--\":8:17   */\n  dup1\n    /* \"--CODEGEN--\":5:7   */\n  iszero\n  tag_1\n  jumpi\n    /* \"--CODEGEN--\":30:31   */\n  0x0\n    /* \"--CODEGEN--\":27:28   */\n  dup1\n    /* \"--CODEGEN--\":20:32   */\n  revert\n    /* \"--CODEGEN--\":5:7   */\ntag_1:\n    /* \"contracts/test.sol\":180:261  contract C is A {\r... */\n  pop\n  dataSize(sub_0)\n  dup1\n  dataOffset(sub_0)\n  0x0\n  codecopy\n  0x0\n  return\nstop\n\nsub_0: assembly {\n        /* \"contracts/test.sol\":180:261  contract C is A {\r... */\n      mstore(0x40, 0x80)\n      jumpi(tag_1, lt(calldatasize, 0x4))\n      calldataload(0x0)\n      0x100000000000000000000000000000000000000000000000000000000\n      swap1\n      div\n      0xffffffff\n      and\n      dup1\n      0xc55699c\n      eq\n      tag_2\n      jumpi\n      dup1\n      0xe2179b8e\n      eq\n      tag_3\n      jumpi\n    tag_1:\n      0x0\n      dup1\n      revert\n        /* \"contracts/test.sol\":46:64  uint public x = 10 */\n    tag_2:\n      callvalue\n        /* \"--CODEGEN--\":8:17   */\n      dup1\n        /* \"--CODEGEN--\":5:7   */\n      iszero\n      tag_4\n      jumpi\n        /* \"--CODEGEN--\":30:31   */\n      0x0\n        /* \"--CODEGEN--\":27:28   */\n      dup1\n        /* \"--CODEGEN--\":20:32   */\n      revert\n        /* \"--CODEGEN--\":5:7   */\n    tag_4:\n        /* \"contracts/test.sol\":46:64  uint public x = 10 */\n      pop\n      tag_5\n      jump(tag_6)\n    tag_5:\n      mload(0x40)\n      dup1\n      dup3\n      dup2\n      mstore\n      0x20\n      add\n      swap2\n      pop\n      pop\n      mload(0x40)\n      dup1\n      swap2\n      sub\n      swap1\n      return\n        /* \"contracts/test.sol\":203:258  function g() returns (uint) {\r... */\n    tag_3:\n      callvalue\n        /* \"--CODEGEN--\":8:17   */\n      dup1\n        /* \"--CODEGEN--\":5:7   */\n      iszero\n      tag_7\n      jumpi\n        /* \"--CODEGEN--\":30:31   */\n      0x0\n        /* \"--CODEGEN--\":27:28   */\n      dup1\n        /* \"--CODEGEN--\":20:32   */\n      revert\n        /* \"--CODEGEN--\":5:7   */\n    tag_7:\n        /* \"contracts/test.sol\":203:258  function g() returns (uint) {\r... */\n      pop\n      tag_8\n      jump(tag_9)\n    tag_8:\n      mload(0x40)\n      dup1\n      dup3\n      dup2\n      mstore\n      0x20\n      add\n      swap2\n      pop\n      pop\n      mload(0x40)\n      dup1\n      swap2\n      sub\n      swap1\n      return\n        /* \"contracts/test.sol\":46:64  uint public x = 10 */\n    tag_6:\n      sload(0x0)\n      dup2\n      jump\t// out\n        /* \"contracts/test.sol\":203:258  function g() returns (uint) {\r... */\n    tag_9:\n        /* \"contracts/test.sol\":225:229  uint */\n      0x0\n        /* \"contracts/test.sol\":249:250  x */\n      dup1\n      sload\n        /* \"contracts/test.sol\":242:250  return x */\n      swap1\n      pop\n        /* \"contracts/test.sol\":203:258  function g() returns (uint) {\r... */\n      swap1\n      jump\t// out\n\n    auxdata: 0xa165627a7a72305820d93432d7f799a5fdee6be86cdf1c272524a6594f90b54fcdf5a34dc01dc7d37c0029\n}\n",
				"bytecode": {
					"linkReferences": {},
					"object": "6080604052600a60005534801561001557600080fd5b5060d9806100246000396000f3006080604052600436106049576000357c0100000000000000000000000000000000000000000000000000000000900463ffffffff1680630c55699c14604e578063e2179b8e146076575b600080fd5b348015605957600080fd5b506060609e565b6040518082815260200191505060405180910390f35b348015608157600080fd5b50608860a4565b6040518082815260200191505060405180910390f35b60005481565b600080549050905600a165627a7a72305820d93432d7f799a5fdee6be86cdf1c272524a6594f90b54fcdf5a34dc01dc7d37c0029",
					"opcodes": "PUSH1 0x80 PUSH1 0x40 MSTORE PUSH1 0xA PUSH1 0x0 SSTORE CALLVALUE DUP1 ISZERO PUSH2 0x15 JUMPI PUSH1 0x0 DUP1 REVERT JUMPDEST POP PUSH1 0xD9 DUP1 PUSH2 0x24 PUSH1 0x0 CODECOPY PUSH1 0x0 RETURN STOP PUSH1 0x80 PUSH1 0x40 MSTORE PUSH1 0x4 CALLDATASIZE LT PUSH1 0x49 JUMPI PUSH1 0x0 CALLDATALOAD PUSH29 0x100000000000000000000000000000000000000000000000000000000 SWAP1 DIV PUSH4 0xFFFFFFFF AND DUP1 PUSH4 0xC55699C EQ PUSH1 0x4E JUMPI DUP1 PUSH4 0xE2179B8E EQ PUSH1 0x76 JUMPI JUMPDEST PUSH1 0x0 DUP1 REVERT JUMPDEST CALLVALUE DUP1 ISZERO PUSH1 0x59 JUMPI PUSH1 0x0 DUP1 REVERT JUMPDEST POP PUSH1 0x60 PUSH1 0x9E JUMP JUMPDEST PUSH1 0x40 MLOAD DUP1 DUP3 DUP2 MSTORE PUSH1 0x20 ADD SWAP2 POP POP PUSH1 0x40 MLOAD DUP1 SWAP2 SUB SWAP1 RETURN JUMPDEST CALLVALUE DUP1 ISZERO PUSH1 0x81 JUMPI PUSH1 0x0 DUP1 REVERT JUMPDEST POP PUSH1 0x88 PUSH1 0xA4 JUMP JUMPDEST PUSH1 0x40 MLOAD DUP1 DUP3 DUP2 MSTORE PUSH1 0x20 ADD SWAP2 POP POP PUSH1 0x40 MLOAD DUP1 SWAP2 SUB SWAP1 RETURN JUMPDEST PUSH1 0x0 SLOAD DUP2 JUMP JUMPDEST PUSH1 0x0 DUP1 SLOAD SWAP1 POP SWAP1 JUMP STOP LOG1 PUSH6 0x627A7A723058 KECCAK256 0xd9 CALLVALUE ORIGIN 0xd7 0xf7 SWAP10 0xa5 REVERT 0xee PUSH12 0xE86CDF1C272524A6594F90B5 0x4f 0xcd 0xf5 LOG3 0x4d 0xc0 SAR 0xc7 0xd3 PUSH29 0x29000000000000000000000000000000000000000000000000000000 "
				},
				"gasEstimates": {
					"creation": {
						"codeDepositCost": "43400",
						"executionCost": "20099",
						"totalCost": "63499"
					},
					"external": {
						"g()": "424",
						"x()": "394"
					}
				},
				"methodIdentifiers": {
					"g()": "e2179b8e",
					"x()": "0c55699c"
				}
			},
			"userdoc": {
				"methods": {}
			}
		}
	}
}