{
	"data": {
		"bytecode": {
			"linkReferences": {},
			"object": "6080604052600a60005534801561001557600080fd5b50610178806100256000396000f300608060405260043610610057576000357c0100000000000000000000000000000000000000000000000000000000900463ffffffff1680630c55699c1461005c578063c2169c1a14610087578063e2179b8e146100b2575b600080fd5b34801561006857600080fd5b506100716100c9565b6040518082815260200191505060405180910390f35b34801561009357600080fd5b5061009c6100cf565b6040518082815260200191505060405180910390f35b3480156100be57600080fd5b506100c761011e565b005b60005481565b600080806002908060018154018082558091505090600182039060005260206000200160009091929091909150555080600181548110151561010d57fe5b906000526020600020015491505090565b60018090806001815401808255809150509060018203906000526020600020016000909192909190915055505600a165627a7a723058205e8e1b36659fc6287861c402b418819156aa06feadbf143358e263cef6e2237a0029",
			"opcodes": "PUSH1 0x80 PUSH1 0x40 MSTORE PUSH1 0xA PUSH1 0x0 SSTORE CALLVALUE DUP1 ISZERO PUSH2 0x15 JUMPI PUSH1 0x0 DUP1 REVERT JUMPDEST POP PUSH2 0x178 DUP1 PUSH2 0x25 PUSH1 0x0 CODECOPY PUSH1 0x0 RETURN STOP PUSH1 0x80 PUSH1 0x40 MSTORE PUSH1 0x4 CALLDATASIZE LT PUSH2 0x57 JUMPI PUSH1 0x0 CALLDATALOAD PUSH29 0x100000000000000000000000000000000000000000000000000000000 SWAP1 DIV PUSH4 0xFFFFFFFF AND DUP1 PUSH4 0xC55699C EQ PUSH2 0x5C JUMPI DUP1 PUSH4 0xC2169C1A EQ PUSH2 0x87 JUMPI DUP1 PUSH4 0xE2179B8E EQ PUSH2 0xB2 JUMPI JUMPDEST PUSH1 0x0 DUP1 REVERT JUMPDEST CALLVALUE DUP1 ISZERO PUSH2 0x68 JUMPI PUSH1 0x0 DUP1 REVERT JUMPDEST POP PUSH2 0x71 PUSH2 0xC9 JUMP JUMPDEST PUSH1 0x40 MLOAD DUP1 DUP3 DUP2 MSTORE PUSH1 0x20 ADD SWAP2 POP POP PUSH1 0x40 MLOAD DUP1 SWAP2 SUB SWAP1 RETURN JUMPDEST CALLVALUE DUP1 ISZERO PUSH2 0x93 JUMPI PUSH1 0x0 DUP1 REVERT JUMPDEST POP PUSH2 0x9C PUSH2 0xCF JUMP JUMPDEST PUSH1 0x40 MLOAD DUP1 DUP3 DUP2 MSTORE PUSH1 0x20 ADD SWAP2 POP POP PUSH1 0x40 MLOAD DUP1 SWAP2 SUB SWAP1 RETURN JUMPDEST CALLVALUE DUP1 ISZERO PUSH2 0xBE JUMPI PUSH1 0x0 DUP1 REVERT JUMPDEST POP PUSH2 0xC7 PUSH2 0x11E JUMP JUMPDEST STOP JUMPDEST PUSH1 0x0 SLOAD DUP2 JUMP JUMPDEST PUSH1 0x0 DUP1 DUP1 PUSH1 0x2 SWAP1 DUP1 PUSH1 0x1 DUP2 SLOAD ADD DUP1 DUP3 SSTORE DUP1 SWAP2 POP POP SWAP1 PUSH1 0x1 DUP3 SUB SWAP1 PUSH1 0x0 MSTORE PUSH1 0x20 PUSH1 0x0 KECCAK256 ADD PUSH1 0x0 SWAP1 SWAP2 SWAP3 SWAP1 SWAP2 SWAP1 SWAP2 POP SSTORE POP DUP1 PUSH1 0x1 DUP2 SLOAD DUP2 LT ISZERO ISZERO PUSH2 0x10D JUMPI INVALID JUMPDEST SWAP1 PUSH1 0x0 MSTORE PUSH1 0x20 PUSH1 0x0 KECCAK256 ADD SLOAD SWAP2 POP POP SWAP1 JUMP JUMPDEST PUSH1 0x1 DUP1 SWAP1 DUP1 PUSH1 0x1 DUP2 SLOAD ADD DUP1 DUP3 SSTORE DUP1 SWAP2 POP POP SWAP1 PUSH1 0x1 DUP3 SUB SWAP1 PUSH1 0x0 MSTORE PUSH1 0x20 PUSH1 0x0 KECCAK256 ADD PUSH1 0x0 SWAP1 SWAP2 SWAP3 SWAP1 SWAP2 SWAP1 SWAP2 POP SSTORE POP JUMP STOP LOG1 PUSH6 0x627A7A723058 KECCAK256 0x5e DUP15 SHL CALLDATASIZE PUSH6 0x9FC6287861C4 MUL 0xb4 XOR DUP2 SWAP2 JUMP 0xaa MOD INVALID 0xad 0xbf EQ CALLER PC 0xe2 PUSH4 0xCEF6E223 PUSH27 0x2900000000000000000000000000000000000000000000000000 "
		},
		"gasEstimates": {
			"creation": {
				"codeDepositCost": "75200",
				"executionCost": "20129",
				"totalCost": "95329"
			},
			"external": {
				"g()": "40508",
				"gg()": "41046",
				"x()": "394"
			}
		},
		"methodIdentifiers": {
			"g()": "e2179b8e",
			"gg()": "c2169c1a",
			"x()": "0c55699c"
		}
	},
	"abi": [
		{
			"constant": true,
			"inputs": [],
			"name": "x",
			"outputs": [
				{
					"name": "",
					"type": "uint256"
				}
			],
			"payable": false,
			"stateMutability": "view",
			"type": "function"
		},
		{
			"constant": false,
			"inputs": [],
			"name": "gg",
			"outputs": [
				{
					"name": "",
					"type": "uint256"
				}
			],
			"payable": false,
			"stateMutability": "nonpayable",
			"type": "function"
		},
		{
			"constant": false,
			"inputs": [],
			"name": "g",
			"outputs": [],
			"payable": false,
			"stateMutability": "nonpayable",
			"type": "function"
		}
	]
}